{"abi":[{"type":"function","name":"data","inputs":[{"name":"","type":"address","internalType":"address"}],"outputs":[{"name":"","type":"bytes","internalType":"bytes"}],"stateMutability":"view"},{"type":"function","name":"isInitialized","inputs":[{"name":"smartAccount","type":"address","internalType":"address"}],"outputs":[{"name":"","type":"bool","internalType":"bool"}],"stateMutability":"view"},{"type":"function","name":"isModuleType","inputs":[{"name":"moduleTypeId","type":"uint256","internalType":"uint256"}],"outputs":[{"name":"","type":"bool","internalType":"bool"}],"stateMutability":"pure"},{"type":"function","name":"onInstall","inputs":[{"name":"_data","type":"bytes","internalType":"bytes"}],"outputs":[],"stateMutability":"payable"},{"type":"function","name":"onUninstall","inputs":[{"name":"","type":"bytes","internalType":"bytes"}],"outputs":[],"stateMutability":"payable"},{"type":"function","name":"postCheck","inputs":[{"name":"hookData","type":"bytes","internalType":"bytes"}],"outputs":[],"stateMutability":"payable"},{"type":"function","name":"postHookData","inputs":[{"name":"","type":"address","internalType":"address"}],"outputs":[{"name":"","type":"bytes","internalType":"bytes"}],"stateMutability":"view"},{"type":"function","name":"preCheck","inputs":[{"name":"msgSender","type":"address","internalType":"address"},{"name":"value","type":"uint256","internalType":"uint256"},{"name":"msgData","type":"bytes","internalType":"bytes"}],"outputs":[{"name":"hookData","type":"bytes","internalType":"bytes"}],"stateMutability":"payable"},{"type":"function","name":"preHookData","inputs":[{"name":"","type":"address","internalType":"address"}],"outputs":[{"name":"","type":"bytes","internalType":"bytes"}],"stateMutability":"view"},{"type":"error","name":"AlreadyInitialized","inputs":[{"name":"smartAccount","type":"address","internalType":"address"}]},{"type":"error","name":"NotInitialized","inputs":[{"name":"smartAccount","type":"address","internalType":"address"}]}],"bytecode":{"object":"0x608060405234601c57600e6020565b610cfa61002b8239610cfa90f35b6026565b60405190565b5f80fdfe60806040526004361015610013575b610689565b61001d5f356100ab565b80623f8640146100a6578063173bf7da146100a15780636d61fe701461009c5780638a91b0e314610097578063b90d3d0c14610092578063b95db83f1461008d578063d60b347f14610088578063d68f6025146100835763ecd059610361000e57610654565b610607565b61055a565b6104fe565b6104b0565b61046e565b610444565b61041a565b61035f565b60e01c90565b60405190565b5f80fd5b5f80fd5b5f80fd5b60018060a01b031690565b6100d7906100c3565b90565b6100e3816100ce565b036100ea57565b5f80fd5b905035906100fb826100da565b565b9060208282031261011657610113915f016100ee565b90565b6100bb565b90565b61013261012d610137926100c3565b61011b565b6100c3565b90565b6101439061011e565b90565b61014f9061013a565b90565b9061015c90610146565b5f5260205260405f2090565b634e487b7160e01b5f525f60045260245ffd5b634e487b7160e01b5f52602260045260245ffd5b90600160028304921680156101af575b60208310146101aa57565b61017b565b91607f169161019f565b60209181520190565b5f5260205f2090565b905f92918054906101e56101de8361018f565b80946101b9565b916001811690815f1461023c5750600114610200575b505050565b61020d91929394506101c2565b915f925b81841061022457505001905f80806101fb565b60018160209295939554848601520191019290610211565b92949550505060ff19168252151560200201905f80806101fb565b90610261916101cb565b90565b601f801991011690565b634e487b7160e01b5f52604160045260245ffd5b9061028c90610264565b810190811067ffffffffffffffff8211176102a657604052565b61026e565b906102cb6102c4926102bb6100b1565b93848092610257565b0383610282565b565b905f106102e0576102dd906102ab565b90565b610168565b6102fb906102f66001915f92610152565b6102cd565b90565b5190565b60209181520190565b90825f9392825e0152565b61033561033e6020936103439361032c816102fe565b93848093610302565b9586910161030b565b610264565b0190565b61035c9160208201915f818403910152610316565b90565b3461038f5761038b61037a6103753660046100fd565b6102e5565b6103826100b1565b91829182610347565b0390f35b6100b7565b5f80fd5b5f80fd5b5f80fd5b909182601f830112156103da5781359167ffffffffffffffff83116103d55760200192600183028401116103d057565b61039c565b610398565b610394565b90602082820312610410575f82013567ffffffffffffffff811161040b5761040792016103a0565b9091565b6100bf565b6100bb565b5f0190565b61042e6104283660046103df565b9061089a565b6104366100b1565b8061044081610415565b0390f35b6104586104523660046103df565b906108b2565b6104606100b1565b8061046a81610415565b0390f35b61048261047c3660046103df565b90610a7a565b61048a6100b1565b8061049481610415565b0390f35b6104ad906104a85f915f92610152565b6102cd565b90565b346104e0576104dc6104cb6104c63660046100fd565b610498565b6104d36100b1565b91829182610347565b0390f35b6100b7565b6104fb906104f66002915f92610152565b6102cd565b90565b3461052e5761052a6105196105143660046100fd565b6104e5565b6105216100b1565b91829182610347565b0390f35b6100b7565b151590565b61054190610533565b9052565b9190610558905f60208501940190610538565b565b3461058a576105866105756105703660046100fd565b610ac2565b61057d6100b1565b91829182610545565b0390f35b6100b7565b90565b61059b8161058f565b036105a257565b5f80fd5b905035906105b382610592565b565b91606083830312610602576105cc825f85016100ee565b926105da83602083016105a6565b92604082013567ffffffffffffffff81116105fd576105f992016103a0565b9091565b6100bf565b6100bb565b6106326106216106183660046105b5565b92919091610c58565b6106296100b1565b91829182610347565b0390f35b9060208282031261064f5761064c915f016105a6565b90565b6100bb565b346106845761068061066f61066a366004610636565b610cda565b6106776100b1565b91829182610545565b0390f35b6100b7565b5f80fd5b5090565b601f602091010490565b1b90565b919060086106ba9102916106b45f198461069b565b9261069b565b9181191691161790565b6106d86106d36106dd9261058f565b61011b565b61058f565b90565b90565b91906106f96106f4610701936106c4565b6106e0565b90835461069f565b9055565b5f90565b61071b91610715610705565b916106e3565b565b5b818110610729575050565b806107365f600193610709565b0161071e565b9190601f811161074c575b505050565b61075861077d936101c2565b90602061076484610691565b83019310610785575b61077690610691565b019061071d565b5f8080610747565b91506107768192905061076d565b1c90565b906107a7905f1990600802610793565b191690565b816107b691610797565b906002021790565b916107c9908261068d565b9067ffffffffffffffff8211610888576107ed826107e7855461018f565b8561073c565b5f90601f83116001146108205791809161080f935f92610814575b50506107ac565b90555b565b90915001355f80610808565b601f1983169161082f856101c2565b925f5b81811061087057509160029391856001969410610856575b50505002019055610812565b610866910135601f841690610797565b90555f808061084a565b91936020600181928787013581550195019201610832565b61026e565b9061089892916107be565b565b906108b0916108ab60023390610152565b61088d565b565b906108c7916108c25f3390610152565b61088d565b565b906108dc905f1990602003600802610793565b8154169055565b905f916108fa6108f2826101c2565b9283546107ac565b905555565b919290602082105f1461095857601f8411600114610928576109229293506107ac565b90555b5b565b509061094e61095393600161094561093f856101c2565b92610691565b8201910161071d565b6108e3565b610925565b5061098f82936109696001946101c2565b61098861097585610691565b820192601f86168061099a575b50610691565b019061071d565b600202179055610926565b6109a6908886036108c9565b5f610982565b929091680100000000000000008211610a0c576020115f146109fd57602081105f146109e1576109db916107ac565b90555b5b565b60019160ff19166109f1846101c2565b556002020190556109de565b600191506002020190556109df565b61026e565b908154610a1d8161018f565b90818311610a46575b818310610a34575b50505050565b610a3d936108ff565b5f808080610a2e565b610a52838383876109ac565b610a26565b5f610a6191610a11565b565b905f03610a7557610a7390610a57565b565b610168565b5050610a905f610a8b813390610152565b610a63565b565b5f90565b610aa0905461018f565b90565b90565b610aba610ab5610abf92610aa3565b61011b565b61058f565b90565b610ad8610add91610ad1610a92565b505f610152565b610a96565b610aef610ae95f610aa6565b9161058f565b1190565b606090565b60601b90565b610b0790610af8565b90565b610b1390610afe565b90565b610b22610b27916100ce565b610b0a565b9052565b905090565b90825f939282370152565b909182610b4b81610b5293610b2b565b8093610b30565b0190565b80610b67601492610b6e9694610b16565b0191610b3b565b90565b90610b7b816102fe565b9067ffffffffffffffff8211610c3b57610b9f82610b99855461018f565b8561073c565b602090601f8311600114610bd357918091610bc2935f92610bc7575b50506107ac565b90555b565b90915001515f80610bbb565b601f19831691610be2856101c2565b925f5b818110610c2357509160029391856001969410610c09575b50505002019055610bc5565b610c19910151601f841690610797565b90555f8080610bfd565b91936020600181928787015181550195019201610be5565b61026e565b90610c4a91610b71565b565b610c55906102ab565b90565b610c94915091610c85610ca59493610c6e610af3565b509193610c796100b1565b94859360208501610b56565b60208201810382520382610282565b610ca060013390610152565b610c40565b610cb8610cb35f3390610152565b610c4c565b90565b90565b610cd2610ccd610cd792610cbb565b61011b565b61058f565b90565b610ce2610a92565b50610cf6610cf06001610cbe565b9161058f565b149056","linkReferences":{}},"methodIdentifiers":{"data(address)":"b90d3d0c","isInitialized(address)":"d60b347f","isModuleType(uint256)":"ecd05961","onInstall(bytes)":"6d61fe70","onUninstall(bytes)":"8a91b0e3","postCheck(bytes)":"173bf7da","postHookData(address)":"b95db83f","preCheck(address,uint256,bytes)":"d68f6025","preHookData(address)":"003f8640"},"id":56}