{"abi":[{"type":"function","name":"isInitialized","inputs":[{"name":"smartAccount","type":"address","internalType":"address"}],"outputs":[{"name":"","type":"bool","internalType":"bool"}],"stateMutability":"view"},{"type":"function","name":"isModuleType","inputs":[{"name":"typeID","type":"uint256","internalType":"uint256"}],"outputs":[{"name":"","type":"bool","internalType":"bool"}],"stateMutability":"view"},{"type":"function","name":"isValidSignatureWithSender","inputs":[{"name":"sender","type":"address","internalType":"address"},{"name":"hash","type":"bytes32","internalType":"bytes32"},{"name":"data","type":"bytes","internalType":"bytes"}],"outputs":[{"name":"","type":"bytes4","internalType":"bytes4"}],"stateMutability":"view"},{"type":"function","name":"onInstall","inputs":[{"name":"_data","type":"bytes","internalType":"bytes"}],"outputs":[],"stateMutability":"payable"},{"type":"function","name":"onUninstall","inputs":[{"name":"","type":"bytes","internalType":"bytes"}],"outputs":[],"stateMutability":"payable"},{"type":"function","name":"validateUserOp","inputs":[{"name":"_userOp","type":"tuple","internalType":"struct PackedUserOperation","components":[{"name":"sender","type":"address","internalType":"address"},{"name":"nonce","type":"uint256","internalType":"uint256"},{"name":"initCode","type":"bytes","internalType":"bytes"},{"name":"callData","type":"bytes","internalType":"bytes"},{"name":"accountGasLimits","type":"bytes32","internalType":"bytes32"},{"name":"preVerificationGas","type":"uint256","internalType":"uint256"},{"name":"gasFees","type":"bytes32","internalType":"bytes32"},{"name":"paymasterAndData","type":"bytes","internalType":"bytes"},{"name":"signature","type":"bytes","internalType":"bytes"}]},{"name":"_userOpHash","type":"bytes32","internalType":"bytes32"}],"outputs":[{"name":"","type":"uint256","internalType":"uint256"}],"stateMutability":"payable"},{"type":"function","name":"webAuthnValidatorStorage","inputs":[{"name":"kernel","type":"address","internalType":"address"}],"outputs":[{"name":"pubKeyX","type":"uint256","internalType":"uint256"},{"name":"pubKeyY","type":"uint256","internalType":"uint256"}],"stateMutability":"view"},{"type":"event","name":"WebAuthnPublicKeyRegistered","inputs":[{"name":"kernel","type":"address","indexed":true,"internalType":"address"},{"name":"authenticatorIdHash","type":"bytes32","indexed":true,"internalType":"bytes32"},{"name":"pubKeyX","type":"uint256","indexed":false,"internalType":"uint256"},{"name":"pubKeyY","type":"uint256","indexed":false,"internalType":"uint256"}],"anonymous":false},{"type":"error","name":"AlreadyInitialized","inputs":[{"name":"smartAccount","type":"address","internalType":"address"}]},{"type":"error","name":"InvalidPublicKey","inputs":[]},{"type":"error","name":"InvalidTargetAddress","inputs":[{"name":"target","type":"address","internalType":"address"}]},{"type":"error","name":"NotInitialized","inputs":[{"name":"smartAccount","type":"address","internalType":"address"}]}],"bytecode":{"object":"0x608060405234601c57600e6020565b611d3761002b8239611d3790f35b6026565b60405190565b5f80fdfe60806040526004361015610013575b610529565b61001d5f3561008c565b80636d61fe70146100875780638a91b0e3146100825780639343e7591461007d5780639700320314610078578063d60b347f14610073578063ecd059611461006e5763f551e2ee0361000e576104f0565b61043b565b6103c5565b610372565b6102a4565b610150565b610126565b60e01c90565b60405190565b5f80fd5b5f80fd5b5f80fd5b5f80fd5b5f80fd5b909182601f830112156100e65781359167ffffffffffffffff83116100e15760200192600183028401116100dc57565b6100a8565b6100a4565b6100a0565b9060208282031261011c575f82013567ffffffffffffffff81116101175761011392016100ac565b9091565b61009c565b610098565b5f0190565b61013a6101343660046100eb565b906106ff565b610142610092565b8061014c81610121565b0390f35b61016461015e3660046100eb565b906108b1565b61016c610092565b8061017681610121565b0390f35b5f80fd5b60018060a01b031690565b6101929061017e565b90565b61019e81610189565b036101a557565b5f80fd5b905035906101b682610195565b565b906020828203126101d1576101ce915f016101a9565b90565b610098565b90565b6101ed6101e86101f29261017e565b6101d6565b61017e565b90565b6101fe906101d9565b90565b61020a906101f5565b90565b9061021790610201565b5f5260205260405f2090565b5f1c90565b90565b61023761023c91610223565b610228565b90565b610249905461022b565b90565b610256905f61020d565b9061026e60016102675f850161023f565b930161023f565b90565b90565b61027d90610271565b9052565b9160206102a292949361029b60408201965f830190610274565b0190610274565b565b346102d5576102bc6102b73660046101b8565b61024c565b906102d16102c8610092565b92839283610281565b0390f35b61017a565b5f80fd5b90816101209103126102ed5790565b6102da565b90565b6102fe816102f2565b0361030557565b5f80fd5b90503590610316826102f5565b565b9190604083820312610358575f8301359067ffffffffffffffff821161035357610347816103509386016102de565b93602001610309565b90565b61009c565b610098565b9190610370905f60208501940190610274565b565b61039a610389610383366004610318565b90610951565b610391610092565b9182918261035d565b0390f35b151590565b6103ac9061039e565b9052565b91906103c3905f602085019401906103a3565b565b346103f5576103f16103e06103db3660046101b8565b61097e565b6103e8610092565b918291826103b0565b0390f35b61017a565b61040381610271565b0361040a57565b5f80fd5b9050359061041b826103fa565b565b9060208282031261043657610433915f0161040e565b90565b610098565b3461046b5761046761045661045136600461041d565b6109bf565b61045e610092565b918291826103b0565b0390f35b61017a565b916060838303126104bd57610487825f85016101a9565b926104958360208301610309565b92604082013567ffffffffffffffff81116104b8576104b492016100ac565b9091565b61009c565b610098565b63ffffffff60e01b1690565b6104d7906104c2565b9052565b91906104ee905f602085019401906104ce565b565b346105245761052061050f610506366004610470565b92919091610a59565b610517610092565b918291826104db565b0390f35b61017a565b5f80fd5b61053690610189565b9052565b919061054d905f6020850194019061052d565b565b5f80fd5b601f801991011690565b634e487b7160e01b5f52604160045260245ffd5b9061057b90610553565b810190811067ffffffffffffffff82111761059557604052565b61055d565b906105ad6105a6610092565b9283610571565b565b91906040838203126105e9576105e2906105c9604061059a565b936105d6825f830161040e565b5f86015260200161040e565b6020830152565b61054f565b9190606083820312610616578061060a610613925f86016105af565b93604001610309565b90565b610098565b6106259051610271565b90565b90565b61063f61063a61064492610628565b6101d6565b610271565b90565b634e487b7160e01b5f525f60045260245ffd5b5f1b90565b9061066b5f199161065a565b9181191691161790565b61068961068461068e92610271565b6101d6565b610271565b90565b90565b906106a96106a46106b092610675565b610691565b825461065f565b9055565b906106df602060016106e5946106d75f82016106d15f880161061b565b90610694565b01920161061b565b90610694565b565b906106f1916106b4565b565b6106fc906102f2565b90565b9061070933610aac565b6107fd5761071a91908101906105ee565b6107255f830161061b565b6107376107315f61062b565b91610271565b1480156107d8575b6107bc57610757826107525f339061020d565b6106e7565b3361076f60206107685f860161061b565b940161061b565b6107a261079c7fdaa12c36d531747b295ac442f2dc73409156b4e78117b4b178bc019014b6cf5b93610201565b936106f3565b936107b76107ae610092565b92839283610281565b0390a3565b5f63145a1fdd60e31b8152806107d460048201610121565b0390fd5b506107e56020830161061b565b6107f76107f15f61062b565b91610271565b1461073f565b610818335f9182916393360fbf60e01b83526004830161053a565b0390fd5b1b90565b9190600861083b9102916108355f198461081c565b9261081c565b9181191691161790565b919061085b61085661086393610675565b610691565b908354610820565b9055565b5f90565b61087d91610877610867565b91610845565b565b5f6001610898926108928380830161086b565b0161086b565b565b905f036108ac576108aa9061087f565b565b610647565b50506108c56108bf33610aac565b1561039e565b6108df576108dd5f6108d881339061020d565b61089a565b565b6108fa335f91829163f91bd6f160e01b83526004830161053a565b0390fd5b5f80fd5b5f80fd5b5f80fd5b90359060016020038136030382121561094c570180359067ffffffffffffffff82116109475760200191600182023603831361094257565b610906565b610902565b6108fe565b6109779161095d610867565b5061096f33919261010081019061090a565b929091610d5f565b90565b5f90565b6109909061098a61097a565b50610aac565b90565b90565b6109aa6109a56109af92610993565b6101d6565b610271565b90565b6109bc6001610996565b90565b6109c761097a565b506109e16109db6109d66109b2565b610271565b91610271565b1490565b5f90565b6109f25f61062b565b90565b90565b60e01b90565b610a12610a0d610a17926109f5565b6109f8565b6104c2565b90565b610a2763ffffffff6109fe565b90565b90565b610a41610a3c610a4692610a2a565b6109f8565b6104c2565b90565b610a56631626ba7e610a2d565b90565b509091610a7392610a686109e5565b503392909192610d5f565b610a8c610a86610a816109e9565b610271565b91610271565b145f14610a9f57610a9b610a49565b5b90565b610aa7610a1a565b610a9c565b5f610ac3610ac992610abc61097a565b508261020d565b0161023f565b610adb610ad55f61062b565b91610271565b141590565b5f80fd5b67ffffffffffffffff8111610b0257610afe602091610553565b0190565b61055d565b90825f939282370152565b90929192610b27610b2282610ae4565b61059a565b93818552602085019082840111610b4357610b4192610b07565b565b610ae0565b9080601f83011215610b6657816020610b6393359101610b12565b90565b6100a0565b67ffffffffffffffff8111610b8957610b85602091610553565b0190565b61055d565b90929192610ba3610b9e82610b6b565b61059a565b93818552602085019082840111610bbf57610bbd92610b07565b565b610ae0565b9080601f83011215610be257816020610bdf93359101610b8e565b90565b6100a0565b610bf08161039e565b03610bf757565b5f80fd5b90503590610c0882610be7565b565b909160c082840312610c99575f82013567ffffffffffffffff8111610c945783610c35918401610b48565b92602083013567ffffffffffffffff8111610c8f5781610c56918501610bc4565b92610c64826040830161040e565b92610c8c610c75846060850161040e565b93610c83816080860161040e565b9360a001610bfb565b90565b61009c565b61009c565b610098565b90610ca890610271565b9052565b610cb6604061059a565b90565b90610cf0610ce76001610cca610cac565b94610ce1610cd95f830161023f565b5f8801610c9e565b0161023f565b60208401610c9e565b565b610cfb90610cb9565b90565b90565b610d0d610d12916102f2565b610cfe565b9052565b610d2281602093610d01565b0190565b90565b610d3d610d38610d4292610d26565b6101d6565b610271565b90565b610d4f6017610d29565b90565b610d5c6001610996565b90565b90610d9f610dc3610d9a610d86610df097610db497610d7c610867565b5090810190610c0a565b96929791949590959397949596995f61020d565b610cf2565b96610da8610092565b998a9160208301610d16565b60208201810382520389610571565b936001610dce610d45565b92939495610de96020610de25f8b0161061b565b990161061b565b9899611004565b610dff57610dfc610d52565b90565b610e076109e9565b90565b5190565b90565b610e25610e20610e2a92610e0e565b6101d6565b610271565b90565b634e487b7160e01b5f52603260045260245ffd5b90610e4b82610e0a565b811015610e5d57600160209102010190565b610e2d565b90565b610e79610e74610e7e92610e62565b6101d6565b610271565b90565b60ff60f81b1690565b610e949051610e81565b90565b90610ea9610ea483610b6b565b61059a565b918252565b5f74113a3cb832911d113bb2b130baba34371733b2ba1160591b910152565b610ed76015610e97565b90610ee460208301610eae565b565b610eee610ecd565b90565b6c1131b430b63632b733b2911d1160991b9052565b5190565b905090565b90825f9392825e0152565b610f3f610f3692602092610f2d81610f06565b94858093610f0a565b93849101610f0f565b0190565b601160f91b9052565b600191600d610f6592610f5e81610ef1565b0190610f1a565b610f6e81610f43565b0190565b90610f9a610f7e610092565b8093610f8e602083019182610f4c565b90810382520383610571565b565b90565b905090565b610fc9610fc092602092610fb781610e0a565b94858093610f9f565b93849101610f0f565b0190565b610fd691610fa4565b90565b610fe1610092565b3d5f823e3d90fd5b610ff96110009160209493610fa4565b8092610d01565b0190565b999693909291989597949961101761097a565b5060019961102485610e0a565b6110376110316025610e11565b91610271565b109081156111c3575b506111ba575b61106361105d611054610ee6565b8d8690916113c6565b1561039e565b61119e575b61108f9161108061107b61108993611568565b610f72565b908490916113c6565b1561039e565b611187575b5f6110b46110a3602093610f9c565b6110ab610092565b91829182610fcd565b039060025afa15611182575f6111096020926110f86110d3845161065a565b916110ea6110df610092565b938492888401610fe9565b868201810382520382610571565b611100610092565b91829182610fcd565b039060025afa1561117d5761111e5f5161065a565b9661113261112c5f19610271565b91610271565b146111645761114795969490919293946117ee565b908161115c575b50611157575f90565b600190565b90505f61114e565b93945090915061117a9493929091925f946117ee565b90565b610fd9565b610fd9565b965060205f6110b46110a3829a9350505050611094565b985061108961108f9161108061107b5f9c935050509150611068565b98505f98611046565b6111f391506111ed906111e86111e3886111dd6020610e65565b90610e41565b610e8a565b6112ac565b1561039e565b5f611040565b60f81b90565b61121361120e61121892610993565b6111f9565b610e81565b90565b61122560016111ff565b90565b90565b61123f61123a61124492611228565b6111f9565b610e81565b90565b611251600461122b565b90565b90565b61126b61126661127092611254565b6111f9565b610e81565b90565b61127d6008611257565b90565b90565b61129761129261129c92611280565b6111f9565b610e81565b90565b6112a96010611283565b90565b906112b561097a565b50816112bf61121b565b166112d96112d36112ce61121b565b610e81565b91610e81565b03611378578061134d575b61134857806112f1611273565b1661130b611305611300611273565b610e81565b91610e81565b03611317575b50600190565b61131f61129f565b1661133961133361132e61129f565b610e81565b91610e81565b14611344575f611311565b5f90565b505f90565b5080611357611247565b1661137161136b611366611247565b610e81565b91610e81565b14156112e4565b50505f90565b600161138a9101610271565b90565b634e487b7160e01b5f52601160045260245ffd5b6113b06113b691939293610271565b92610271565b82018092116113c157565b61138d565b6113de6113e4919392936113d861097a565b50610f9c565b92610f9c565b906113ee83610e0a565b926113f883610e0a565b6114015f61062b565b5b8061141561140f88610271565b91610271565b10156114a6576114268482906113a1565b61143861143284610271565b91610271565b101561149c5761145161144c848390610e41565b610e8a565b61147f61147961147461146f896114698a88906113a1565b90610e41565b610e8a565b610e81565b91610e81565b036114925761148d9061137e565b611402565b5050505050505f90565b5050505050505f90565b505050505050600190565b606090565b90565b6114cd6114c86114d2926114b6565b6101d6565b610271565b90565b6114e46114ea91939293610271565b92610271565b82039182116114f557565b61138d565b603d60f81b90565b9061151461150f83610ae4565b61059a565b918252565b369037565b9061154361152b83611502565b926020806115398693610ae4565b9201910390611519565b565b602b60f81b90565b602f60f81b90565b605f60f81b90565b602d60f81b90565b90565b61157d611582916115776114b1565b506118b3565b610f9c565b61158b5f61062b565b61159482610e0a565b6115a76115a160026114b9565b91610271565b118061175d575b5f146116d157506115d16115c260026114b9565b5b6115cc83610e0a565b6114d5565b906115db8261151e565b906115e55f61062b565b5b806115f96115f386610271565b91610271565b10156116c25761164c90611616611611848390610e41565b610e8a565b611627611621611545565b91610e81565b145f146116515761163661155d565b611645859183905f1a92610e41565b535b61137e565b6115e6565b61166461165f848390610e41565b610e8a565b61167561166f61154d565b91610e81565b145f1461169a57611684611555565b611693859183905f1a92610e41565b535b611647565b6116ad6116a8848390610e41565b610e8a565b6116bc859183905f1a92610e41565b53611695565b50506116ce9150611565565b90565b6116da82610e0a565b6116ed6116e76001610996565b91610271565b1180611717575b611702575b6115d1906115c3565b506115d16117106001610996565b90506116f9565b506117466117418361173b61172b86610e0a565b6117356001610996565b906114d5565b90610e41565b610e8a565b6117576117516114fa565b91610e81565b146116f4565b5061178c6117878361178161177186610e0a565b61177b60026114b9565b906114d5565b90610e41565b610e8a565b61179d6117976114fa565b91610e81565b146115ae565b90565b6117ba6117b56117bf926117a3565b6101d6565b610271565b90565b6117eb7f7fffffff800000007fffffffffffffffde737d56d38bcf4279dce5617e3192a86117a6565b90565b94929093916117fb61097a565b508061181661181061180b6117c2565b610271565b91610271565b1161182d5761182a959490919293946119a6565b90565b5050505050505f90565b60207f6768696a6b6c6d6e6f707172737475767778797a303132333435363738392b2f917f4142434445464748494a4b4c4d4e4f505152535455565758595a6162636465665f8201520152565b61188e6040610e97565b9061189b60208301611837565b565b6118a5611884565b90565b6118b061189d565b90565b6118d0906118bf6114b1565b506118c86118a8565b600191611bab565b90565b6118dc906102f2565b9052565b9095949261192b9461191a6119249261191060809661190660a088019c5f8901906118d3565b6020870190610274565b6040850190610274565b6060830190610274565b0190610274565b565b73c2b78104907f722dabac4c69f826a522b2754de490565b606090565b3d5f146119655761195a3d611502565b903d5f602084013e5b565b61196d611945565b90611963565b90505190611980826103fa565b565b9060208282031261199b57611998915f01611973565b90565b610098565b61010090565b906119d55f969487966119e4946119bb61097a565b5093959190916119c9610092565b968795602087016118e0565b60208201810382520382610571565b908214611a7c576119f36119a0565b90602081019051915afa611a0561194a565b90611a18611a125f61039e565b9161039e565b148015611a5a575b611a5557611a3e906020611a3382610e0a565b818301019101611982565b611a51611a4b6001610996565b91610271565b1490565b505f90565b50611a6481610e0a565b611a76611a705f61062b565b91610271565b14611a20565b611a8461192d565b90602081019051915afa50611ab0611a9a61194a565b6020611aa582610e0a565b818301019101611982565b611ac3611abd6001610996565b91610271565b1490565b611ad05f610e97565b90565b611adb611ac7565b90565b611af2611aed611af792611228565b6101d6565b610271565b90565b611b09611b0f91939293610271565b92610271565b91611b1b838202610271565b928184041490151715611b2a57565b61138d565b90565b611b46611b41611b4b92611b2f565b6101d6565b610271565b90565b634e487b7160e01b5f52601260045260245ffd5b611b6e611b7491610271565b91610271565b908115611b7f570490565b611b4e565b90611ba9611b9183610e97565b92602080611b9f8693610b6b565b9201910390611519565b565b919091611bb66114b1565b50611bc081610e0a565b611bd2611bcc5f61062b565b91610271565b14611d2957815f14611cdd576001611c2b611c256004611c20611c1a611c0a611bfa88610e0a565b611c0460026114b9565b906113a1565b611c146003611b32565b90611b62565b91611ade565b611afa565b5b611b84565b930191602084019282908351840160208101918251935f84525b828110611c965750505052611c5a575b505090565b600390510680600114611c8257600214611c75575b80611c55565b6001603d9103535f611c6f565b50600281603d60018194035303535f611c6f565b6003600191989293980191603f828080865194848660121c168901518153018385600c1c16880151815301828460061c168701518153019116840151815301969190611c45565b6001611c2b611d24611d14611d046004611cff611cf988610e0a565b91611ade565b611afa565b611d0e60026114b9565b906113a1565b611d1e6003611b32565b90611b62565b611c26565b505050611d34611ad3565b9056","linkReferences":{}},"methodIdentifiers":{"isInitialized(address)":"d60b347f","isModuleType(uint256)":"ecd05961","isValidSignatureWithSender(address,bytes32,bytes)":"f551e2ee","onInstall(bytes)":"6d61fe70","onUninstall(bytes)":"8a91b0e3","validateUserOp((address,uint256,bytes,bytes,bytes32,uint256,bytes32,bytes,bytes),bytes32)":"97003203","webAuthnValidatorStorage(address)":"9343e759"},"id":74}