{
  "_format": "hh-sol-artifact-1",
  "contractName": "ERC2771Forwarder",
  "sourceName": "contracts/metatx/ERC2771Forwarder.sol",
  "abi": [
    {
      "inputs": [
        {
          "internalType": "string",
          "name": "name",
          "type": "string"
        }
      ],
      "stateMutability": "nonpayable",
      "type": "constructor"
    },
    {
      "inputs": [
        {
          "internalType": "uint48",
          "name": "deadline",
          "type": "uint48"
        }
      ],
      "name": "ERC2771ForwarderExpiredRequest",
      "type": "error"
    },
    {
      "inputs": [
        {
          "internalType": "address",
          "name": "signer",
          "type": "address"
        },
        {
          "internalType": "address",
          "name": "from",
          "type": "address"
        }
      ],
      "name": "ERC2771ForwarderInvalidSigner",
      "type": "error"
    },
    {
      "inputs": [
        {
          "internalType": "uint256",
          "name": "requestedValue",
          "type": "uint256"
        },
        {
          "internalType": "uint256",
          "name": "msgValue",
          "type": "uint256"
        }
      ],
      "name": "ERC2771ForwarderMismatchedValue",
      "type": "error"
    },
    {
      "inputs": [
        {
          "internalType": "address",
          "name": "target",
          "type": "address"
        },
        {
          "internalType": "address",
          "name": "forwarder",
          "type": "address"
        }
      ],
      "name": "ERC2771UntrustfulTarget",
      "type": "error"
    },
    {
      "inputs": [],
      "name": "FailedCall",
      "type": "error"
    },
    {
      "inputs": [
        {
          "internalType": "uint256",
          "name": "balance",
          "type": "uint256"
        },
        {
          "internalType": "uint256",
          "name": "needed",
          "type": "uint256"
        }
      ],
      "name": "InsufficientBalance",
      "type": "error"
    },
    {
      "inputs": [
        {
          "internalType": "address",
          "name": "account",
          "type": "address"
        },
        {
          "internalType": "uint256",
          "name": "currentNonce",
          "type": "uint256"
        }
      ],
      "name": "InvalidAccountNonce",
      "type": "error"
    },
    {
      "inputs": [],
      "name": "InvalidShortString",
      "type": "error"
    },
    {
      "inputs": [
        {
          "internalType": "string",
          "name": "str",
          "type": "string"
        }
      ],
      "name": "StringTooLong",
      "type": "error"
    },
    {
      "anonymous": false,
      "inputs": [],
      "name": "EIP712DomainChanged",
      "type": "event"
    },
    {
      "anonymous": false,
      "inputs": [
        {
          "indexed": true,
          "internalType": "address",
          "name": "signer",
          "type": "address"
        },
        {
          "indexed": false,
          "internalType": "uint256",
          "name": "nonce",
          "type": "uint256"
        },
        {
          "indexed": false,
          "internalType": "bool",
          "name": "success",
          "type": "bool"
        }
      ],
      "name": "ExecutedForwardRequest",
      "type": "event"
    },
    {
      "inputs": [],
      "name": "eip712Domain",
      "outputs": [
        {
          "internalType": "bytes1",
          "name": "fields",
          "type": "bytes1"
        },
        {
          "internalType": "string",
          "name": "name",
          "type": "string"
        },
        {
          "internalType": "string",
          "name": "version",
          "type": "string"
        },
        {
          "internalType": "uint256",
          "name": "chainId",
          "type": "uint256"
        },
        {
          "internalType": "address",
          "name": "verifyingContract",
          "type": "address"
        },
        {
          "internalType": "bytes32",
          "name": "salt",
          "type": "bytes32"
        },
        {
          "internalType": "uint256[]",
          "name": "extensions",
          "type": "uint256[]"
        }
      ],
      "stateMutability": "view",
      "type": "function"
    },
    {
      "inputs": [
        {
          "components": [
            {
              "internalType": "address",
              "name": "from",
              "type": "address"
            },
            {
              "internalType": "address",
              "name": "to",
              "type": "address"
            },
            {
              "internalType": "uint256",
              "name": "value",
              "type": "uint256"
            },
            {
              "internalType": "uint256",
              "name": "gas",
              "type": "uint256"
            },
            {
              "internalType": "uint48",
              "name": "deadline",
              "type": "uint48"
            },
            {
              "internalType": "bytes",
              "name": "data",
              "type": "bytes"
            },
            {
              "internalType": "bytes",
              "name": "signature",
              "type": "bytes"
            }
          ],
          "internalType": "struct ERC2771Forwarder.ForwardRequestData",
          "name": "request",
          "type": "tuple"
        }
      ],
      "name": "execute",
      "outputs": [],
      "stateMutability": "payable",
      "type": "function"
    },
    {
      "inputs": [
        {
          "components": [
            {
              "internalType": "address",
              "name": "from",
              "type": "address"
            },
            {
              "internalType": "address",
              "name": "to",
              "type": "address"
            },
            {
              "internalType": "uint256",
              "name": "value",
              "type": "uint256"
            },
            {
              "internalType": "uint256",
              "name": "gas",
              "type": "uint256"
            },
            {
              "internalType": "uint48",
              "name": "deadline",
              "type": "uint48"
            },
            {
              "internalType": "bytes",
              "name": "data",
              "type": "bytes"
            },
            {
              "internalType": "bytes",
              "name": "signature",
              "type": "bytes"
            }
          ],
          "internalType": "struct ERC2771Forwarder.ForwardRequestData[]",
          "name": "requests",
          "type": "tuple[]"
        },
        {
          "internalType": "address payable",
          "name": "refundReceiver",
          "type": "address"
        }
      ],
      "name": "executeBatch",
      "outputs": [],
      "stateMutability": "payable",
      "type": "function"
    },
    {
      "inputs": [
        {
          "internalType": "address",
          "name": "owner",
          "type": "address"
        }
      ],
      "name": "nonces",
      "outputs": [
        {
          "internalType": "uint256",
          "name": "",
          "type": "uint256"
        }
      ],
      "stateMutability": "view",
      "type": "function"
    },
    {
      "inputs": [
        {
          "components": [
            {
              "internalType": "address",
              "name": "from",
              "type": "address"
            },
            {
              "internalType": "address",
              "name": "to",
              "type": "address"
            },
            {
              "internalType": "uint256",
              "name": "value",
              "type": "uint256"
            },
            {
              "internalType": "uint256",
              "name": "gas",
              "type": "uint256"
            },
            {
              "internalType": "uint48",
              "name": "deadline",
              "type": "uint48"
            },
            {
              "internalType": "bytes",
              "name": "data",
              "type": "bytes"
            },
            {
              "internalType": "bytes",
              "name": "signature",
              "type": "bytes"
            }
          ],
          "internalType": "struct ERC2771Forwarder.ForwardRequestData",
          "name": "request",
          "type": "tuple"
        }
      ],
      "name": "verify",
      "outputs": [
        {
          "internalType": "bool",
          "name": "",
          "type": "bool"
        }
      ],
      "stateMutability": "view",
      "type": "function"
    }
  ],
  "bytecode": "0x610160604052348015610010575f5ffd5b5060405161131738038061131783398101604081905261002f91610189565b6040805180820190915260018152603160f81b60208201528190610053825f6100fd565b610120526100628160016100fd565b61014052815160208084019190912060e052815190820120610100524660a0526100ee60e05161010051604080517f8b73c3c69bb8fe3d512ecc4cf759cc79239f7b179b0ffacaa9a75d522b39400f60208201529081019290925260608201524660808201523060a08201525f9060c00160405160208183030381529060405280519060200120905090565b60805250503060c052506103cf565b5f602083511015610118576101118361012f565b9050610129565b8161012384826102bd565b5060ff90505b92915050565b5f5f829050601f81511115610162578260405163305a27a960e01b81526004016101599190610377565b60405180910390fd5b805161016d826103ac565b179392505050565b634e487b7160e01b5f52604160045260245ffd5b5f60208284031215610199575f5ffd5b81516001600160401b038111156101ae575f5ffd5b8201601f810184136101be575f5ffd5b80516001600160401b038111156101d7576101d7610175565b604051601f8201601f19908116603f011681016001600160401b038111828210171561020557610205610175565b60405281815282820160200186101561021c575f5ffd5b8160208401602083015e5f91810160200191909152949350505050565b600181811c9082168061024d57607f821691505b60208210810361026b57634e487b7160e01b5f52602260045260245ffd5b50919050565b601f8211156102b857805f5260205f20601f840160051c810160208510156102965750805b601f840160051c820191505b818110156102b5575f81556001016102a2565b50505b505050565b81516001600160401b038111156102d6576102d6610175565b6102ea816102e48454610239565b84610271565b6020601f82116001811461031c575f83156103055750848201515b5f19600385901b1c1916600184901b1784556102b5565b5f84815260208120601f198516915b8281101561034b578785015182556020948501946001909201910161032b565b508482101561036857868401515f19600387901b60f8161c191681555b50505050600190811b01905550565b602081525f82518060208401528060208501604085015e5f604082850101526040601f19601f83011684010191505092915050565b8051602080830151919081101561026b575f1960209190910360031b1b16919050565b60805160a05160c05160e051610100516101205161014051610ef76104205f395f61039e01525f61036d01525f610a6f01525f610a4701525f6109a201525f6109cc01525f6109f60152610ef75ff3fe608060405260043610610049575f3560e01c806319d8d38c1461004d5780637ecebe001461008157806384b0196e146100c3578063ccf96b4a146100ea578063df905caf146100ff575b5f5ffd5b348015610058575f5ffd5b5061006c610067366004610bae565b610112565b60405190151581526020015b60405180910390f35b34801561008c575f5ffd5b506100b561009b366004610c00565b6001600160a01b03165f9081526002602052604090205490565b604051908152602001610078565b3480156100ce575f5ffd5b506100d7610142565b6040516100789796959493929190610c49565b6100fd6100f8366004610cdf565b610184565b005b6100fd61010d366004610bae565b610289565b5f5f5f5f61011f856102e4565b509250925092508280156101305750815b80156101395750805b95945050505050565b5f6060805f5f5f6060610153610366565b61015b610397565b604080515f80825260208201909252600f60f81b9b939a50919850469750309650945092509050565b6001600160a01b038116155f80805b85811015610242578686828181106101ad576101ad610d61565b90506020028101906101bf9190610d75565b6101cd906040013584610d93565b92505f6101fd8888848181106101e5576101e5610d61565b90506020028101906101f79190610d75565b866103c4565b9050806102395787878381811061021657610216610d61565b90506020028101906102289190610d75565b610236906040013584610d93565b92505b50600101610193565b50348214610271576040516370647f7960e01b8152600481018390523460248201526044015b60405180910390fd5b801561028157610281848261059f565b505050505050565b806040013534146102b957604080516370647f7960e01b8152908201356004820152346024820152604401610268565b6102c48160016103c4565b6102e15760405163d6bda27560e01b815260040160405180910390fd5b50565b5f5f5f5f5f5f6102f387610616565b909250905061031061030b6040890160208a01610c00565b610788565b4261032160a08a0160808b01610db2565b65ffffffffffff161015838015610355575061034060208a018a610c00565b6001600160a01b0316836001600160a01b0316145b919750955093509150509193509193565b60606103927f00000000000000000000000000000000000000000000000000000000000000005f610801565b905090565b60606103927f00000000000000000000000000000000000000000000000000000000000000006001610801565b5f5f5f5f5f6103d2876102e4565b935093509350935085156104985783610420576103f56040880160208901610c00565b60405163d2650cd160e01b81526001600160a01b039091166004820152306024820152604401610268565b826104595761043560a0880160808901610db2565b604051634a777ac560e11b815265ffffffffffff9091166004820152602401610268565b81610498578061046c6020890189610c00565b604051636422d02b60e11b81526001600160a01b03928316600482015291166024820152604401610268565b8380156104a25750815b80156104ab5750825b15610595576001600160a01b0381165f908152600260205260408120805460018101909155905060608801355f6104e860408b0160208c01610c00565b905060408a01355f6104fd60a08d018d610dd7565b61050a60208f018f610c00565b60405160200161051c93929190610e21565b60405160208183030381529060405290505f5f5f83516020850186888af19a505a9050610549818e6108ac565b604080518781528c151560208201526001600160a01b038916917f842fb24a83793558587a3dab2be7674da4a51d09c5542d6dd354e5d0ea70813c910160405180910390a25050505050505b5050505092915050565b804710156105c95760405163cf47918160e01b815247600482015260248101829052604401610268565b6105e2828260405180602001604052805f8152506108c4565b156105eb575050565b3d156105fd576105f96108d9565b5050565b60405163d6bda27560e01b815260040160405180910390fd5b5f80808061076361062a60c0870187610dd7565b8080601f0160208091040260200160405190810160405280939291908181526020018383808284375f9201919091525061075d92507f7f96328b83274ebc7c1cf4f7a3abda602b51a78b7fa1d86a2ce353d75e587cac9150610691905060208a018a610c00565b6106a160408b0160208c01610c00565b60408b013560608c01356106bb61009b60208f018f610c00565b8d60800160208101906106ce9190610db2565b8e8060a001906106de9190610dd7565b6040516106ec929190610e47565b6040805191829003822060208301999099526001600160a01b0397881690820152959094166060860152608085019290925260a084015260c083015265ffffffffffff1660e082015261010081019190915261012001604051602081830303815290604052805190602001206108e4565b90610910565b5090925090505f81600381111561077c5761077c610e56565b14959194509092505050565b6040513060248201525f90819060440160408051601f19818403018152919052602080820180516001600160e01b031663572b6c0560e01b17815282519293505f928392839290918391895afa92503d91505f5190508280156107ec575060208210155b80156107f757505f81115b9695505050505050565b606060ff831461081b5761081483610959565b90506108a6565b81805461082790610e6a565b80601f016020809104026020016040519081016040528092919081815260200182805461085390610e6a565b801561089e5780601f106108755761010080835404028352916020019161089e565b820191905f5260205f20905b81548152906001019060200180831161088157829003601f168201915b505050505090505b92915050565b6108bb603f6060830135610ea2565b8210156105f957fe5b5f5f5f83516020850186885af1949350505050565b6040513d5f823e3d81fd5b5f6108a66108f0610996565b8360405161190160f01b8152600281019290925260228201526042902090565b5f5f5f8351604103610947576020840151604085015160608601515f1a61093988828585610abf565b955095509550505050610952565b505081515f91506002905b9250925092565b60605f61096583610b87565b6040805160208082528183019092529192505f91906020820181803683375050509182525060208101929092525090565b5f306001600160a01b037f0000000000000000000000000000000000000000000000000000000000000000161480156109ee57507f000000000000000000000000000000000000000000000000000000000000000046145b15610a1857507f000000000000000000000000000000000000000000000000000000000000000090565b610392604080517f8b73c3c69bb8fe3d512ecc4cf759cc79239f7b179b0ffacaa9a75d522b39400f60208201527f0000000000000000000000000000000000000000000000000000000000000000918101919091527f000000000000000000000000000000000000000000000000000000000000000060608201524660808201523060a08201525f9060c00160405160208183030381529060405280519060200120905090565b5f80807f7fffffffffffffffffffffffffffffff5d576e7357a4501ddfe92f46681b20a0841115610af857505f91506003905082610b7d565b604080515f808252602082018084528a905260ff891692820192909252606081018790526080810186905260019060a0016020604051602081039080840390855afa158015610b49573d5f5f3e3d5ffd5b5050604051601f1901519150506001600160a01b038116610b7457505f925060019150829050610b7d565b92505f91508190505b9450945094915050565b5f60ff8216601f8111156108a657604051632cd44ac360e21b815260040160405180910390fd5b5f60208284031215610bbe575f5ffd5b813567ffffffffffffffff811115610bd4575f5ffd5b820160e08185031215610be5575f5ffd5b9392505050565b6001600160a01b03811681146102e1575f5ffd5b5f60208284031215610c10575f5ffd5b8135610be581610bec565b5f81518084528060208401602086015e5f602082860101526020601f19601f83011685010191505092915050565b60ff60f81b8816815260e060208201525f610c6760e0830189610c1b565b8281036040840152610c798189610c1b565b606084018890526001600160a01b038716608085015260a0840186905283810360c0850152845180825260208087019350909101905f5b81811015610cce578351835260209384019390920191600101610cb0565b50909b9a5050505050505050505050565b5f5f5f60408486031215610cf1575f5ffd5b833567ffffffffffffffff811115610d07575f5ffd5b8401601f81018613610d17575f5ffd5b803567ffffffffffffffff811115610d2d575f5ffd5b8660208260051b8401011115610d41575f5ffd5b602091820194509250840135610d5681610bec565b809150509250925092565b634e487b7160e01b5f52603260045260245ffd5b5f823560de19833603018112610d89575f5ffd5b9190910192915050565b808201808211156108a657634e487b7160e01b5f52601160045260245ffd5b5f60208284031215610dc2575f5ffd5b813565ffffffffffff81168114610be5575f5ffd5b5f5f8335601e19843603018112610dec575f5ffd5b83018035915067ffffffffffffffff821115610e06575f5ffd5b602001915036819003821315610e1a575f5ffd5b9250929050565b8284823760609190911b6bffffffffffffffffffffffff19169101908152601401919050565b818382375f9101908152919050565b634e487b7160e01b5f52602160045260245ffd5b600181811c90821680610e7e57607f821691505b602082108103610e9c57634e487b7160e01b5f52602260045260245ffd5b50919050565b5f82610ebc57634e487b7160e01b5f52601260045260245ffd5b50049056fea2646970667358221220b3162e46cf5009cda0fd7b979fa7c841a7820646cb210d0a717d56e0d19f713c64736f6c634300081b0033",
  "linkReferences": {},
  "deployedLinkReferences": {}
}