{
  "_format": "hh-sol-artifact-1",
  "contractName": "ERC7913WebAuthnVerifier",
  "sourceName": "contracts/utils/cryptography/verifiers/ERC7913WebAuthnVerifier.sol",
  "abi": [
    {
      "inputs": [
        {
          "internalType": "bytes",
          "name": "key",
          "type": "bytes"
        },
        {
          "internalType": "bytes32",
          "name": "hash",
          "type": "bytes32"
        },
        {
          "internalType": "bytes",
          "name": "signature",
          "type": "bytes"
        }
      ],
      "name": "verify",
      "outputs": [
        {
          "internalType": "bytes4",
          "name": "",
          "type": "bytes4"
        }
      ],
      "stateMutability": "view",
      "type": "function"
    }
  ],
  "bytecode": "0x6080604052348015600e575f5ffd5b506114088061001c5f395ff3fe608060405234801561000f575f5ffd5b5060043610610029575f3560e01c8063024ad3181461002d575b5f5ffd5b61004061003b36600461106f565b61005d565b6040516001600160e01b0319909116815260200160405180910390f35b5f5f3661006a858561010b565b9150915081801561007b5750604087145b80156100e357506100e38660405160200161009891815260200190565b604051602081830303815290604052826100b1906111b6565b6100be60205f8c8e61124c565b6100c791611273565b6100d5604060208d8f61124c565b6100de91611273565b610208565b6100f5576001600160e01b03196100fd565b62495a6360e31b5b925050505b95945050505050565b5f8260c083101561011e575f9150610201565b5f61012c846080818861124c565b61013591611273565b90505f6101458560a0818961124c565b61014e91611273565b90508161015c6020876112a4565b108061017157508061016f6020876112a4565b105b15610180575f93505050610201565b5f61018d8684818a61124c565b61019691611273565b90505f6101a58784818b61124c565b6101ae91611273565b90508160206101bd868a6112a4565b6101c791906112a4565b10806101e757508060206101db858a6112a4565b6101e591906112a4565b105b156101f8575f955050505050610201565b60019550505050505b9250929050565b5f6101028585858560015f602485608001515111801561026e575061026e8560a0015186606001518181016020015191516014909101106affffffffffffffffffffff199190911674113a3cb832911d113bb2b130baba34371733b2ba1160591b141690565b801561028857506102888560a0015186604001518861040d565b80156102ba57506102ba85608001516020815181106102a9576102a96112b7565b0160200151600160f81b9081161490565b80156102f457508115806102f457506102f485608001516020815181106102e3576102e36112b7565b0160200151600160fa1b9081161490565b801561032957506103298560800151602081518110610315576103156112b7565b01602001516001600160f81b03191661045d565b801561040357506104036002866080015160028860a0015160405161034e91906112e2565b602060405180830381855afa158015610369573d5f5f3e3d5ffd5b5050506040513d601f19601f8201168201806040525081019061038c91906112ed565b60405160200161039d929190611304565b60408051601f19818403018152908290526103b7916112e2565b602060405180830381855afa1580156103d2573d5f5f3e3d5ffd5b5050506040513d601f19601f820116820180604052508101906103f591906112ed565b86516020880151878761047c565b9695505050505050565b5f5f610418836104b2565b604051602001610428919061131c565b60405160208183030381529060405290505f610451868684518861044c919061134e565b6104bf565b90506104038183610540565b5f600160fb1b82811614806104765750600160fc1b8216155b92915050565b5f5f5f61048c8888888888610552565b91509150806104a7576104a2888888888861062d565b6100fd565b509695505050505050565b60606104768260016106dd565b60606104cc82855161085c565b91506104d8838361085c565b92505f6104e584846112a4565b67ffffffffffffffff8111156104fd576104fd6110e8565b6040519080825280601f01601f191660200182016040528015610527576020820181803683370190505b509050838303846020870101602083015e949350505050565b5f61054b838361086b565b9392505050565b5f5f61055e868661088f565b1580610571575061056f84846108e6565b155b1561058157505f90506001610623565b61058e878787878761094a565b1561059e57506001905080610623565b61060d7fbb5a52f42f9c9261ed4361f59422a1e30036e7c32b270c8807a419feca605023600560017fa71af64de5126a4a4e02b7922d66ce9415ce88a4c9d25514d91082c8725ac9577f5d47723c8fbe580bb369fec9c2665d8e30a435b9932645482e7c9f11e872296b61094a565b1561061d57505f90506001610623565b505f9050805b9550959350505050565b5f610638858561088f565b158061064b575061064983836108e6565b155b1561065757505f610102565b5f610662848461098a565b90505f61067c865f5160206113b35f395f51905f52610b7d565b90505f5f5160206113b35f395f51905f52828a0990505f5f5160206113b35f395f51905f52838a0990505f6106b2858484610b8c565b509050896106cd5f5160206113b35f395f51905f5283611375565b149b9a5050505050505050505050565b606082515f036106fb575060408051602081019091525f8152610476565b5f8261072b57600384516002610711919061134e565b61071b9190611388565b61072690600461139b565b610750565b60038451600461073b919061139b565b61074690600261134e565b6107509190611388565b905060405191507f4142434445464748494a4b4c4d4e4f505152535455565758595a616263646566601f5261067083027f6768696a6b6c6d6e6f707172737475767778797a303132333435363738392b2f18603f526020820181810185865187016020810180515f82525b8284101561080e576003840193508351603f8160121c16518753600187019650603f81600c1c16518753600187019650603f8160061c16518753600187019650603f8116518753506001860195506107bb565b90525085905061084f5760038651066001811461083257600281146108455761084d565b603d6001840353603d600284035361084d565b603d60018403535b505b9183525060405292915050565b5f82821882841002821861054b565b5f8151835114801561054b5750508051602091820120825192909101919091201490565b5f82158015906108ab57505f5160206113b35f395f51905f5283105b80156108b657508115155b801561054b5750507f7fffffff800000007fffffffffffffffde737d56d38bcf4279dce5617e3192a81015919050565b5f600160601b63ffffffff60c01b031980838409817f5ac635d8aa3a93e7b3ebbd55769886bc651d06b0cc53b0f63bce3c3e27d2604b8387856003600160601b0363ffffffff60c01b0319878b8c0908090894821191909310169190921416919050565b5f6040518681528560208201528460408201528360608201528260808201525f5f5260205f60a0836101005afa61097d57fe5b50505f5195945050505050565b610992610fea565b60405180606001604052805f81526020015f81526020015f815250815f601081106109bf576109bf6112b7565b602002018190525060405180606001604052808481526020018381526020016001815250816001601081106109f6576109f66112b7565b602002018190525060405180606001604052807f6b17d1f2e12c4247f8bce6e563a440f277037d812deb33a0f4a13945d898c29681526020017f4fe342e2fe1a7f9b8ee7eb4a7c0f9e162bce33576b315ececbb6406837bf51f58152602001600181525081600460108110610a6d57610a6d6112b7565b6020020152610a838160015b6020020151610cb0565b6040820152610a93816004610a79565b6101008201526020810151610ab0908260025b6020020151610d0c565b6060820152610ac98160015b6020020151826004610aa6565b60a0820152610ad9816002610abc565b60c0820152610ae9816003610abc565b60e0820152610b028160015b6020020151826008610aa6565b610120820152610b13816002610af5565b610140820152610b24816003610af5565b610160820152610b35816004610af5565b610180820152610b4f8160015b602002015182600c610aa6565b6101a0820152610b60816002610b42565b6101c0820152610b71816003610b42565b6101e082015292915050565b5f61054b836002840384610d6a565b5f80808080805b6080811015610c94578115610bc757610bad848484610d8b565b91955093509150610bbf848484610d8b565b919550935091505b600c60fc89901c1660fe88901c17898160108110610be757610be76112b7565b60200201516040015115610c8057825f03610c5657898160108110610c0e57610c0e6112b7565b6020020151518a8260108110610c2657610c266112b7565b6020020151602001518b8360108110610c4157610c416112b7565b60200201516040015191965094509250610c80565b610c788a8260108110610c6b57610c6b6112b7565b6020020151868686610e0e565b919650945092505b50600297881b979690961b95600101610b93565b50610ca0838383610f3a565b945094505050505b935093915050565b610cd160405180606001604052805f81526020015f81526020015f81525090565b5f5f5f610cea855f015186602001518760400151610d8b565b6040805160608101825293845260208401929092529082015295945050505050565b610d2d60405180606001604052805f81526020015f81526020015f81525090565b5f5f5f610d4786865f015187602001518860400151610e0e565b604080516060810182529384526020840192909252908201529695505050505050565b5f5f5f610d78868686610f87565b9150915081610102576101026012610fd9565b5f5f5f600160601b63ffffffff60c01b031980868709818687098283848384096003600160601b0363ffffffff60c01b03190984858c8d096003090890508283838b09600409838482600209850385848509089650838485858609600809850385868a880385088509089550505050808186880960020991505093509350939050565b5f5f5f600160601b63ffffffff60c01b0319604088015181818209828388858a8b090960208c0151098381850385868686098c090884858a8b098d51098581870387868f0908935081158415168015610e6e5760018114610eb457610f29565b868586098788898386096002098903898a848a098b038b88890908089a5087888983890987098903898a8e8c038c8689090887090899505086878c880986099750610f29565b8c8c8c898283098a8283098b8c8d8384096003600160601b0363ffffffff60c01b0319098d8e8889096003090890508b8c83870960040994508b8c866002098d038d838409089e508b8c8384096008098c0391508b8f8d03860894508b828d878409089d505050898a8284096002099a505050505b505050505050509450945094915050565b5f5f825f03610f4d57505f905080610ca8565b600160601b63ffffffff60c01b03195f610f678583610b7d565b905081818209828189099450828383830988099350505050935093915050565b5f5f825f03610f9a57505f905080610ca8565b60405160208152602080820152602060408201528560608201528460808201528360a082015260205f60c08360055afa9250505f519050935093915050565b634e487b715f52806020526024601cfd5b6040518061020001604052806010905b61101b60405180606001604052805f81526020015f81526020015f81525090565b815260200190600190039081610ffa5790505090565b5f5f83601f840112611041575f5ffd5b50813567ffffffffffffffff811115611058575f5ffd5b602083019150836020828501011115610201575f5ffd5b5f5f5f5f5f60608688031215611083575f5ffd5b853567ffffffffffffffff811115611099575f5ffd5b6110a588828901611031565b90965094505060208601359250604086013567ffffffffffffffff8111156110cb575f5ffd5b6110d788828901611031565b969995985093965092949392505050565b634e487b7160e01b5f52604160045260245ffd5b60405160c0810167ffffffffffffffff8111828210171561111f5761111f6110e8565b60405290565b5f82601f830112611134575f5ffd5b8135602083015f5f67ffffffffffffffff841115611154576111546110e8565b50604051601f19601f85018116603f0116810181811067ffffffffffffffff82111715611183576111836110e8565b60405283815290508082840187101561119a575f5ffd5b838360208301375f602085830101528094505050505092915050565b5f60c082360312156111c6575f5ffd5b6111ce6110fc565b82358152602080840135908201526040808401359082015260608084013590820152608083013567ffffffffffffffff811115611209575f5ffd5b61121536828601611125565b60808301525060a083013567ffffffffffffffff811115611234575f5ffd5b61124036828601611125565b60a08301525092915050565b5f5f8585111561125a575f5ffd5b83861115611266575f5ffd5b5050820193919092039150565b80356020831015610476575f19602084900360031b1b1692915050565b634e487b7160e01b5f52601160045260245ffd5b8181038181111561047657610476611290565b634e487b7160e01b5f52603260045260245ffd5b5f81518060208401855e5f93019283525090919050565b5f61054b82846112cb565b5f602082840312156112fd575f5ffd5b5051919050565b5f61130f82856112cb565b9283525050602001919050565b6c1131b430b63632b733b2911d1160991b81525f61133d600d8301846112cb565b601160f91b81526001019392505050565b8082018082111561047657610476611290565b634e487b7160e01b5f52601260045260245ffd5b5f8261138357611383611361565b500690565b5f8261139657611396611361565b500490565b80820281158282048414176104765761047661129056feffffffff00000000ffffffffffffffffbce6faada7179e84f3b9cac2fc632551a2646970667358221220b33516316052982abc6f4187cfd0b1fe6f5ee6419c820a465dad2b752db337fa64736f6c634300081b0033",
  "linkReferences": {},
  "deployedLinkReferences": {}
}