{
  "_format": "hh-sol-artifact-1",
  "contractName": "ERC7913P256Verifier",
  "sourceName": "contracts/utils/cryptography/verifiers/ERC7913P256Verifier.sol",
  "abi": [
    {
      "inputs": [
        {
          "internalType": "bytes",
          "name": "key",
          "type": "bytes"
        },
        {
          "internalType": "bytes32",
          "name": "hash",
          "type": "bytes32"
        },
        {
          "internalType": "bytes",
          "name": "signature",
          "type": "bytes"
        }
      ],
      "name": "verify",
      "outputs": [
        {
          "internalType": "bytes4",
          "name": "",
          "type": "bytes4"
        }
      ],
      "stateMutability": "view",
      "type": "function"
    }
  ],
  "bytecode": "0x6080604052348015600e575f5ffd5b50610c0e8061001c5f395ff3fe608060405234801561000f575f5ffd5b5060043610610029575f3560e01c8063024ad3181461002d575b5f5ffd5b61004061003b366004610ac8565b61005d565b6040516001600160e01b0319909116815260200160405180910390f35b5f60408514801561006f575060408210155b15610104575f610082602082888a610b41565b61008b91610b68565b90505f61009c60406020898b610b41565b6100a591610b68565b90505f6100b56020828789610b41565b6100be91610b68565b90505f6100cf60406020888a610b41565b6100d891610b68565b90506100e78883838787610118565b156100ff575062495a6360e31b935061010f92505050565b505050505b506001600160e01b03195b95945050505050565b5f5f5f6101288888888888610151565b91509150806101435761013e888888888861022c565b610145565b815b98975050505050505050565b5f5f61015d86866102dc565b1580610170575061016e8484610338565b155b1561018057505f90506001610222565b61018d878787878761039c565b1561019d57506001905080610222565b61020c7fbb5a52f42f9c9261ed4361f59422a1e30036e7c32b270c8807a419feca605023600560017fa71af64de5126a4a4e02b7922d66ce9415ce88a4c9d25514d91082c8725ac9577f5d47723c8fbe580bb369fec9c2665d8e30a435b9932645482e7c9f11e872296b61039c565b1561021c57505f90506001610222565b505f9050805b9550959350505050565b5f61023785856102dc565b158061024a57506102488383610338565b155b1561025657505f61010f565b5f61026184846103dc565b90505f61027b865f516020610bb95f395f51905f526105cf565b90505f5f516020610bb95f395f51905f52828a0990505f5f516020610bb95f395f51905f52838a0990505f6102b18584846105de565b509050896102cc5f516020610bb95f395f51905f5283610b85565b149b9a5050505050505050505050565b5f82158015906102f857505f516020610bb95f395f51905f5283105b801561030357508115155b801561032f57507f7fffffff800000007fffffffffffffffde737d56d38bcf4279dce5617e3192a88211155b90505b92915050565b5f600160601b63ffffffff60c01b031980838409817f5ac635d8aa3a93e7b3ebbd55769886bc651d06b0cc53b0f63bce3c3e27d2604b8387856003600160601b0363ffffffff60c01b0319878b8c0908090894821191909310169190921416919050565b5f6040518681528560208201528460408201528360608201528260808201525f5f5260205f60a0836101005afa6103cf57fe5b50505f5195945050505050565b6103e4610a3c565b60405180606001604052805f81526020015f81526020015f815250815f6010811061041157610411610ba4565b6020020181905250604051806060016040528084815260200183815260200160018152508160016010811061044857610448610ba4565b602002018190525060405180606001604052807f6b17d1f2e12c4247f8bce6e563a440f277037d812deb33a0f4a13945d898c29681526020017f4fe342e2fe1a7f9b8ee7eb4a7c0f9e162bce33576b315ececbb6406837bf51f581526020016001815250816004601081106104bf576104bf610ba4565b60200201526104d58160015b6020020151610702565b60408201526104e58160046104cb565b6101008201526020810151610502908260025b602002015161075e565b606082015261051b8160015b60200201518260046104f8565b60a082015261052b81600261050e565b60c082015261053b81600361050e565b60e08201526105548160015b60200201518260086104f8565b610120820152610565816002610547565b610140820152610576816003610547565b610160820152610587816004610547565b6101808201526105a18160015b602002015182600c6104f8565b6101a08201526105b2816002610594565b6101c08201526105c3816003610594565b6101e082015292915050565b5f61032f8360028403846107bc565b5f80808080805b60808110156106e6578115610619576105ff8484846107dd565b919550935091506106118484846107dd565b919550935091505b600c60fc89901c1660fe88901c1789816010811061063957610639610ba4565b602002015160400151156106d257825f036106a85789816010811061066057610660610ba4565b6020020151518a826010811061067857610678610ba4565b6020020151602001518b836010811061069357610693610ba4565b602002015160400151919650945092506106d2565b6106ca8a82601081106106bd576106bd610ba4565b6020020151868686610860565b919650945092505b50600297881b979690961b956001016105e5565b506106f283838361098c565b945094505050505b935093915050565b61072360405180606001604052805f81526020015f81526020015f81525090565b5f5f5f61073c855f0151866020015187604001516107dd565b6040805160608101825293845260208401929092529082015295945050505050565b61077f60405180606001604052805f81526020015f81526020015f81525090565b5f5f5f61079986865f015187602001518860400151610860565b604080516060810182529384526020840192909252908201529695505050505050565b5f5f5f6107ca8686866109d9565b915091508161010f5761010f6012610a2b565b5f5f5f600160601b63ffffffff60c01b031980868709818687098283848384096003600160601b0363ffffffff60c01b03190984858c8d096003090890508283838b09600409838482600209850385848509089650838485858609600809850385868a880385088509089550505050808186880960020991505093509350939050565b5f5f5f600160601b63ffffffff60c01b0319604088015181818209828388858a8b090960208c0151098381850385868686098c090884858a8b098d51098581870387868f09089350811584151680156108c057600181146109065761097b565b868586098788898386096002098903898a848a098b038b88890908089a5087888983890987098903898a8e8c038c8689090887090899505086878c88098609975061097b565b8c8c8c898283098a8283098b8c8d8384096003600160601b0363ffffffff60c01b0319098d8e8889096003090890508b8c83870960040994508b8c866002098d038d838409089e508b8c8384096008098c0391508b8f8d03860894508b828d878409089d505050898a8284096002099a505050505b505050505050509450945094915050565b5f5f825f0361099f57505f9050806106fa565b600160601b63ffffffff60c01b03195f6109b985836105cf565b905081818209828189099450828383830988099350505050935093915050565b5f5f825f036109ec57505f9050806106fa565b60405160208152602080820152602060408201528560608201528460808201528360a082015260205f60c08360055afa9250505f519050935093915050565b634e487b715f52806020526024601cfd5b6040518061020001604052806010905b610a6d60405180606001604052805f81526020015f81526020015f81525090565b815260200190600190039081610a4c5790505090565b5f5f83601f840112610a93575f5ffd5b50813567ffffffffffffffff811115610aaa575f5ffd5b602083019150836020828501011115610ac1575f5ffd5b9250929050565b5f5f5f5f5f60608688031215610adc575f5ffd5b853567ffffffffffffffff811115610af2575f5ffd5b610afe88828901610a83565b90965094505060208601359250604086013567ffffffffffffffff811115610b24575f5ffd5b610b3088828901610a83565b969995985093965092949392505050565b5f5f85851115610b4f575f5ffd5b83861115610b5b575f5ffd5b5050820193919092039150565b80356020831015610332575f19602084900360031b1b1692915050565b5f82610b9f57634e487b7160e01b5f52601260045260245ffd5b500690565b634e487b7160e01b5f52603260045260245ffdfeffffffff00000000ffffffffffffffffbce6faada7179e84f3b9cac2fc632551a264697066735822122089715cc56ff1d5e825d810d4836e76401e3772c5467c5c47fe27e2e2b6a72e1e64736f6c634300081b0033",
  "linkReferences": {},
  "deployedLinkReferences": {}
}