{"abi":[{"type":"function","name":"checkSignaturePolicy","inputs":[{"name":"id","type":"bytes32","internalType":"bytes32"},{"name":"","type":"address","internalType":"address"},{"name":"","type":"bytes32","internalType":"bytes32"},{"name":"","type":"bytes","internalType":"bytes"}],"outputs":[{"name":"","type":"uint256","internalType":"uint256"}],"stateMutability":"view"},{"type":"function","name":"checkUserOpPolicy","inputs":[{"name":"id","type":"bytes32","internalType":"bytes32"},{"name":"userOp","type":"tuple","internalType":"struct PackedUserOperation","components":[{"name":"sender","type":"address","internalType":"address"},{"name":"nonce","type":"uint256","internalType":"uint256"},{"name":"initCode","type":"bytes","internalType":"bytes"},{"name":"callData","type":"bytes","internalType":"bytes"},{"name":"accountGasLimits","type":"bytes32","internalType":"bytes32"},{"name":"preVerificationGas","type":"uint256","internalType":"uint256"},{"name":"gasFees","type":"bytes32","internalType":"bytes32"},{"name":"paymasterAndData","type":"bytes","internalType":"bytes"},{"name":"signature","type":"bytes","internalType":"bytes"}]}],"outputs":[{"name":"","type":"uint256","internalType":"uint256"}],"stateMutability":"payable"},{"type":"function","name":"installData","inputs":[{"name":"","type":"address","internalType":"address"}],"outputs":[{"name":"","type":"bytes","internalType":"bytes"}],"stateMutability":"view"},{"type":"function","name":"isInitialized","inputs":[{"name":"smartAccount","type":"address","internalType":"address"}],"outputs":[{"name":"","type":"bool","internalType":"bool"}],"stateMutability":"view"},{"type":"function","name":"isModuleType","inputs":[{"name":"moduleTypeId","type":"uint256","internalType":"uint256"}],"outputs":[{"name":"","type":"bool","internalType":"bool"}],"stateMutability":"pure"},{"type":"function","name":"onInstall","inputs":[{"name":"data","type":"bytes","internalType":"bytes"}],"outputs":[],"stateMutability":"payable"},{"type":"function","name":"onUninstall","inputs":[{"name":"","type":"bytes","internalType":"bytes"}],"outputs":[],"stateMutability":"payable"},{"type":"function","name":"pass","inputs":[{"name":"","type":"address","internalType":"address"},{"name":"","type":"bytes32","internalType":"bytes32"}],"outputs":[{"name":"","type":"bool","internalType":"bool"}],"stateMutability":"view"},{"type":"function","name":"sig","inputs":[{"name":"","type":"address","internalType":"address"},{"name":"","type":"bytes32","internalType":"bytes32"}],"outputs":[{"name":"","type":"bytes","internalType":"bytes"}],"stateMutability":"view"},{"type":"function","name":"sudoSetPass","inputs":[{"name":"_wallet","type":"address","internalType":"address"},{"name":"_id","type":"bytes32","internalType":"bytes32"},{"name":"_pass","type":"bool","internalType":"bool"}],"outputs":[],"stateMutability":"payable"},{"type":"function","name":"sudoSetValidSig","inputs":[{"name":"_wallet","type":"address","internalType":"address"},{"name":"_id","type":"bytes32","internalType":"bytes32"},{"name":"_sig","type":"bytes","internalType":"bytes"}],"outputs":[],"stateMutability":"payable"},{"type":"error","name":"AlreadyInitialized","inputs":[{"name":"smartAccount","type":"address","internalType":"address"}]},{"type":"error","name":"NotInitialized","inputs":[{"name":"smartAccount","type":"address","internalType":"address"}]}],"bytecode":{"object":"0x608060405234601c57600e6020565b610efb61002b8239610efb90f35b6026565b60405190565b5f80fdfe60806040526004361015610013575b61093b565b61001d5f356100cc565b8063309bfb76146100c7578063516b92ae146100c25780636d61fe70146100bd5780637129edce146100b85780638a91b0e3146100b3578063a61c2f59146100ae578063a8d6604d146100a9578063d60b347f146100a4578063e2c596151461009f578063eca509441461009a5763ecd059610361000e57610906565b61088f565b6107dd565b610722565b6106d6565b610647565b6105d2565b6105a6565b61051f565b6104af565b610214565b60e01c90565b60405190565b5f80fd5b5f80fd5b5f80fd5b90565b6100f0816100e4565b036100f757565b5f80fd5b90503590610108826100e7565b565b60018060a01b031690565b61011e9061010a565b90565b61012a81610115565b0361013157565b5f80fd5b9050359061014282610121565b565b5f80fd5b5f80fd5b5f80fd5b909182601f8301121561018a5781359167ffffffffffffffff831161018557602001926001830284011161018057565b61014c565b610148565b610144565b906080828203126101ea576101a6815f84016100fb565b926101b48260208501610135565b926101c283604083016100fb565b92606082013567ffffffffffffffff81116101e5576101e19201610150565b9091565b6100e0565b6100dc565b90565b6101fb906101ef565b9052565b9190610212905f602085019401906101f2565b565b346102485761024461023361022a36600461018f565b939290926109c9565b61023b6100d2565b918291826101ff565b0390f35b6100d8565b9060208282031261026657610263915f01610135565b90565b6100dc565b90565b61028261027d6102879261010a565b61026b565b61010a565b90565b6102939061026e565b90565b61029f9061028a565b90565b906102ac90610296565b5f5260205260405f2090565b634e487b7160e01b5f525f60045260245ffd5b634e487b7160e01b5f52602260045260245ffd5b90600160028304921680156102ff575b60208310146102fa57565b6102cb565b91607f16916102ef565b60209181520190565b5f5260205f2090565b905f929180549061033561032e836102df565b8094610309565b916001811690815f1461038c5750600114610350575b505050565b61035d9192939450610312565b915f925b81841061037457505001905f808061034b565b60018160209295939554848601520191019290610361565b92949550505060ff19168252151560200201905f808061034b565b906103b19161031b565b90565b601f801991011690565b634e487b7160e01b5f52604160045260245ffd5b906103dc906103b4565b810190811067ffffffffffffffff8211176103f657604052565b6103be565b9061041b6104149261040b6100d2565b938480926103a7565b03836103d2565b565b905f106104305761042d906103fb565b90565b6102b8565b61044b906104466001915f926102a2565b61041d565b90565b5190565b60209181520190565b90825f9392825e0152565b61048561048e6020936104939361047c8161044e565b93848093610452565b9586910161045b565b6103b4565b0190565b6104ac9160208201915f818403910152610466565b90565b346104df576104db6104ca6104c536600461024d565b610435565b6104d26100d2565b91829182610497565b0390f35b6100d8565b90602082820312610515575f82013567ffffffffffffffff81116105105761050c9201610150565b9091565b6100e0565b6100dc565b5f0190565b61053361052d3660046104e4565b90610c26565b61053b6100d2565b806105458161051a565b0390f35b5f80fd5b908161012091031261055c5790565b610549565b9190916040818403126105a15761057a835f83016100fb565b92602082013567ffffffffffffffff811161059c57610599920161054d565b90565b6100e0565b6100dc565b6105ce6105bd6105b7366004610561565b90610d2e565b6105c56100d2565b918291826101ff565b0390f35b6105dd3660046104e4565b50506105e76100d2565b806105f18161051a565b0390f35b916060838303126106425761060c825f8501610135565b9261061a83602083016100fb565b92604082013567ffffffffffffffff811161063d576106399201610150565b9091565b6100e0565b6100dc565b61065e6106553660046105f5565b92919091610dd2565b6106666100d2565b806106708161051a565b0390f35b151590565b61068281610674565b0361068957565b5f80fd5b9050359061069a82610679565b565b90916060828403126106d1576106ce6106b7845f8501610135565b936106c581602086016100fb565b9360400161068d565b90565b6100dc565b6106ea6106e436600461069c565b91610e3e565b6106f26100d2565b806106fc8161051a565b0390f35b61070990610674565b9052565b9190610720905f60208501940190610700565b565b346107525761074e61073d61073836600461024d565b610e8a565b6107456100d2565b9182918261070d565b0390f35b6100d8565b919060408382031261077f578061077361077c925f8601610135565b936020016100fb565b90565b6100dc565b9061078e90610296565b5f5260205260405f2090565b6107a3906100e4565b90565b906107b09061079a565b5f5260205260405f2090565b6107d56107da926107d06002935f94610784565b6107a6565b61041d565b90565b3461080e5761080a6107f96107f3366004610757565b906107bc565b6108016100d2565b91829182610497565b0390f35b6100d8565b9061081d90610296565b5f5260205260405f2090565b906108339061079a565b5f5260205260405f2090565b1c90565b60ff1690565b61085990600861085e930261083f565b610843565b90565b9061086c9154610849565b90565b61088761088c926108825f935f94610813565b610829565b610861565b90565b346108c0576108bc6108ab6108a5366004610757565b9061086f565b6108b36100d2565b9182918261070d565b0390f35b6100d8565b6108ce816101ef565b036108d557565b5f80fd5b905035906108e6826108c5565b565b90602082820312610901576108fe915f016108d9565b90565b6100dc565b346109365761093261092161091c3660046108e8565b610edb565b6109296100d2565b9182918261070d565b0390f35b6100d8565b5f80fd5b5f90565b5f1c90565b61095461095991610943565b610843565b90565b6109669054610948565b90565b90565b60ff1690565b61098661098161098b92610969565b61026b565b61096c565b90565b90565b6109a56109a06109aa9261098e565b61026b565b61096c565b90565b6109c16109bc6109c69261096c565b61026b565b6101ef565b90565b9150506109f492506109ef91506109de61093f565b506109ea5f3390610813565b610829565b61095c565b5f14610a0f57610a0c610a065f610991565b5b6109ad565b90565b610a0c610a1c6001610972565b610a07565b5090565b601f602091010490565b1b90565b91906008610a4e910291610a485f1984610a2f565b92610a2f565b9181191691161790565b610a6c610a67610a71926101ef565b61026b565b6101ef565b90565b90565b9190610a8d610a88610a9593610a58565b610a74565b908354610a33565b9055565b610aab91610aa561093f565b91610a77565b565b5b818110610ab9575050565b80610ac65f600193610a99565b01610aae565b9190601f8111610adc575b505050565b610ae8610b0d93610312565b906020610af484610a25565b83019310610b15575b610b0690610a25565b0190610aad565b5f8080610ad7565b9150610b0681929050610afd565b90610b33905f199060080261083f565b191690565b81610b4291610b23565b906002021790565b91610b559082610a21565b9067ffffffffffffffff8211610c1457610b7982610b7385546102df565b85610acc565b5f90601f8311600114610bac57918091610b9b935f92610ba0575b5050610b38565b90555b565b90915001355f80610b94565b601f19831691610bbb85610312565b925f5b818110610bfc57509160029391856001969410610be2575b50505002019055610b9e565b610bf2910135601f841690610b23565b90555f8080610bd6565b91936020600181928787013581550195019201610bbe565b6103be565b90610c249291610b4a565b565b90610c3c91610c37600133906102a2565b610c19565b565b5f80fd5b5f80fd5b5f80fd5b903590600160200381360303821215610c8c570180359067ffffffffffffffff8211610c8757602001916001820236038313610c8257565b610c46565b610c42565b610c3e565b5f80fd5b90610ca8610ca16100d2565b92836103d2565b565b67ffffffffffffffff8111610cc857610cc46020916103b4565b0190565b6103be565b90825f939282370152565b90929192610ced610ce882610caa565b610c95565b93818552602085019082840111610d0957610d0792610ccd565b565b610c91565b610d19913691610cd8565b90565b60200190565b610d2b906103fb565b90565b90610d9e610d86610d81610d5c610d56610da495610d4a61093f565b50610100810190610c4a565b90610d0e565b610d6e610d688261044e565b91610d1c565b2094610d7c60023390610784565b6107a6565b610d22565b610d98610d928261044e565b91610d1c565b206100e4565b916100e4565b145f14610dc057610dbd610db75f610991565b5b6109ad565b90565b610dbd610dcd6001610972565b610db8565b91610df29391610de8610ded9293946002610784565b6107a6565b610c19565b565b5f1b90565b90610e0560ff91610df4565b9181191691161790565b610e1890610674565b90565b90565b90610e33610e2e610e3a92610e0f565b610e1b565b8254610df9565b9055565b90610e5690610e51610e5b94935f610813565b610829565b610e1e565b565b5f90565b610e6b90546102df565b90565b610e82610e7d610e879261098e565b61026b565b6101ef565b90565b610ea1610ea691610e99610e5d565b5060016102a2565b610e61565b610eb8610eb25f610e6e565b916101ef565b1190565b90565b610ed3610ece610ed892610ebc565b61026b565b6101ef565b90565b610ee3610e5d565b50610ef7610ef16005610ebf565b916101ef565b149056","linkReferences":{}},"methodIdentifiers":{"checkSignaturePolicy(bytes32,address,bytes32,bytes)":"309bfb76","checkUserOpPolicy(bytes32,(address,uint256,bytes,bytes,bytes32,uint256,bytes32,bytes,bytes))":"7129edce","installData(address)":"516b92ae","isInitialized(address)":"d60b347f","isModuleType(uint256)":"ecd05961","onInstall(bytes)":"6d61fe70","onUninstall(bytes)":"8a91b0e3","pass(address,bytes32)":"eca50944","sig(address,bytes32)":"e2c59615","sudoSetPass(address,bytes32,bool)":"a8d6604d","sudoSetValidSig(address,bytes32,bytes)":"a61c2f59"},"id":57}