{"abi":[{"type":"function","name":"emitEvent","inputs":[{"name":"shouldFail","type":"bool","internalType":"bool"}],"outputs":[],"stateMutability":"nonpayable"},{"type":"function","name":"setValue","inputs":[{"name":"_value","type":"uint256","internalType":"uint256"}],"outputs":[],"stateMutability":"nonpayable"},{"type":"function","name":"value","inputs":[],"outputs":[{"name":"","type":"uint256","internalType":"uint256"}],"stateMutability":"view"},{"type":"event","name":"MockEvent","inputs":[{"name":"caller","type":"address","indexed":true,"internalType":"address"},{"name":"here","type":"address","indexed":true,"internalType":"address"}],"anonymous":false}],"bytecode":{"object":"0x608060405234601c57600e6020565b61038b61002b823961038b90f35b6026565b60405190565b5f80fdfe60806040526004361015610013575b6101f6565b61001d5f3561004c565b80633fa4f245146100475780634a9bfb1d146100425763552410770361000e576101c3565b61014f565b6100cf565b60e01c90565b60405190565b5f80fd5b5f80fd5b5f91031261006a57565b61005c565b1c90565b90565b61008690600861008b930261006f565b610073565b90565b906100999154610076565b90565b6100a75f5f9061008e565b90565b90565b6100b6906100aa565b9052565b91906100cd905f602085019401906100ad565b565b346100ff576100df366004610060565b6100fb6100ea61009c565b6100f2610052565b918291826100ba565b0390f35b610058565b151590565b61011281610104565b0361011957565b5f80fd5b9050359061012a82610109565b565b9060208282031261014557610142915f0161011d565b90565b61005c565b5f0190565b3461017d5761016761016236600461012c565b6102aa565b61016f610052565b806101798161014a565b0390f35b610058565b61018b816100aa565b0361019257565b5f80fd5b905035906101a382610182565b565b906020828203126101be576101bb915f01610196565b90565b61005c565b346101f1576101db6101d63660046101a5565b61037f565b6101e3610052565b806101ed8161014a565b0390f35b610058565b5f80fd5b60209181520190565b5f7f48656c6c6f000000000000000000000000000000000000000000000000000000910152565b61023760056020926101fa565b61024081610203565b0190565b6102599060208101905f81830391015261022a565b90565b60018060a01b031690565b90565b61027e6102796102839261025c565b610267565b61025c565b90565b61028f9061026a565b90565b61029b90610286565b90565b6102a790610286565b90565b61030357336102b830610292565b6102eb6102e57f98fb4cfeec0d56b4877c689ee581d9c5a7bc96b75e9bc9d5dfebb9023b9fd4009361029e565b9161029e565b916102f4610052565b806102fe8161014a565b0390a3565b61030b610052565b62461bcd60e51b81528061032160048201610244565b0390fd5b5f1b90565b906103365f1991610325565b9181191691161790565b61035461034f610359926100aa565b610267565b6100aa565b90565b90565b9061037461036f61037b92610340565b61035c565b825461032a565b9055565b610389905f61035f565b56","linkReferences":{}},"methodIdentifiers":{"emitEvent(bool)":"4a9bfb1d","setValue(uint256)":"55241077","value()":"3fa4f245"},"id":60}