{"abi":[{"type":"constructor","inputs":[],"stateMutability":"nonpayable"},{"type":"function","name":"approve","inputs":[{"name":"account","type":"address","internalType":"address"},{"name":"id","type":"uint256","internalType":"uint256"}],"outputs":[],"stateMutability":"payable"},{"type":"function","name":"balanceOf","inputs":[{"name":"owner","type":"address","internalType":"address"}],"outputs":[{"name":"result","type":"uint256","internalType":"uint256"}],"stateMutability":"view"},{"type":"function","name":"getApproved","inputs":[{"name":"id","type":"uint256","internalType":"uint256"}],"outputs":[{"name":"result","type":"address","internalType":"address"}],"stateMutability":"view"},{"type":"function","name":"isApprovedForAll","inputs":[{"name":"owner","type":"address","internalType":"address"},{"name":"operator","type":"address","internalType":"address"}],"outputs":[{"name":"result","type":"bool","internalType":"bool"}],"stateMutability":"view"},{"type":"function","name":"mint","inputs":[{"name":"_to","type":"address","internalType":"address"},{"name":"_id","type":"uint256","internalType":"uint256"}],"outputs":[],"stateMutability":"nonpayable"},{"type":"function","name":"name","inputs":[],"outputs":[{"name":"","type":"string","internalType":"string"}],"stateMutability":"pure"},{"type":"function","name":"ownerOf","inputs":[{"name":"id","type":"uint256","internalType":"uint256"}],"outputs":[{"name":"result","type":"address","internalType":"address"}],"stateMutability":"view"},{"type":"function","name":"safeMint","inputs":[{"name":"_to","type":"address","internalType":"address"},{"name":"_id","type":"uint256","internalType":"uint256"}],"outputs":[],"stateMutability":"nonpayable"},{"type":"function","name":"safeTransferFrom","inputs":[{"name":"from","type":"address","internalType":"address"},{"name":"to","type":"address","internalType":"address"},{"name":"id","type":"uint256","internalType":"uint256"}],"outputs":[],"stateMutability":"payable"},{"type":"function","name":"safeTransferFrom","inputs":[{"name":"from","type":"address","internalType":"address"},{"name":"to","type":"address","internalType":"address"},{"name":"id","type":"uint256","internalType":"uint256"},{"name":"data","type":"bytes","internalType":"bytes"}],"outputs":[],"stateMutability":"payable"},{"type":"function","name":"setApprovalForAll","inputs":[{"name":"operator","type":"address","internalType":"address"},{"name":"isApproved","type":"bool","internalType":"bool"}],"outputs":[],"stateMutability":"nonpayable"},{"type":"function","name":"supportsInterface","inputs":[{"name":"interfaceId","type":"bytes4","internalType":"bytes4"}],"outputs":[{"name":"result","type":"bool","internalType":"bool"}],"stateMutability":"view"},{"type":"function","name":"symbol","inputs":[],"outputs":[{"name":"","type":"string","internalType":"string"}],"stateMutability":"pure"},{"type":"function","name":"test_ignore","inputs":[],"outputs":[],"stateMutability":"nonpayable"},{"type":"function","name":"tokenURI","inputs":[{"name":"","type":"uint256","internalType":"uint256"}],"outputs":[{"name":"","type":"string","internalType":"string"}],"stateMutability":"pure"},{"type":"function","name":"transferFrom","inputs":[{"name":"from","type":"address","internalType":"address"},{"name":"to","type":"address","internalType":"address"},{"name":"id","type":"uint256","internalType":"uint256"}],"outputs":[],"stateMutability":"payable"},{"type":"event","name":"Approval","inputs":[{"name":"owner","type":"address","indexed":true,"internalType":"address"},{"name":"account","type":"address","indexed":true,"internalType":"address"},{"name":"id","type":"uint256","indexed":true,"internalType":"uint256"}],"anonymous":false},{"type":"event","name":"ApprovalForAll","inputs":[{"name":"owner","type":"address","indexed":true,"internalType":"address"},{"name":"operator","type":"address","indexed":true,"internalType":"address"},{"name":"isApproved","type":"bool","indexed":false,"internalType":"bool"}],"anonymous":false},{"type":"event","name":"Transfer","inputs":[{"name":"from","type":"address","indexed":true,"internalType":"address"},{"name":"to","type":"address","indexed":true,"internalType":"address"},{"name":"id","type":"uint256","indexed":true,"internalType":"uint256"}],"anonymous":false},{"type":"error","name":"AccountBalanceOverflow","inputs":[]},{"type":"error","name":"BalanceQueryForZeroAddress","inputs":[]},{"type":"error","name":"NotOwnerNorApproved","inputs":[]},{"type":"error","name":"TokenAlreadyExists","inputs":[]},{"type":"error","name":"TokenDoesNotExist","inputs":[]},{"type":"error","name":"TransferFromIncorrectOwner","inputs":[]},{"type":"error","name":"TransferToNonERC721ReceiverImplementer","inputs":[]},{"type":"error","name":"TransferToZeroAddress","inputs":[]}],"bytecode":{"object":"0x608060405234601c57600e6020565b610f0e61002b8239610f0e90f35b6026565b60405190565b5f80fdfe60806040526004361015610013575b6107b1565b61001d5f3561011c565b806301ffc9a71461011757806306fdde0314610112578063081812fc1461010d578063095ea7b31461010857806323b872dd1461010357806340c10f19146100fe57806342842e0e146100f95780636352211e146100f457806370a08231146100ef57806395d89b41146100ea578063a1448194146100e5578063a22cb465146100e0578063b4e7a91d146100db578063b88d4fde146100d6578063c87b56dd146100d15763e985e9c50361000e5761077b565b610719565b6106ec565b610616565b6105e2565b61055e565b610529565b6104f4565b61047f565b610455565b610421565b6103f7565b610393565b610309565b610257565b6101a8565b60e01c90565b60405190565b5f80fd5b5f80fd5b5f80fd5b63ffffffff60e01b1690565b61014981610134565b0361015057565b5f80fd5b9050359061016182610140565b565b9060208282031261017c57610179915f01610154565b90565b61012c565b151590565b61018f90610181565b9052565b91906101a6905f60208501940190610186565b565b346101d8576101d46101c36101be366004610163565b6107b9565b6101cb610122565b91829182610193565b0390f35b610128565b5f9103126101e757565b61012c565b5190565b60209181520190565b90825f9392825e0152565b601f801991011690565b61022d61023660209361023b93610224816101ec565b938480936101f0565b958691016101f9565b610204565b0190565b6102549160208201915f81840391015261020e565b90565b34610287576102673660046101dd565b6102836102726108bc565b61027a610122565b9182918261023f565b0390f35b610128565b90565b6102988161028c565b0361029f57565b5f80fd5b905035906102b08261028f565b565b906020828203126102cb576102c8915f016102a3565b90565b61012c565b60018060a01b031690565b6102e4906102d0565b90565b6102f0906102db565b9052565b9190610307905f602085019401906102e7565b565b346103395761033561032461031f3660046102b2565b6108d4565b61032c610122565b918291826102f4565b0390f35b610128565b610347816102db565b0361034e57565b5f80fd5b9050359061035f8261033e565b565b9190604083820312610389578061037d610386925f8601610352565b936020016102a3565b90565b61012c565b5f0190565b6103a76103a1366004610361565b90610914565b6103af610122565b806103b98161038e565b0390f35b90916060828403126103f2576103ef6103d8845f8501610352565b936103e68160208601610352565b936040016102a3565b90565b61012c565b61040b6104053660046103bd565b91610923565b610413610122565b8061041d8161038e565b0390f35b346104505761043a610434366004610361565b90610a18565b610442610122565b8061044c8161038e565b0390f35b610128565b6104696104633660046103bd565b91610a3b565b610471610122565b8061047b8161038e565b0390f35b346104af576104ab61049a6104953660046102b2565b610a76565b6104a2610122565b918291826102f4565b0390f35b610128565b906020828203126104cd576104ca915f01610352565b90565b61012c565b6104db9061028c565b9052565b91906104f2905f602085019401906104d2565b565b346105245761052061050f61050a3660046104b4565b610aa2565b610517610122565b918291826104df565b0390f35b610128565b34610559576105393660046101dd565b610555610544610b29565b61054c610122565b9182918261023f565b0390f35b610128565b3461058d57610577610571366004610361565b90610b3d565b61057f610122565b806105898161038e565b0390f35b610128565b61059b81610181565b036105a257565b5f80fd5b905035906105b382610592565b565b91906040838203126105dd57806105d16105da925f8601610352565b936020016105a6565b90565b61012c565b34610611576105fb6105f53660046105b5565b90610b49565b610603610122565b8061060d8161038e565b0390f35b610128565b3461063c576106263660046101dd565b61062e610122565b806106388161038e565b0390f35b610128565b5f80fd5b5f80fd5b5f80fd5b909182601f830112156106875781359167ffffffffffffffff831161068257602001926001830284011161067d57565b610649565b610645565b610641565b906080828203126106e7576106a3815f8401610352565b926106b18260208501610352565b926106bf83604083016102a3565b92606082013567ffffffffffffffff81116106e2576106de920161064d565b9091565b610130565b61012c565b6107036106fa36600461068c565b93929092610c0c565b61070b610122565b806107158161038e565b0390f35b346107495761074561073461072f3660046102b2565b610c5c565b61073c610122565b9182918261023f565b0390f35b610128565b9190604083820312610776578061076a610773925f8601610352565b93602001610352565b90565b61012c565b346107ac576107a861079761079136600461074e565b90610c71565b61079f610122565b91829182610193565b0390f35b610128565b5f80fd5b5f90565b6107c16107b5565b5060e01c635b5e139f8114906301ffc9a76380ac58cd82149114171790565b606090565b634e487b7160e01b5f52604160045260245ffd5b9061080390610204565b810190811067ffffffffffffffff82111761081d57604052565b6107e5565b9061083561082e610122565b92836107f9565b565b67ffffffffffffffff811161085557610851602091610204565b0190565b6107e5565b9061086c61086783610837565b610822565b918252565b5f7f4d6f636b45524337323100000000000000000000000000000000000000000000910152565b6108a2600a61085a565b906108af60208301610871565b565b6108b9610898565b90565b6108c46107e0565b506108cd6108b1565b90565b5f90565b6108dc6108d0565b50805f52673ec412a9852d173d60c11b601c5260205f20810101805460601b15610907576001015490565b63ceea21b65f526004601cfd5b6109219133919091610c95565b565b905f1960601c91821690821691835f5233673ec412a9852d173d60c11b17601c5260205f2084018401908154809116838114810215610a035750825f52816001015480331484331417156109ec575b6109e1575b838318189055601c600c2060018154039055815f52601c600c2060018154019063ffffffff82168402156109cc57557fddf252ad1be2c89b69c2b068fc378daa952ba7f163c4a11628f55a4df523b3ef5f38a4565b67ea553b3401336cea841560021b526004601cfd5b5f8260010155610977565b6030600c205461097257634b6e7f185f526004601cfd5b67ceea21b6a1148100901560021b526004601cfd5b90610a2291610d5f565b565b610a2d5f61085a565b90565b610a38610a24565b90565b91610a4883838391610923565b610a5182610df3565b610a5b575b505050565b610a6e9291610a68610a30565b92610e00565b5f8080610a56565b610a8890610a826108d0565b50610e8e565b908115610a9157565b63ceea21b65f526004601cfd5b5f90565b610aaa610a9e565b508015610ad157673ec412a9852d173d60c11b601c525f5263ffffffff601c600c20541690565b638f4eb6045f526004601cfd5b5f7f4d4f434b00000000000000000000000000000000000000000000000000000000910152565b610b0f600461085a565b90610b1c60208301610ade565b565b610b26610b05565b90565b610b316107e0565b50610b3a610b1e565b90565b90610b4791610eba565b565b90151581601c52670a5a2e7a00000000600852335f52806030600c20555f5260601b60601c337f17307eab39ab6107e8899845ad3d59bd9653f200f220920489ca2b5937696c3160205fa3565b5f80fd5b67ffffffffffffffff8111610bb857610bb4602091610204565b0190565b6107e5565b90825f939282370152565b90929192610bdd610bd882610b9a565b610822565b93818552602085019082840111610bf957610bf792610bbd565b565b610b96565b610c09913691610bc8565b90565b92919092610c1c81858491610923565b610c2584610df3565b610c31575b5050505050565b610c4794610c4191949293610bfe565b92610e00565b5f80808080610c2a565b610c59610a24565b90565b50610c656107e0565b50610c6e610c51565b90565b90610c7a6107b5565b50601c52670a5a2e7a000000006008525f526030600c205490565b905f1960601c908116918116835f5280673ec412a9852d173d60c11b17601c5260205f208401840191825416918215610d2457818385931490151715610d00575b600101557f8c5be1e5ebec7d5bd14f71427d1e84f3dd0314c0f7b2291e5b200ac8c7c3b9255f38a4565b9050815f526030600c205415610d17578290610cd6565b634b6e7f185f526004601cfd5b63ceea21b65f526004601cfd5b90565b90565b610d4b610d46610d5092610d31565b610d34565b6102d0565b90565b610d5c90610d37565b90565b60601b60601c815f52673ec412a9852d173d60c11b601c5260205f208201820180548060601b610de65782179055805f52601c600c2060018154019063ffffffff8216830215610dd157555f7fddf252ad1be2c89b69c2b068fc378daa952ba7f163c4a11628f55a4df523b3ef8138a4565b67ea553b3401336cea831560021b526004601cfd5b63c991cbb15f526004601cfd5b610dfb6107b5565b503b90565b9160209160a460405195869363150b7a0296878652338787015260601b60601c6040860152606085015260808085015280518091818060a0880152610e7a575b505001905f601c8401915af115610e6b575b60e01b905103610e5e57565b63d1a57ed65f526004601cfd5b3d15610e5257503d5f823e3d90fd5b818760c08801920160045afa50805f610e40565b610e966108d0565b50805f52673ec412a9852d173d60c11b601c5260205f208101015460601b60601c90565b90610ece9190610ec8610a30565b91610ed0565b565b9091610edd828490610d5f565b610ee682610df3565b610ef0575b505050565b610f0692610efd5f610d53565b92909192610e00565b5f8080610eeb56","linkReferences":{}},"methodIdentifiers":{"approve(address,uint256)":"095ea7b3","balanceOf(address)":"70a08231","getApproved(uint256)":"081812fc","isApprovedForAll(address,address)":"e985e9c5","mint(address,uint256)":"40c10f19","name()":"06fdde03","ownerOf(uint256)":"6352211e","safeMint(address,uint256)":"a1448194","safeTransferFrom(address,address,uint256)":"42842e0e","safeTransferFrom(address,address,uint256,bytes)":"b88d4fde","setApprovalForAll(address,bool)":"a22cb465","supportsInterface(bytes4)":"01ffc9a7","symbol()":"95d89b41","test_ignore()":"b4e7a91d","tokenURI(uint256)":"c87b56dd","transferFrom(address,address,uint256)":"23b872dd"},"id":53}