{"abi":[{"type":"function","name":"allowedCaller","inputs":[{"name":"id","type":"bytes32","internalType":"bytes32"},{"name":"caller","type":"address","internalType":"address"},{"name":"wallet","type":"address","internalType":"address"}],"outputs":[{"name":"","type":"bool","internalType":"bool"}],"stateMutability":"view"},{"type":"function","name":"checkSignaturePolicy","inputs":[{"name":"id","type":"bytes32","internalType":"bytes32"},{"name":"sender","type":"address","internalType":"address"},{"name":"hash","type":"bytes32","internalType":"bytes32"},{"name":"sig","type":"bytes","internalType":"bytes"}],"outputs":[{"name":"","type":"uint256","internalType":"uint256"}],"stateMutability":"view"},{"type":"function","name":"checkUserOpPolicy","inputs":[{"name":"id","type":"bytes32","internalType":"bytes32"},{"name":"userOp","type":"tuple","internalType":"struct PackedUserOperation","components":[{"name":"sender","type":"address","internalType":"address"},{"name":"nonce","type":"uint256","internalType":"uint256"},{"name":"initCode","type":"bytes","internalType":"bytes"},{"name":"callData","type":"bytes","internalType":"bytes"},{"name":"accountGasLimits","type":"bytes32","internalType":"bytes32"},{"name":"preVerificationGas","type":"uint256","internalType":"uint256"},{"name":"gasFees","type":"bytes32","internalType":"bytes32"},{"name":"paymasterAndData","type":"bytes","internalType":"bytes"},{"name":"signature","type":"bytes","internalType":"bytes"}]}],"outputs":[{"name":"","type":"uint256","internalType":"uint256"}],"stateMutability":"payable"},{"type":"function","name":"isInitialized","inputs":[{"name":"wallet","type":"address","internalType":"address"}],"outputs":[{"name":"","type":"bool","internalType":"bool"}],"stateMutability":"view"},{"type":"function","name":"isModuleType","inputs":[{"name":"typeID","type":"uint256","internalType":"uint256"}],"outputs":[{"name":"","type":"bool","internalType":"bool"}],"stateMutability":"pure"},{"type":"function","name":"onInstall","inputs":[{"name":"data","type":"bytes","internalType":"bytes"}],"outputs":[],"stateMutability":"payable"},{"type":"function","name":"onUninstall","inputs":[{"name":"data","type":"bytes","internalType":"bytes"}],"outputs":[],"stateMutability":"payable"},{"type":"function","name":"status","inputs":[{"name":"id","type":"bytes32","internalType":"bytes32"},{"name":"","type":"address","internalType":"address"}],"outputs":[{"name":"","type":"uint8","internalType":"enum Status"}],"stateMutability":"view"},{"type":"function","name":"usedIds","inputs":[{"name":"","type":"address","internalType":"address"}],"outputs":[{"name":"","type":"uint256","internalType":"uint256"}],"stateMutability":"view"},{"type":"function","name":"validateSignatureWithDataWithSender","inputs":[{"name":"sender","type":"address","internalType":"address"},{"name":"","type":"bytes32","internalType":"bytes32"},{"name":"","type":"bytes","internalType":"bytes"},{"name":"data","type":"bytes","internalType":"bytes"}],"outputs":[{"name":"","type":"bool","internalType":"bool"}],"stateMutability":"view"}],"bytecode":{"object":"0x608080604052346015576106df908161001a8239f35b5f80fdfe6080806040526004361015610012575f80fd5b5f3560e01c908163244d6cb2146104b557508063309bfb76146104645780633d4e44be146103f35780636d61fe70146102e55780637129edce1461027e5780638a91b0e3146101d2578063d60b347f14610199578063d8ed2b3c14610135578063ecd05961146100fd5763f66e34801461008a575f80fd5b346100f95760603660031901126100f9576100a36104fe565b604435906001600160a01b03821682036100f9576004355f52600260205260405f209060018060a01b03165f5260205260405f209060018060a01b03165f52602052602060ff60405f2054166040519015158152f35b5f80fd5b346100f95760203660031901126100f95760206004356005811490811561012a575b506040519015158152f35b60089150148261011f565b346100f95760403660031901126100f95761014e6104fe565b6004355f52600160205260405f209060018060a01b03165f5260205260ff60405f2054166040516003821015610185576020918152f35b634e487b7160e01b5f52602160045260245ffd5b346100f95760203660031901126100f9576001600160a01b036101ba6104e8565b165f525f602052602060405f20541515604051908152f35b60203660031901126100f95760043567ffffffffffffffff81116100f9576101fe903690600401610514565b6020116100f957355f81815260016020908152604080832033845290915290205460ff166003811015610185576001036100f9575f9081526001602090815260408083203384528252808320805460ff191660021790559082905290208054801561026a575f19019055005b634e487b7160e01b5f52601160045260245ffd5b60403660031901126100f95760243567ffffffffffffffff81116100f9576101209060031990360301126100f9576004355f90815260016020908152604080832033845290915290205460ff166003811015610185576001036100f95760206040515f8152f35b60203660031901126100f95760043567ffffffffffffffff81116100f957610311903690600401610514565b806020116100f957813591825f52600160205260405f2060018060a01b0333165f5260205260ff60405f2054166003811015610185576100f957602061035a92820191016105a8565b335f5b82518110156103b5575f848152600260205260409020600191906001600160a01b036103898387610663565b5116838060a01b03165f5260205260405f20835f5260205260405f208260ff198254161790550161035d565b50825f52600160205260405f20905f5260205260405f20600160ff19825416179055335f525f60205260405f2080545f19811461026a576001019055005b346100f95760803660031901126100f95761040c6104e8565b60443567ffffffffffffffff81116100f95761042c903690600401610514565b505060643567ffffffffffffffff81116100f95760209161045461045a923690600401610514565b9161068b565b6040519015158152f35b346100f95760803660031901126100f95761047d6104fe565b60643567ffffffffffffffff81116100f9576020916104a36104ad923690600401610514565b5050600435610542565b604051908152f35b346100f95760203660031901126100f9576020906001600160a01b036104d96104e8565b165f525f825260405f20548152f35b600435906001600160a01b03821682036100f957565b602435906001600160a01b03821682036100f957565b9181601f840112156100f95782359167ffffffffffffffff83116100f957602083818601950101116100f957565b5f81815260016020908152604080832033845290915290205460ff166003811015610185576001036100f9575f9081526002602090815260408083206001600160a01b0390941683529281528282203383529052205460ff166105a457600190565b5f90565b6020818303126100f95780359067ffffffffffffffff82116100f9570181601f820112156100f95780359167ffffffffffffffff831161064f578260051b9160405193601f19603f850116850185811067ffffffffffffffff82111761064f5760405284526020808501938201019182116100f957602001915b81831061062f5750505090565b82356001600160a01b03811681036100f957815260209283019201610622565b634e487b7160e01b5f52604160045260245ffd5b80518210156106775760209160051b010190565b634e487b7160e01b5f52603260045260245ffd5b9190610699918101906105a8565b905f5b82518110156106d8576001600160a01b036106b78285610663565b51166001600160a01b038316146106d05760010161069c565b505050600190565b5050505f9056","linkReferences":{}},"methodIdentifiers":{"allowedCaller(bytes32,address,address)":"f66e3480","checkSignaturePolicy(bytes32,address,bytes32,bytes)":"309bfb76","checkUserOpPolicy(bytes32,(address,uint256,bytes,bytes,bytes32,uint256,bytes32,bytes,bytes))":"7129edce","isInitialized(address)":"d60b347f","isModuleType(uint256)":"ecd05961","onInstall(bytes)":"6d61fe70","onUninstall(bytes)":"8a91b0e3","status(bytes32,address)":"d8ed2b3c","usedIds(address)":"244d6cb2","validateSignatureWithDataWithSender(address,bytes32,bytes,bytes)":"3d4e44be"},"id":1}