{"abi":[{"type":"function","name":"calleeTest","inputs":[],"outputs":[],"stateMutability":"nonpayable"},{"type":"function","name":"lastCaller","inputs":[],"outputs":[{"name":"","type":"address","internalType":"address"}],"stateMutability":"view"}],"bytecode":{"object":"0x608060405234601c57600e6020565b6101d261002b82396101d290f35b6026565b60405190565b5f80fdfe60806040526004361015610013575b610148565b61001d5f3561003c565b80632113522a1461003757634d650aca0361000e57610115565b6100db565b60e01c90565b60405190565b5f80fd5b5f80fd5b5f91031261005a57565b61004c565b1c90565b60018060a01b031690565b61007e906008610083930261005f565b610063565b90565b90610091915461006e565b90565b61009f5f5f90610086565b90565b60018060a01b031690565b6100b6906100a2565b90565b6100c2906100ad565b9052565b91906100d9905f602085019401906100b9565b565b3461010b576100eb366004610050565b6101076100f6610094565b6100fe610042565b918291826100c6565b0390f35b610048565b5f0190565b3461014357610125366004610050565b61012d6101c6565b610135610042565b8061013f81610110565b0390f35b610048565b5f80fd5b5f1b90565b9061016260018060a01b039161014c565b9181191691161790565b90565b61018361017e610188926100a2565b61016c565b6100a2565b90565b6101949061016f565b90565b6101a09061018b565b90565b90565b906101bb6101b66101c292610197565b6101a3565b8254610151565b9055565b6101d0335f6101a6565b56","linkReferences":{}},"methodIdentifiers":{"calleeTest()":"4d650aca","lastCaller()":"2113522a"},"id":55}