{"abi":[{"type":"constructor","inputs":[],"stateMutability":"nonpayable"},{"type":"function","name":"callee","inputs":[],"outputs":[{"name":"","type":"address","internalType":"contract Callee"}],"stateMutability":"view"},{"type":"function","name":"data","inputs":[{"name":"","type":"address","internalType":"address"}],"outputs":[{"name":"","type":"bytes","internalType":"bytes"}],"stateMutability":"view"},{"type":"function","name":"fallbackFunction","inputs":[{"name":"v","type":"uint256","internalType":"uint256"}],"outputs":[{"name":"","type":"uint256","internalType":"uint256"}],"stateMutability":"pure"},{"type":"function","name":"getCaller","inputs":[],"outputs":[{"name":"","type":"address","internalType":"address"}],"stateMutability":"pure"},{"type":"function","name":"getData","inputs":[],"outputs":[{"name":"","type":"bytes","internalType":"bytes"}],"stateMutability":"view"},{"type":"function","name":"isInitialized","inputs":[{"name":"smartAccount","type":"address","internalType":"address"}],"outputs":[{"name":"","type":"bool","internalType":"bool"}],"stateMutability":"view"},{"type":"function","name":"isModuleType","inputs":[{"name":"moduleTypeId","type":"uint256","internalType":"uint256"}],"outputs":[{"name":"","type":"bool","internalType":"bool"}],"stateMutability":"view"},{"type":"function","name":"onInstall","inputs":[{"name":"_data","type":"bytes","internalType":"bytes"}],"outputs":[],"stateMutability":"payable"},{"type":"function","name":"onUninstall","inputs":[{"name":"","type":"bytes","internalType":"bytes"}],"outputs":[],"stateMutability":"payable"},{"type":"function","name":"setData","inputs":[{"name":"value","type":"uint256","internalType":"uint256"}],"outputs":[],"stateMutability":"nonpayable"},{"type":"function","name":"setExecutorMode","inputs":[{"name":"_isExecutor","type":"bool","internalType":"bool"}],"outputs":[],"stateMutability":"payable"},{"type":"function","name":"valueStored","inputs":[],"outputs":[{"name":"","type":"uint256","internalType":"uint256"}],"stateMutability":"view"},{"type":"error","name":"AlreadyInitialized","inputs":[{"name":"smartAccount","type":"address","internalType":"address"}]},{"type":"error","name":"NotInitialized","inputs":[{"name":"smartAccount","type":"address","internalType":"address"}]}],"bytecode":{"object":"0x608060405234610027576100116100e7565b61001961002c565b6115e061013982396115e090f35b610032565b60405190565b5f80fd5b634e487b7160e01b5f52604160045260245ffd5b5f0190565b61005761002c565b3d5f823e3d90fd5b60081b90565b90610078610100600160a81b039161005f565b9181191691161790565b60018060a01b031690565b90565b6100a461009f6100a992610082565b61008d565b610082565b90565b6100b590610090565b90565b6100c1906100ac565b90565b90565b906100dc6100d76100e3926100b8565b6100c4565b8254610065565b9055565b6100ef61002c565b6101fd810181811060018060401b038211176101335761011782916101fd611719843961004a565b03905ff0801561012e5761012c9060026100c7565b565b61004f565b61003656fe60806040526004361015610013575b610817565b61001d5f356100dc565b80632370c113146100d75780633bc5de30146100d25780634460875a146100cd5780635b4b73a9146100c85780636d61fe70146100c35780638a91b0e3146100be578063ab470f05146100b9578063b90d3d0c146100b4578063ceee2e20146100af578063d60b347f146100aa578063ecd05961146100a55763f7d7f8f10361000e576107e2565b6107ad565b610778565b610721565b61067d565b61042f565b6103cc565b6103a2565b6102ee565b610284565b610200565b610160565b60e01c90565b60405190565b5f80fd5b5f80fd5b5f9103126100fa57565b6100ec565b1c90565b90565b61011690600861011b93026100ff565b610103565b90565b906101299154610106565b90565b61013860015f9061011e565b90565b90565b6101479061013b565b9052565b919061015e905f6020850194019061013e565b565b34610190576101703660046100f0565b61018c61017b61012c565b6101836100e2565b9182918261014b565b0390f35b6100e8565b5190565b60209181520190565b90825f9392825e0152565b601f801991011690565b6101d66101df6020936101e4936101cd81610195565b93848093610199565b958691016101a2565b6101ad565b0190565b6101fd9160208201915f8184039101526101b7565b90565b34610230576102103660046100f0565b61022c61021b61082c565b6102236100e2565b918291826101e8565b0390f35b6100e8565b5f80fd5b151590565b61024781610239565b0361024e57565b5f80fd5b9050359061025f8261023e565b565b9060208282031261027a57610277915f01610252565b90565b6100ec565b5f0190565b610297610292366004610261565b610895565b61029f6100e2565b806102a98161027f565b0390f35b6102b68161013b565b036102bd57565b5f80fd5b905035906102ce826102ad565b565b906020828203126102e9576102e6915f016102c1565b90565b6100ec565b3461031c576103066103013660046102d0565b610b5f565b61030e6100e2565b806103188161027f565b0390f35b6100e8565b5f80fd5b5f80fd5b5f80fd5b909182601f830112156103675781359167ffffffffffffffff831161036257602001926001830284011161035d57565b610329565b610325565b610321565b9060208282031261039d575f82013567ffffffffffffffff811161039857610394920161032d565b9091565b610235565b6100ec565b6103b66103b036600461036c565b90610e42565b6103be6100e2565b806103c88161027f565b0390f35b6103e06103da36600461036c565b90611053565b6103e86100e2565b806103f28161027f565b0390f35b60018060a01b031690565b61040a906103f6565b90565b61041690610401565b9052565b919061042d905f6020850194019061040d565b565b3461045f5761043f3660046100f0565b61045b61044a611160565b6104526100e2565b9182918261041a565b0390f35b6100e8565b61046d81610401565b0361047457565b5f80fd5b9050359061048582610464565b565b906020828203126104a05761049d915f01610478565b90565b6100ec565b90565b6104bc6104b76104c1926103f6565b6104a5565b6103f6565b90565b6104cd906104a8565b90565b6104d9906104c4565b90565b906104e6906104d0565b5f5260205260405f2090565b634e487b7160e01b5f525f60045260245ffd5b634e487b7160e01b5f52602260045260245ffd5b9060016002830492168015610539575b602083101461053457565b610505565b91607f1691610529565b60209181520190565b5f5260205f2090565b905f929180549061056f61056883610519565b8094610543565b916001811690815f146105c6575060011461058a575b505050565b610597919293945061054c565b915f925b8184106105ae57505001905f8080610585565b6001816020929593955484860152019101929061059b565b92949550505060ff19168252151560200201905f8080610585565b906105eb91610555565b90565b634e487b7160e01b5f52604160045260245ffd5b9061060c906101ad565b810190811067ffffffffffffffff82111761062657604052565b6105ee565b9061064b6106449261063b6100e2565b938480926105e1565b0383610602565b565b905f106106605761065d9061062b565b90565b6104f2565b61067a906106755f915f926104dc565b61064d565b90565b346106ad576106a9610698610693366004610487565b610665565b6106a06100e2565b918291826101e8565b0390f35b6100e8565b60018060a01b031690565b6106cd9060086106d293026100ff565b6106b2565b90565b906106e091546106bd565b90565b6106f060026001906106d5565b90565b6106fc906104c4565b90565b610708906106f3565b9052565b919061071f905f602085019401906106ff565b565b34610751576107313660046100f0565b61074d61073c6106e3565b6107446100e2565b9182918261070c565b0390f35b6100e8565b61075f90610239565b9052565b9190610776905f60208501940190610756565b565b346107a8576107a461079361078e366004610487565b6111b9565b61079b6100e2565b91829182610763565b0390f35b6100e8565b346107dd576107d96107c86107c33660046102d0565b611228565b6107d06100e2565b91829182610763565b0390f35b6100e8565b346108125761080e6107fd6107f83660046102d0565b611288565b6108056100e2565b9182918261014b565b0390f35b6100e8565b5f80fd5b606090565b6108299061062b565b90565b61083461081b565b506108486108435f33906104dc565b610820565b90565b5f1b90565b9061085c60ff9161084b565b9181191691161790565b61086f90610239565b90565b90565b9061088a61088561089192610866565b610872565b8254610850565b9055565b6108a0906002610875565b565b906108ae5f199161084b565b9181191691161790565b6108cc6108c76108d19261013b565b6104a5565b61013b565b90565b90565b906108ec6108e76108f3926108b8565b6108d4565b82546108a2565b9055565b5f1c90565b60ff1690565b61090e610913916108f7565b6108fc565b90565b6109209054610902565b90565b61092c906104a8565b90565b61093890610923565b90565b610944906104c4565b90565b60081c90565b61095961095e91610947565b6106b2565b90565b61096b905461094d565b90565b90565b61098561098061098a9261096e565b6104a5565b61013b565b90565b60e01b90565b906109a661099f6100e2565b9283610602565b565b67ffffffffffffffff81116109c05760208091020190565b6105ee565b5f80fd5b67ffffffffffffffff81116109e7576109e36020916101ad565b0190565b6105ee565b90929192610a016109fc826109c9565b610993565b93818552602085019082840111610a1d57610a1b926101a2565b565b6109c5565b9080601f83011215610a4057816020610a3d935191016109ec565b90565b610321565b929190610a59610a54826109a8565b610993565b9381855260208086019202810191838311610ab05781905b838210610a7f575050505050565b815167ffffffffffffffff8111610aab57602091610aa08784938701610a22565b815201910190610a71565b610321565b610329565b9080601f83011215610ad357816020610ad093519101610a45565b90565b610321565b90602082820312610b08575f82015167ffffffffffffffff8111610b0357610b009201610ab5565b90565b610235565b6100ec565b90565b610b1990610b0d565b90565b610b2590610b10565b9052565b91610b4c92610b3f60408201935f830190610b1c565b60208184039101526101b7565b90565b610b576100e2565b3d5f823e3d90fd5b610b6a9060016108d7565b610b746002610916565b610b7b575b565b610b8c610b873361092f565b61093b565b5f63d691c96491610b9b61135f565b90610c1383610bfb6004610bb7610bb26002610961565b6106f3565b610bf584610bf06326b2856560e11b610be1610bd16100e2565b968792602084019081520161027f565b60208201810382520385610602565b610971565b90611438565b95610c1e610c076100e2565b9788968795869461098d565b845260048401610b29565b03925af18015610c5357610c33575b50610b79565b610c4e903d805f833e610c468183610602565b810190610ad8565b610c2d565b610b4f565b5090565b601f602091010490565b1b90565b91906008610c85910291610c7f5f1984610c66565b92610c66565b9181191691161790565b9190610ca5610ca0610cad936108b8565b6108d4565b908354610c6a565b9055565b5f90565b610cc791610cc1610cb1565b91610c8f565b565b5b818110610cd5575050565b80610ce25f600193610cb5565b01610cca565b9190601f8111610cf8575b505050565b610d04610d299361054c565b906020610d1084610c5c565b83019310610d31575b610d2290610c5c565b0190610cc9565b5f8080610cf3565b9150610d2281929050610d19565b90610d4f905f19906008026100ff565b191690565b81610d5e91610d3f565b906002021790565b91610d719082610c58565b9067ffffffffffffffff8211610e3057610d9582610d8f8554610519565b85610ce8565b5f90601f8311600114610dc857918091610db7935f92610dbc575b5050610d54565b90555b565b90915001355f80610db0565b601f19831691610dd78561054c565b925f5b818110610e1857509160029391856001969410610dfe575b50505002019055610dba565b610e0e910135601f841690610d3f565b90555f8080610df2565b91936020600181928787013581550195019201610dda565b6105ee565b90610e409291610d66565b565b90610e5791610e525f33906104dc565b610e35565b565b90610e6c905f19906020036008026100ff565b8154169055565b905f91610e8a610e828261054c565b928354610d54565b905555565b919290602082105f14610ee857601f8411600114610eb857610eb2929350610d54565b90555b5b565b5090610ede610ee3936001610ed5610ecf8561054c565b92610c5c565b82019101610cc9565b610e73565b610eb5565b50610f1f8293610ef960019461054c565b610f18610f0585610c5c565b820192601f861680610f2a575b50610c5c565b0190610cc9565b600202179055610eb6565b610f3690888603610e59565b5f610f12565b929091680100000000000000008211610f9c576020115f14610f8d57602081105f14610f7157610f6b91610d54565b90555b5b565b60019160ff1916610f818461054c565b55600202019055610f6e565b60019150600202019055610f6f565b6105ee565b908154610fad81610519565b90818311610fd6575b818310610fc4575b50505050565b610fcd93610e8f565b5f808080610fbe565b610fe283838387610f3c565b610fb6565b634e487b7160e01b5f52601160045260245ffd5b61100a6110109193929361013b565b9261013b565b9161101c83820261013b565b92818404149015171561102b57565b610fe7565b5f61103a91610fa1565b565b905f0361104e5761104c90611030565b565b6104f2565b50506110695f6110648133906104dc565b61103c565b565b5f90565b90565b61108661108161108b9261106f565b6104a5565b61013b565b90565b61109d6110a39193929361013b565b9261013b565b82039182116110ae57565b610fe7565b5f80fd5b5f80fd5b909392938483116110db5784116110d6576001820201920390565b6110b7565b6110b3565b6bffffffffffffffffffffffff191690565b906111006111079183610c58565b91356110e0565b9060148110611115575b5090565b611133906bffffffffffffffffffffffff1990601403600802610c66565b165f611111565b60601c90565b61114c6111519161113a565b6104a8565b90565b61115d90611140565b90565b61116861106b565b506111a56111a061119a5f366111926111825f3690610c58565b61118c6014611072565b9061108e565b9080926110bb565b906110f2565b611154565b90565b5f90565b6111b69054610519565b90565b6111cf6111d4916111c86111a8565b505f6104dc565b6111ac565b6111e66111e05f610971565b9161013b565b1190565b90565b6112016111fc611206926111ea565b6104a5565b61013b565b90565b90565b61122061121b61122592611209565b6104a5565b61013b565b90565b6112306111a8565b508061124561123f60036111ed565b9161013b565b14908115611252575b5090565b905061125e6002610916565b908161126c575b505f61124e565b905061128161127b600261120c565b9161013b565b145f611265565b61129b90611294610cb1565b5080610ffb565b90565b5f90565b60ff60f81b1690565b60f81b90565b6112c56112c06112ca9261096e565b6112ab565b6112a2565b90565b6112d65f6112b1565b90565b6112e25f6112b1565b90565b63ffffffff60e01b1690565b61130561130061130a9261096e565b61098d565b6112e5565b90565b611316906112e5565b90565b61132a6113255f6112f1565b61130d565b90565b69ffffffffffffffffffff191690565b60501b90565b61135761135261135c9261096e565b61133d565b61132d565b90565b61136761129e565b506113936113736112cd565b61137b6112d9565b611383611319565b9061138d5f611343565b92611581565b90565b60601b90565b6113a590611396565b90565b6113b19061139c565b90565b6113c06113c591610401565b6113a8565b9052565b90565b6113d86113dd9161013b565b6113c9565b9052565b905090565b61140b611402926020926113f981610195565b948580936113e1565b938491016101a2565b0190565b9161142e60148461142661143597966020966113b4565b0180926113cc565b01906113e6565b90565b9061145f61146e9261144861081b565b5091936114536100e2565b9485936020850161140f565b60208201810382520382610602565b90565b61147a906112a2565b90565b90565b61148c61149191611471565b61147d565b9052565b6114a16114a691611471565b61147d565b9052565b90565b6114b96114be916112e5565b6114aa565b9052565b6114cb9061132d565b90565b90565b6114dd6114e2916114c2565b6114ce565b9052565b6004611529946115196001839661151182876115096115219960169f9e9b611480565b018092611495565b0180926114ad565b0180926114ad565b0180926114d1565b0190565b60200190565b61153d9051610b0d565b90565b61155a61155561154f83610195565b9261152d565b611533565b9060208110611568575b5090565b61157a905f1990602003600802610c66565b165f611564565b6115dd93916115c46115d8946115d39361159961129e565b5092946115ae6115a85f6112f1565b9261130d565b90916115b86100e2565b968795602087016114e6565b60208201810382520382610602565b611540565b610b10565b9056608060405234601c57600e6020565b6101d261002b82396101d290f35b6026565b60405190565b5f80fdfe60806040526004361015610013575b610148565b61001d5f3561003c565b80632113522a1461003757634d650aca0361000e57610115565b6100db565b60e01c90565b60405190565b5f80fd5b5f80fd5b5f91031261005a57565b61004c565b1c90565b60018060a01b031690565b61007e906008610083930261005f565b610063565b90565b90610091915461006e565b90565b61009f5f5f90610086565b90565b60018060a01b031690565b6100b6906100a2565b90565b6100c2906100ad565b9052565b91906100d9905f602085019401906100b9565b565b3461010b576100eb366004610050565b6101076100f6610094565b6100fe610042565b918291826100c6565b0390f35b610048565b5f0190565b3461014357610125366004610050565b61012d6101c6565b610135610042565b8061013f81610110565b0390f35b610048565b5f80fd5b5f1b90565b9061016260018060a01b039161014c565b9181191691161790565b90565b61018361017e610188926100a2565b61016c565b6100a2565b90565b6101949061016f565b90565b6101a09061018b565b90565b90565b906101bb6101b66101c292610197565b6101a3565b8254610151565b9055565b6101d0335f6101a6565b56","linkReferences":{}},"methodIdentifiers":{"callee()":"ceee2e20","data(address)":"b90d3d0c","fallbackFunction(uint256)":"f7d7f8f1","getCaller()":"ab470f05","getData()":"3bc5de30","isInitialized(address)":"d60b347f","isModuleType(uint256)":"ecd05961","onInstall(bytes)":"6d61fe70","onUninstall(bytes)":"8a91b0e3","setData(uint256)":"5b4b73a9","setExecutorMode(bool)":"4460875a","valueStored()":"2370c113"},"id":55}