{"abi":[{"type":"constructor","inputs":[{"name":"_entrypoint","type":"address","internalType":"contract IEntryPoint"}],"stateMutability":"nonpayable"},{"type":"fallback","stateMutability":"payable"},{"type":"receive","stateMutability":"payable"},{"type":"function","name":"accountId","inputs":[],"outputs":[{"name":"accountImplementationId","type":"string","internalType":"string"}],"stateMutability":"pure"},{"type":"function","name":"currentNonce","inputs":[],"outputs":[{"name":"","type":"uint32","internalType":"uint32"}],"stateMutability":"view"},{"type":"function","name":"eip712Domain","inputs":[],"outputs":[{"name":"fields","type":"bytes1","internalType":"bytes1"},{"name":"name","type":"string","internalType":"string"},{"name":"version","type":"string","internalType":"string"},{"name":"chainId","type":"uint256","internalType":"uint256"},{"name":"verifyingContract","type":"address","internalType":"address"},{"name":"salt","type":"bytes32","internalType":"bytes32"},{"name":"extensions","type":"uint256[]","internalType":"uint256[]"}],"stateMutability":"view"},{"type":"function","name":"entrypoint","inputs":[],"outputs":[{"name":"","type":"address","internalType":"contract IEntryPoint"}],"stateMutability":"view"},{"type":"function","name":"execute","inputs":[{"name":"execMode","type":"bytes32","internalType":"ExecMode"},{"name":"executionCalldata","type":"bytes","internalType":"bytes"}],"outputs":[],"stateMutability":"payable"},{"type":"function","name":"executeFromExecutor","inputs":[{"name":"execMode","type":"bytes32","internalType":"ExecMode"},{"name":"executionCalldata","type":"bytes","internalType":"bytes"}],"outputs":[{"name":"returnData","type":"bytes[]","internalType":"bytes[]"}],"stateMutability":"payable"},{"type":"function","name":"executeUserOp","inputs":[{"name":"userOp","type":"tuple","internalType":"struct PackedUserOperation","components":[{"name":"sender","type":"address","internalType":"address"},{"name":"nonce","type":"uint256","internalType":"uint256"},{"name":"initCode","type":"bytes","internalType":"bytes"},{"name":"callData","type":"bytes","internalType":"bytes"},{"name":"accountGasLimits","type":"bytes32","internalType":"bytes32"},{"name":"preVerificationGas","type":"uint256","internalType":"uint256"},{"name":"gasFees","type":"bytes32","internalType":"bytes32"},{"name":"paymasterAndData","type":"bytes","internalType":"bytes"},{"name":"signature","type":"bytes","internalType":"bytes"}]},{"name":"userOpHash","type":"bytes32","internalType":"bytes32"}],"outputs":[],"stateMutability":"payable"},{"type":"function","name":"executorConfig","inputs":[{"name":"executor","type":"address","internalType":"contract IExecutor"}],"outputs":[{"name":"","type":"tuple","internalType":"struct ExecutorManager.ExecutorConfig","components":[{"name":"hook","type":"address","internalType":"contract IHook"}]}],"stateMutability":"view"},{"type":"function","name":"initialize","inputs":[{"name":"_rootValidator","type":"bytes21","internalType":"ValidationId"},{"name":"hook","type":"address","internalType":"contract IHook"},{"name":"validatorData","type":"bytes","internalType":"bytes"},{"name":"hookData","type":"bytes","internalType":"bytes"}],"outputs":[],"stateMutability":"nonpayable"},{"type":"function","name":"installModule","inputs":[{"name":"moduleType","type":"uint256","internalType":"uint256"},{"name":"module","type":"address","internalType":"address"},{"name":"initData","type":"bytes","internalType":"bytes"}],"outputs":[],"stateMutability":"payable"},{"type":"function","name":"installValidations","inputs":[{"name":"vIds","type":"bytes21[]","internalType":"ValidationId[]"},{"name":"configs","type":"tuple[]","internalType":"struct ValidationManager.ValidationConfig[]","components":[{"name":"nonce","type":"uint32","internalType":"uint32"},{"name":"hook","type":"address","internalType":"contract IHook"}]},{"name":"validationData","type":"bytes[]","internalType":"bytes[]"},{"name":"hookData","type":"bytes[]","internalType":"bytes[]"}],"outputs":[],"stateMutability":"payable"},{"type":"function","name":"invalidateNonce","inputs":[{"name":"nonce","type":"uint32","internalType":"uint32"}],"outputs":[],"stateMutability":"payable"},{"type":"function","name":"isAllowedSelector","inputs":[{"name":"vId","type":"bytes21","internalType":"ValidationId"},{"name":"selector","type":"bytes4","internalType":"bytes4"}],"outputs":[{"name":"","type":"bool","internalType":"bool"}],"stateMutability":"view"},{"type":"function","name":"isModuleInstalled","inputs":[{"name":"moduleType","type":"uint256","internalType":"uint256"},{"name":"module","type":"address","internalType":"address"},{"name":"additionalContext","type":"bytes","internalType":"bytes"}],"outputs":[{"name":"","type":"bool","internalType":"bool"}],"stateMutability":"view"},{"type":"function","name":"isValidSignature","inputs":[{"name":"hash","type":"bytes32","internalType":"bytes32"},{"name":"signature","type":"bytes","internalType":"bytes"}],"outputs":[{"name":"","type":"bytes4","internalType":"bytes4"}],"stateMutability":"view"},{"type":"function","name":"onERC1155BatchReceived","inputs":[{"name":"","type":"address","internalType":"address"},{"name":"","type":"address","internalType":"address"},{"name":"","type":"uint256[]","internalType":"uint256[]"},{"name":"","type":"uint256[]","internalType":"uint256[]"},{"name":"","type":"bytes","internalType":"bytes"}],"outputs":[{"name":"","type":"bytes4","internalType":"bytes4"}],"stateMutability":"pure"},{"type":"function","name":"onERC1155Received","inputs":[{"name":"","type":"address","internalType":"address"},{"name":"","type":"address","internalType":"address"},{"name":"","type":"uint256","internalType":"uint256"},{"name":"","type":"uint256","internalType":"uint256"},{"name":"","type":"bytes","internalType":"bytes"}],"outputs":[{"name":"","type":"bytes4","internalType":"bytes4"}],"stateMutability":"pure"},{"type":"function","name":"onERC721Received","inputs":[{"name":"","type":"address","internalType":"address"},{"name":"","type":"address","internalType":"address"},{"name":"","type":"uint256","internalType":"uint256"},{"name":"","type":"bytes","internalType":"bytes"}],"outputs":[{"name":"","type":"bytes4","internalType":"bytes4"}],"stateMutability":"pure"},{"type":"function","name":"permissionConfig","inputs":[{"name":"pId","type":"bytes4","internalType":"PermissionId"}],"outputs":[{"name":"","type":"tuple","internalType":"struct ValidationManager.PermissionConfig","components":[{"name":"permissionFlag","type":"bytes2","internalType":"PassFlag"},{"name":"signer","type":"address","internalType":"contract ISigner"},{"name":"policyData","type":"bytes22[]","internalType":"PolicyData[]"}]}],"stateMutability":"view"},{"type":"function","name":"rootValidator","inputs":[],"outputs":[{"name":"","type":"bytes21","internalType":"ValidationId"}],"stateMutability":"view"},{"type":"function","name":"selectorConfig","inputs":[{"name":"selector","type":"bytes4","internalType":"bytes4"}],"outputs":[{"name":"","type":"tuple","internalType":"struct SelectorManager.SelectorConfig","components":[{"name":"hook","type":"address","internalType":"contract IHook"},{"name":"target","type":"address","internalType":"address"},{"name":"callType","type":"bytes1","internalType":"CallType"}]}],"stateMutability":"view"},{"type":"function","name":"supportsExecutionMode","inputs":[{"name":"mode","type":"bytes32","internalType":"ExecMode"}],"outputs":[{"name":"","type":"bool","internalType":"bool"}],"stateMutability":"pure"},{"type":"function","name":"supportsModule","inputs":[{"name":"moduleTypeId","type":"uint256","internalType":"uint256"}],"outputs":[{"name":"","type":"bool","internalType":"bool"}],"stateMutability":"pure"},{"type":"function","name":"uninstallModule","inputs":[{"name":"moduleType","type":"uint256","internalType":"uint256"},{"name":"module","type":"address","internalType":"address"},{"name":"deInitData","type":"bytes","internalType":"bytes"}],"outputs":[],"stateMutability":"payable"},{"type":"function","name":"uninstallValidation","inputs":[{"name":"vId","type":"bytes21","internalType":"ValidationId"},{"name":"deinitData","type":"bytes","internalType":"bytes"},{"name":"hookDeinitData","type":"bytes","internalType":"bytes"}],"outputs":[],"stateMutability":"payable"},{"type":"function","name":"upgradeTo","inputs":[{"name":"_newImplementation","type":"address","internalType":"address"}],"outputs":[],"stateMutability":"payable"},{"type":"function","name":"validNonceFrom","inputs":[],"outputs":[{"name":"","type":"uint32","internalType":"uint32"}],"stateMutability":"view"},{"type":"function","name":"validateUserOp","inputs":[{"name":"userOp","type":"tuple","internalType":"struct PackedUserOperation","components":[{"name":"sender","type":"address","internalType":"address"},{"name":"nonce","type":"uint256","internalType":"uint256"},{"name":"initCode","type":"bytes","internalType":"bytes"},{"name":"callData","type":"bytes","internalType":"bytes"},{"name":"accountGasLimits","type":"bytes32","internalType":"bytes32"},{"name":"preVerificationGas","type":"uint256","internalType":"uint256"},{"name":"gasFees","type":"bytes32","internalType":"bytes32"},{"name":"paymasterAndData","type":"bytes","internalType":"bytes"},{"name":"signature","type":"bytes","internalType":"bytes"}]},{"name":"userOpHash","type":"bytes32","internalType":"bytes32"},{"name":"missingAccountFunds","type":"uint256","internalType":"uint256"}],"outputs":[{"name":"validationData","type":"uint256","internalType":"ValidationData"}],"stateMutability":"payable"},{"type":"function","name":"validationConfig","inputs":[{"name":"vId","type":"bytes21","internalType":"ValidationId"}],"outputs":[{"name":"","type":"tuple","internalType":"struct ValidationManager.ValidationConfig","components":[{"name":"nonce","type":"uint32","internalType":"uint32"},{"name":"hook","type":"address","internalType":"contract IHook"}]}],"stateMutability":"view"},{"type":"event","name":"ModuleInstalled","inputs":[{"name":"moduleTypeId","type":"uint256","indexed":false,"internalType":"uint256"},{"name":"module","type":"address","indexed":false,"internalType":"address"}],"anonymous":false},{"type":"event","name":"ModuleUninstallResult","inputs":[{"name":"module","type":"address","indexed":false,"internalType":"address"},{"name":"result","type":"bool","indexed":false,"internalType":"bool"}],"anonymous":false},{"type":"event","name":"ModuleUninstalled","inputs":[{"name":"moduleTypeId","type":"uint256","indexed":false,"internalType":"uint256"},{"name":"module","type":"address","indexed":false,"internalType":"address"}],"anonymous":false},{"type":"event","name":"NonceInvalidated","inputs":[{"name":"nonce","type":"uint32","indexed":false,"internalType":"uint32"}],"anonymous":false},{"type":"event","name":"PermissionInstalled","inputs":[{"name":"permission","type":"bytes4","indexed":false,"internalType":"PermissionId"},{"name":"nonce","type":"uint32","indexed":false,"internalType":"uint32"}],"anonymous":false},{"type":"event","name":"PermissionUninstalled","inputs":[{"name":"permission","type":"bytes4","indexed":false,"internalType":"PermissionId"}],"anonymous":false},{"type":"event","name":"Received","inputs":[{"name":"sender","type":"address","indexed":false,"internalType":"address"},{"name":"amount","type":"uint256","indexed":false,"internalType":"uint256"}],"anonymous":false},{"type":"event","name":"RootValidatorUpdated","inputs":[{"name":"rootValidator","type":"bytes21","indexed":false,"internalType":"ValidationId"}],"anonymous":false},{"type":"event","name":"SelectorSet","inputs":[{"name":"selector","type":"bytes4","indexed":false,"internalType":"bytes4"},{"name":"vId","type":"bytes21","indexed":false,"internalType":"ValidationId"},{"name":"allowed","type":"bool","indexed":false,"internalType":"bool"}],"anonymous":false},{"type":"event","name":"TryExecuteUnsuccessful","inputs":[{"name":"batchExecutionindex","type":"uint256","indexed":false,"internalType":"uint256"},{"name":"result","type":"bytes","indexed":false,"internalType":"bytes"}],"anonymous":false},{"type":"event","name":"Upgraded","inputs":[{"name":"implementation","type":"address","indexed":true,"internalType":"address"}],"anonymous":false},{"type":"event","name":"ValidatorInstalled","inputs":[{"name":"validator","type":"address","indexed":false,"internalType":"contract IValidator"},{"name":"nonce","type":"uint32","indexed":false,"internalType":"uint32"}],"anonymous":false},{"type":"event","name":"ValidatorUninstalled","inputs":[{"name":"validator","type":"address","indexed":false,"internalType":"contract IValidator"}],"anonymous":false},{"type":"error","name":"EnableNotApproved","inputs":[]},{"type":"error","name":"ExecutionReverted","inputs":[]},{"type":"error","name":"InvalidCallType","inputs":[]},{"type":"error","name":"InvalidCaller","inputs":[]},{"type":"error","name":"InvalidExecutor","inputs":[]},{"type":"error","name":"InvalidFallback","inputs":[]},{"type":"error","name":"InvalidMode","inputs":[]},{"type":"error","name":"InvalidModuleType","inputs":[]},{"type":"error","name":"InvalidNonce","inputs":[]},{"type":"error","name":"InvalidSelector","inputs":[]},{"type":"error","name":"InvalidSignature","inputs":[]},{"type":"error","name":"InvalidValidationType","inputs":[]},{"type":"error","name":"InvalidValidator","inputs":[]},{"type":"error","name":"NonceInvalidationError","inputs":[]},{"type":"error","name":"NotSupportedCallType","inputs":[]},{"type":"error","name":"OnlyExecuteUserOp","inputs":[]},{"type":"error","name":"PermissionDataLengthMismatch","inputs":[]},{"type":"error","name":"PermissionNotAlllowedForSignature","inputs":[]},{"type":"error","name":"PermissionNotAlllowedForUserOp","inputs":[]},{"type":"error","name":"PolicyDataTooLarge","inputs":[]},{"type":"error","name":"PolicyFailed","inputs":[{"name":"i","type":"uint256","internalType":"uint256"}]},{"type":"error","name":"PolicySignatureOrderError","inputs":[]},{"type":"error","name":"RootValidatorCannotBeRemoved","inputs":[]},{"type":"error","name":"SignerPrefixNotPresent","inputs":[]}],"bytecode":{"object":"0x610140604052346100ae5761001a61001561017f565b6102a4565b6100226100b3565b61a2c661062582396080518161979e015260a0518161977d015260c05181619873015260e051816198940152610100518161854e015261012051818181610f5c0152818161221b015281816129cb01528181612c410152818161315f01528181613352015281816135e401528181613fe801528181614ccf01528181614f630152615527015261a2c690f35b6100b9565b60405190565b5f80fd5b601f801991011690565b634e487b7160e01b5f52604160045260245ffd5b906100e5906100bd565b810190811060018060401b038211176100fd57604052565b6100c7565b9061011561010e6100b3565b92836100db565b565b5f80fd5b60018060a01b031690565b61012f9061011b565b90565b61013b90610126565b90565b61014781610132565b0361014e57565b5f80fd5b9050519061015f8261013e565b565b9060208282031261017a57610177915f01610152565b90565b610117565b61019d61a8eb8038038061019281610102565b928339810190610161565b90565b905090565b5f63deadbeef60e01b910152565b6101bf600480926101a0565b6101c8816101a5565b0190565b6101d5906101b3565b90565b5190565b60200190565b60018060581b03191690565b6101f890516101e2565b90565b1b90565b61021961021461020e836101d8565b926101dc565b6101ee565b9060158110610227575b5090565b61023f9060018060581b0319906015036008026101fb565b165f610223565b61024f906101e2565b90565b5f1b90565b9061026860018060a81b0391610252565b9181191691161790565b60581c90565b61028190610272565b90565b906102996102946102a092610246565b610278565b8254610257565b9055565b6102ac6102fb565b610120526102f96102ea6102e56102c16100b3565b6102e0816102d1602082016101cc565b602082018103825203826100db565b6101ff565b610246565b5f6102f36104fd565b01610284565b565b610303610305565b565b61030d61030f565b565b610317610319565b565b6103216103b8565b565b90565b61033a61033561033f9261011b565b610323565b61011b565b90565b61034b90610326565b90565b61035790610342565b90565b61036390610326565b90565b90565b61037d6103786103829261011b565b610323565b610366565b90565b606090565b151590565b90565b90565b90565b6103ac6103a76103b192610392565b610252565b610395565b90565b5f90565b6103d16103cc6103c73061034e565b61035a565b610369565b6080524660a0526103e0610385565b6103e8610385565b906103fa6103f4610525565b1561038a565b6104ed575b610407610525565b5f146104cc57506104175f610398565b5b90610421610525565b5f146104ab57506104315f610398565b5b908060c0528160e0526104436103b4565b9161045561044f610525565b1561038a565b610462575b505061010052565b60a09250604051917f8b73c3c69bb8fe3d512ecc4cf759cc79239f7b179b0ffacaa9a75d522b39400f835260208301526040820152466060820152306080820152205f8061045a565b6104b49061038f565b6104c66104c0826101d8565b916101dc565b20610432565b6104d59061038f565b6104e76104e1826101d8565b916101dc565b20610418565b50506104f76105fe565b906103ff565b7f7bcaa2ced2a71450ed5a9a1b4848e8e5206dbc3f06011e595f7f55428cc6f84f90565b5f90565b61052d610521565b90565b60018060401b03811161054c576105486020916100bd565b0190565b6100c7565b9061056361055e83610530565b610102565b918252565b5f7f4b65726e656c0000000000000000000000000000000000000000000000000000910152565b6105996006610551565b906105a660208301610568565b565b6105b061058f565b90565b5f7f302e332e31000000000000000000000000000000000000000000000000000000910152565b6105e46005610551565b906105f1602083016105b3565b565b6105fb6105da565b90565b610606610385565b5061060f610385565b506106186105a8565b906106216105f3565b9056fe6080604052600436101561001d575b366152c35761001b61526c565b005b6100275f356101f6565b8063112d3a7d146101f157806312af322c146101ec578063150b7a02146101e75780631626ba7e146101e257806319822f7c146101dd5780631f1b92e3146101d85780633659cfe6146101d357806357b3a5f4146101ce5780636e6fa0c6146101c9578063721e67f4146101c457806384b0196e146101bf5780638dd7712f146101ba57806390ef8862146101b55780639198bdf5146101b05780639517e29f146101ab5780639cfd7cff146101a6578063a65d69d4146101a1578063a71763a81461019c578063adb610a314610197578063b8afe17d14610192578063bc197c811461018d578063c3e5897814610188578063d03c791414610183578063d691c9641461017e578063e6f3d50a14610179578063e9ae5c5314610174578063f1f7f0f91461016f578063f23a6e611461016a5763f2dc691d0361000e57611763565b611709565b611664565b61160c565b6115df565b611548565b6113ea565b611374565b6111bd565b6110a7565b61100e565b610fe1565b610fac565b610f25565b610ee0565b610eb0565b610c1f565b610bd3565b610b52565b61098b565b6108e0565b61087e565b610759565b610712565b61069c565b6105bb565b610516565b61044e565b610332565b60e01c90565b60405190565b5f80fd5b5f80fd5b5f80fd5b90565b61021a8161020e565b0361022157565b5f80fd5b9050359061023282610211565b565b60018060a01b031690565b61024890610234565b90565b6102548161023f565b0361025b57565b5f80fd5b9050359061026c8261024b565b565b5f80fd5b5f80fd5b5f80fd5b909182601f830112156102b45781359167ffffffffffffffff83116102af5760200192600183028401116102aa57565b610276565b610272565b61026e565b91606083830312610306576102d0825f8501610225565b926102de836020830161025f565b92604082013567ffffffffffffffff8111610301576102fd920161027a565b9091565b61020a565b610206565b151590565b6103199061030b565b9052565b9190610330905f60208501940190610310565b565b34610366576103626103516103483660046102b9565b929190916119df565b6103596101fc565b9182918261031d565b0390f35b610202565b6affffffffffffffffffffff191690565b6103858161036b565b0361038c57565b5f80fd5b9050359061039d8261037c565b565b6103a89061023f565b90565b6103b48161039f565b036103bb57565b5f80fd5b905035906103cc826103ab565b565b9190608083820312610444576103e6815f8501610390565b926103f482602083016103bf565b92604082013567ffffffffffffffff811161043f578361041591840161027a565b929093606082013567ffffffffffffffff811161043a57610436920161027a565b9091565b61020a565b61020a565b610206565b5f0190565b346104835761046d6104613660046103ce565b94939093929192611d16565b6104756101fc565b8061047f81610449565b0390f35b610202565b906080828203126104e35761049f815f840161025f565b926104ad826020850161025f565b926104bb8360408301610225565b92606082013567ffffffffffffffff81116104de576104da920161027a565b9091565b61020a565b610206565b63ffffffff60e01b1690565b6104fd906104e8565b9052565b9190610514905f602085019401906104f4565b565b3461054a5761054661053561052c366004610488565b93929092611e88565b61053d6101fc565b91829182610501565b0390f35b610202565b90565b61055b8161054f565b0361056257565b5f80fd5b9050359061057382610552565b565b9190916040818403126105b65761058e835f8301610566565b92602082013567ffffffffffffffff81116105b1576105ad920161027a565b9091565b61020a565b610206565b346105ec576105e86105d76105d1366004610575565b91612022565b6105df6101fc565b91829182610501565b0390f35b610202565b5f80fd5b90816101209103126106045790565b6105f1565b9091606082840312610656575f82013567ffffffffffffffff8111610651576106378461064e9285016105f5565b936106458160208601610566565b93604001610225565b90565b61020a565b610206565b90565b61067261066d6106779261020e565b61065b565b61020e565b90565b6106839061065e565b9052565b919061069a905f6020850194019061067a565b565b6106c46106b36106ad366004610609565b916127e9565b6106bb6101fc565b91829182610687565b0390f35b63ffffffff1690565b6106da816106c8565b036106e157565b5f80fd5b905035906106f2826106d1565b565b9060208282031261070d5761070a915f016106e5565b90565b610206565b6107256107203660046106f4565b612c10565b61072d6101fc565b8061073781610449565b0390f35b9060208282031261075457610751915f0161025f565b90565b610206565b61076c61076736600461073b565b612eec565b6107746101fc565b8061077e81610449565b0390f35b61078b816104e8565b0361079257565b5f80fd5b905035906107a382610782565b565b906020828203126107be576107bb915f01610796565b90565b610206565b6107d76107d26107dc92610234565b61065b565b610234565b90565b6107e8906107c3565b90565b6107f4906107df565b90565b610800906107eb565b9052565b61080d9061023f565b9052565b60ff60f81b1690565b61082390610811565b90565b61082f9061081a565b9052565b906040806108679361084b5f8201515f8601906107f7565b61085d60208201516020860190610804565b0151910190610826565b565b919061087c905f60608501940190610833565b565b346108ae576108aa6108996108943660046107a5565b612ff8565b6108a16101fc565b91829182610869565b0390f35b610202565b91906040838203126108db57806108cf6108d8925f8601610390565b93602001610796565b90565b610206565b346109115761090d6108fc6108f63660046108b3565b90613015565b6109046101fc565b9182918261031d565b0390f35b610202565b61091f9061023f565b90565b61092b81610916565b0361093257565b5f80fd5b9050359061094382610922565b565b9060208282031261095e5761095b915f01610936565b90565b610206565b905f806109749301519101906107f7565b565b9190610989905f60208501940190610963565b565b346109bb576109b76109a66109a1366004610945565b6130a5565b6109ae6101fc565b91829182610976565b0390f35b610202565b5f9103126109ca57565b610206565b6109d890610811565b9052565b5190565b60209181520190565b90825f9392825e0152565b601f801991011690565b610a1d610a26602093610a2b93610a14816109dc565b938480936109e0565b958691016109e9565b6109f4565b0190565b610a389061020e565b9052565b610a459061023f565b9052565b610a529061054f565b9052565b5190565b60209181520190565b60200190565b610a729061020e565b9052565b90610a8381602093610a69565b0190565b60200190565b90610aaa610aa4610a9d84610a56565b8093610a5a565b92610a63565b905f5b818110610aba5750505090565b909192610ad3610acd6001928651610a76565b94610a87565b9101919091610aad565b93959194610b2e610b23610b4295610b15610b3895610b4f9c9a610b0860e08c01925f8d01906109cf565b8a820360208c01526109fe565b9088820360408a01526109fe565b976060870190610a2f565b6080850190610a3c565b60a0830190610a49565b60c0818403910152610a8d565b90565b34610b8957610b623660046109c0565b610b85610b6d6130f0565b93610b7c9795979391936101fc565b97889788610add565b0390f35b610202565b9190604083820312610bce575f8301359067ffffffffffffffff8211610bc957610bbd81610bc69386016105f5565b93602001610566565b90565b61020a565b610206565b610be7610be1366004610b8e565b906132f6565b610bef6101fc565b80610bf981610449565b0390f35b610c06906106c8565b9052565b9190610c1d905f60208501940190610bfd565b565b34610c4f57610c2f3660046109c0565b610c4b610c3a613306565b610c426101fc565b91829182610c0a565b0390f35b610202565b909182601f83011215610c8e5781359167ffffffffffffffff8311610c89576020019260208302840111610c8457565b610276565b610272565b61026e565b634e487b7160e01b5f52604160045260245ffd5b90610cb1906109f4565b810190811067ffffffffffffffff821117610ccb57604052565b610c93565b90610ce3610cdc6101fc565b9283610ca7565b565b67ffffffffffffffff8111610cfd5760208091020190565b610c93565b5f80fd5b5f80fd5b9190604083820312610d4457610d3d90610d246040610cd0565b93610d31825f83016106e5565b5f8601526020016103bf565b6020830152565b610d02565b90929192610d5e610d5982610ce5565b610cd0565b938185526040602086019202830192818411610d9d57915b838310610d835750505050565b6020604091610d928486610d0a565b815201920191610d76565b610276565b9080601f83011215610dc057816020610dbd93359101610d49565b90565b61026e565b909182601f83011215610dff5781359167ffffffffffffffff8311610dfa576020019260208302840111610df557565b610276565b610272565b61026e565b91608083830312610eab575f83013567ffffffffffffffff8111610ea65782610e2e918501610c54565b929093602081013567ffffffffffffffff8111610ea15782610e51918301610da2565b92604082013567ffffffffffffffff8111610e9c5783610e72918401610dc5565b929093606082013567ffffffffffffffff8111610e9757610e939201610dc5565b9091565b61020a565b61020a565b61020a565b61020a565b610206565b610eca610ebe366004610e04565b959490949391936135ac565b610ed26101fc565b80610edc81610449565b0390f35b610ef7610eee3660046102b9565b92919091613f1a565b610eff6101fc565b80610f0981610449565b0390f35b610f229160208201915f8184039101526109fe565b90565b34610f5557610f353660046109c0565b610f51610f40613fad565b610f486101fc565b91829182610f0d565b0390f35b610202565b7f000000000000000000000000000000000000000000000000000000000000000090565b610f87906107df565b90565b610f9390610f7e565b9052565b9190610faa905f60208501940190610f8a565b565b34610fdc57610fbc3660046109c0565b610fd8610fc7610f5a565b610fcf6101fc565b91829182610f97565b0390f35b610202565b610ff8610fef3660046102b9565b929190916146ab565b6110006101fc565b8061100a81610449565b0390f35b3461103e5761101e3660046109c0565b61103a6110296146b9565b6110316101fc565b91829182610c0a565b0390f35b610202565b9060208282031261105c57611059915f01610390565b90565b610206565b61106a906106c8565b9052565b90602080611090936110865f8201515f860190611061565b01519101906107f7565b565b91906110a5905f6040850194019061106e565b565b346110d7576110d36110c26110bd366004611043565b61470c565b6110ca6101fc565b91829182611092565b0390f35b610202565b909182601f830112156111165781359167ffffffffffffffff831161111157602001926020830284011161110c57565b610276565b610272565b61026e565b9160a0838303126111b857611132825f850161025f565b92611140836020830161025f565b92604082013567ffffffffffffffff81116111b357816111619184016110dc565b929093606082013567ffffffffffffffff81116111ae57836111849184016110dc565b929093608082013567ffffffffffffffff81116111a9576111a5920161027a565b9091565b61020a565b61020a565b61020a565b610206565b346111f7576111f36111e26111d336600461111b565b96959095949194939293614734565b6111ea6101fc565b91829182610501565b0390f35b610202565b611205816104e8565b0361120c57565b5f80fd5b9050359061121d826111fc565b565b9060208282031261123857611235915f01611210565b90565b610206565b61ffff60f01b1690565b6112509061123d565b90565b61125c90611247565b9052565b611269906107df565b90565b61127590611260565b9052565b5190565b60209181520190565b60200190565b69ffffffffffffffffffff191690565b6112a59061128c565b90565b6112b19061129c565b9052565b906112c2816020936112a8565b0190565b60200190565b906112e96112e36112dc84611279565b809361127d565b92611286565b905f5b8181106112f95750505090565b90919261131261130c60019286516112b5565b946112c6565b91019190916112ec565b61135991604060608201926113375f8201515f850190611253565b6113496020820151602085019061126c565b01519060408184039101526112cc565b90565b6113719160208201915f81840391015261131c565b90565b346113a4576113a061138f61138a36600461121f565b614931565b6113976101fc565b9182918261135c565b0390f35b610202565b6113b28161054f565b036113b957565b5f80fd5b905035906113ca826113a9565b565b906020828203126113e5576113e2915f016113bd565b90565b610206565b3461141a576114166114056114003660046113cc565b614a2f565b61140d6101fc565b9182918261031d565b0390f35b610202565b91909160408184031261146057611438835f83016113bd565b92602082013567ffffffffffffffff811161145b57611457920161027a565b9091565b61020a565b610206565b5190565b60209181520190565b60200190565b5190565b60209181520190565b6114a46114ad6020936114b29361149b81611478565b9384809361147c565b958691016109e9565b6109f4565b0190565b906114c091611485565b90565b60200190565b906114dd6114d683611465565b8092611469565b90816114ee60208302840194611472565b925f915b83831061150157505050505090565b9091929394602061152361151d838560019503875289516114b6565b976114c3565b93019301919392906114f2565b6115459160208201915f8184039101526114c9565b90565b61157061155f61155936600461141f565b91614b9a565b6115676101fc565b91829182611530565b0390f35b6060818303126115da5761158a825f8301610390565b92602082013567ffffffffffffffff81116115d557836115ab91840161027a565b929093604082013567ffffffffffffffff81116115d0576115cc920161027a565b9091565b61020a565b61020a565b610206565b6115f66115ed366004611574565b93929092614f2c565b6115fe6101fc565b8061160881610449565b0390f35b61162061161a36600461141f565b916151b0565b6116286101fc565b8061163281610449565b0390f35b61163f9061036b565b90565b61164b90611636565b9052565b9190611662905f60208501940190611642565b565b34611694576116743660046109c0565b61169061167f6151c1565b6116876101fc565b9182918261164f565b0390f35b610202565b91909160a081840312611704576116b2835f830161025f565b926116c0816020840161025f565b926116ce8260408501610225565b926116dc8360608301610225565b92608082013567ffffffffffffffff81116116ff576116fb920161027a565b9091565b61020a565b610206565b346117405761173c61172b61171f366004611699565b949390939291926151df565b6117336101fc565b91829182610501565b0390f35b610202565b9060208282031261175e5761175b915f01610225565b90565b610206565b346117935761178f61177e611779366004611745565b61521d565b6117866101fc565b9182918261031d565b0390f35b610202565b5f90565b90565b6117b36117ae6117b89261179c565b61065b565b61020e565b90565b6117c5600161179f565b90565b90565b6117df6117da6117e4926117c8565b61065b565b61020e565b90565b6117f160026117cb565b90565b90565b61180b611806611810926117f4565b61065b565b61020e565b90565b61181d60036117f7565b90565b90565b61183761183261183c92611820565b61065b565b61020e565b90565b90565b61185661185161185b9261183f565b61065b565b61020e565b90565b5f80fd5b5f80fd5b90939293848311611886578411611881576001820201920390565b611862565b61185e565b5090565b1b90565b906118a16118a8918361188b565b91356104e8565b90600481106118b6575b5090565b6118ce9063ffffffff60e01b9060040360080261188f565b165f6118b2565b5f1c90565b60018060a01b031690565b6118f16118f6916118d5565b6118da565b90565b61190390546118e5565b90565b61190f906107c3565b90565b61191b90611906565b90565b60018060a01b031690565b61193561193a916118d5565b61191e565b90565b6119479054611929565b90565b61195e61195961196392611820565b61065b565b610234565b90565b61196f9061194a565b90565b61197b906107c3565b90565b61198790611972565b90565b9061199490611636565b5f5260205260405f2090565b60201c90565b6119b26119b7916119a0565b61191e565b90565b6119c490546119a6565b90565b6119d0906107c3565b90565b6119dc906119c7565b90565b9290926119ea611798565b5080611a056119ff6119fa6117bb565b61020e565b9161020e565b145f14611a66575050505f611a39611a3f92611a33611a2e6001611a27615670565b019261197e565b615694565b9061198a565b016119ba565b611a61611a5b611a56611a515f611966565b6119d3565b61039f565b9161039f565b141590565b80611a80611a7a611a756117e7565b61020e565b9161020e565b145f14611acc57505050611aa85f611aa2611a9d611aad94611912565b615652565b0161193d565b6107eb565b611ac7611ac1611abc5f611966565b61023f565b9161023f565b141590565b611ae5611adf611ada611813565b61020e565b9161020e565b145f14611b4057611b306001611b2a611b25611b1f611b3695611b3c97905f90611b19611b13600493611823565b92611842565b92611866565b90611893565b6155c4565b016118f9565b9261023f565b9161023f565b1490565b5050505f90565b60581b90565b611b5690611b47565b90565b611b65611b6a916118d5565b611b4d565b90565b611b779054611b59565b90565b611b8e611b89611b9392611820565b611b47565b61036b565b90565b5f7f616c726561647920696e697469616c697a656400000000000000000000000000910152565b611bca60136020926109e0565b611bd381611b96565b0190565b611bec9060208101905f818303910152611bbd565b90565b15611bf657565b611bfe6101fc565b62461bcd60e51b815280611c1460048201611bd7565b0390fd5b60f81b90565b611c32611c2d611c379261179c565b611c18565b610811565b90565b611c446001611c1e565b90565b611c5b611c56611c60926117c8565b611c18565b610811565b90565b611c6d6002611c47565b90565b611c84611c7f611c899261179c565b61065b565b6106c8565b90565b611c966040610cd0565b90565b90611ca3906106c8565b9052565b90611cb19061039f565b9052565b60a81b90565b90611ccd63ffffffff60a81b91611cb5565b9181191691161790565b611ceb611ce6611cf0926106c8565b61065b565b6106c8565b90565b90565b90611d0b611d06611d1292611cd7565b611cf3565b8254611cbb565b9055565b939194929094611d24615670565b94611d5b611d3b611d365f8901611b6d565b611636565b611d55611d4f611d4a5f611b7a565b61036b565b9161036b565b14611bef565b611d6481611636565b611d7e611d78611d735f611b7a565b61036b565b9161036b565b14611e3a57611d8c816156ae565b611d9e81611d98611c3a565b906156ba565b9081611e21575b50611e0557611df8611e0397611dba83615738565b611de5611dc76001611c70565b91611ddc611dd3611c8c565b935f8501611c99565b60208301611ca7565b965f611df16001611c70565b9101611cf6565b949091929394615820565b565b5f6361c4e91b60e11b815280611e1d60048201610449565b0390fd5b611e349150611e2e611c63565b906156ba565b5f611da5565b5f631a0a9b9f60e21b815280611e5260048201610449565b0390fd5b5f90565b611e63906107df565b90565b60e01b90565b611e80611e7b611e85926106c8565b611e66565b6104e8565b90565b5050505050611e95611e56565b50611ea363150b7a02611e6c565b90565b611eba611eb5611ebf92611820565b611c18565b610811565b90565b611ecb5f611ea6565b90565b611ed7906104e8565b90565b90611ee490611ece565b5f5260205260405f2090565b60f01b90565b611eff90611ef0565b90565b611f0e611f13916118d5565b611ef6565b90565b611f209054611f02565b90565b611f37611f32611f3c926117c8565b611ef0565b61123d565b90565b611f496002611f23565b90565b611f60611f5b611f6592611820565b611ef0565b61123d565b90565b611f71906107df565b90565b5f80fd5b90505190611f8582610782565b565b90602082820312611fa057611f9d915f01611f78565b90565b610206565b60209181520190565b90825f939282370152565b9190611fd381611fcc81611fd895611fa5565b8095611fae565b6109f4565b0190565b61200261200f9593949294611ff860608401965f850190610a3c565b6020830190610a49565b6040818503910152611fb9565b90565b61201a6101fc565b3d5f823e3d90fd5b909161203f90612030611e56565b50612039615670565b93615ae0565b939190939161205e612050836156ae565b612058611ec2565b90615b4a565b6121f5575b61208361207e5f61207860018501869061198a565b016119ba565b6107eb565b61209d6120976120925f611966565b61023f565b9161023f565b146121d9576120bc6120ae836156ae565b6120b6611c3a565b90615b4a565b5f146121585750906121046120db6120d660209594615d72565b611f68565b9161210f63f551e2ee916120ef3396615df5565b976120f86101fc565b98899788968796611e66565b865260048601611fdc565b03915afa908115612153575f91612125575b5090565b612146915060203d811161214c575b61213e8183610ca7565b810190611f87565b5f612121565b503d612134565b612012565b939061217e5f612178600361216f61218395615b7e565b98018890611eda565b01611f16565b611247565b61219361218e611f3f565b611247565b166121a66121a05f611f4c565b9161123d565b036121bd576121ba93923390919293615c33565b90565b5f635b71057960e01b8152806121d560048201610449565b0390fd5b5f631a0a9b9f60e21b8152806121f160048201610449565b0390fd5b90506122025f8201611b6d565b90612063565b5f90565b9291903361224a61224461223f7f0000000000000000000000000000000000000000000000000000000000000000610f7e565b61023f565b9161023f565b0361225b576122589361249e565b90565b5f6348f5c3ed60e01b81528061227360048201610449565b0390fd5b3561228181610211565b90565b63ffffffff1690565b61229961229e916118d5565b612284565b90565b6122ab905461228d565b90565b6122b86040610cd0565b90565b906122f16122e85f6122cb6122ae565b946122e26122da8383016122a1565b838801611c99565b016119ba565b60208401611ca7565b565b6122fc906122bb565b90565b61230990516106c8565b90565b60c81c90565b61231e6123239161230c565b612284565b90565b6123309054612312565b90565b61233d905161039f565b90565b6123499061054f565b90565b9061235690612340565b5f5260205260405f2090565b5f1b90565b9061237860018060a01b0391612362565b9181191691161790565b61238b906119c7565b90565b90565b906123a66123a16123ad92612382565b61238e565b8254612367565b9055565b6123c56123c06123ca9261179c565b61065b565b610234565b90565b6123d6906123b1565b90565b906123e390611636565b5f5260205260405f2090565b5f80fd5b5f80fd5b5f80fd5b90359060016020038136030382121561243d570180359067ffffffffffffffff82116124385760200191600182023603831361243357565b6123f7565b6123f3565b6123ef565b90565b61245961245461245e92612442565b61065b565b61020e565b90565b9061246b90611ece565b5f5260205260405f2090565b60ff1690565b61248961248e916118d5565b612477565b90565b61249b905461247d565b90565b93929193506124ab615670565b906124c06124bb60208301612277565b615e52565b916124d3826124cd611ec2565b90615b4a565b6127d1575b6124e6908385908a9261616c565b966124fd6124f860018701859061198a565b6122f3565b61250f83612509611ec2565b906156ba565b806127a3575b6127875760206125259101612333565b61252e816107eb565b61254861254261253d5f611966565b61023f565b9161023f565b1461276b576125646125699261255f83915f61234c565b612391565b6107eb565b61258461257e61257960016123cd565b61023f565b9161023f565b145f1461264b5761259d90612597611ec2565b906156ba565b92836125e3575b5050506125c757805b6125b5575b50565b3490349034903490335af1505f6125b2565b5f631a0a9b9f60e21b8152806125df60048201610449565b0390fd5b61264393509161263261262c61261061260561263895600261263d98016123d9565b9360608101906123fb565b5f90612626612620600493611823565b92611842565b92611866565b90611893565b90612461565b612491565b1561030b565b5f80806125a4565b6126609093929361265a611ec2565b906156ba565b9182612704575b50506126e85761269d6126816126a39260608101906123fb565b5f90612697612691600493611823565b92611842565b92611866565b90611893565b6126c16126bb6126b6638dd7712f611e6c565b6104e8565b916104e8565b036126cc57806125ad565b5f63dbbb044b60e01b8152806126e460048201610449565b0390fd5b5f631a0a9b9f60e21b81528061270060048201610449565b0390fd5b612764925061271c61275e92600261275993016123d9565b61275361274d6127308760608101906123fb565b600490612747612741600893611842565b92612445565b92611866565b90611893565b90612461565b612491565b1561030b565b5f80612667565b5f631a0a9b9f60e21b81528061278360048201610449565b0390fd5b5f633ab3447f60e11b81528061279f60048201610449565b0390fd5b506127af5f82016122ff565b6127cb6127c56127c05f8a01612326565b6106c8565b916106c8565b10612515565b91506124e66127e15f8601611b6d565b9290506124d8565b906127fc92916127f7612208565b61220c565b90565b6128088161030b565b0361280f57565b5f80fd5b90505190612820826127ff565b565b9060208282031261283b57612838915f01612813565b90565b610206565b61284990611842565b9052565b9190612860905f60208501940190612840565b565b5f80fd5b67ffffffffffffffff8111612884576128806020916109f4565b0190565b610c93565b9092919261289e61289982612866565b610cd0565b938185526020850190828401116128ba576128b8926109e9565b565b612862565b9080601f830112156128dd578160206128da93519101612889565b90565b61026e565b90602082820312612912575f82015167ffffffffffffffff811161290d5761290a92016128bf565b90565b61020a565b610206565b61293d61294a959394929461293360608401965f850190610a3c565b6020830190610a2f565b6040818503910152611fb9565b90565b5f91031261295757565b610206565b61297b6129846020936129899361297281611478565b93848093611fa5565b958691016109e9565b6109f4565b0190565b6129a29160208201915f81840391015261295c565b90565b6129bf6129ba5f6129b4615670565b01611b6d565b615d72565b336129fa6129f46129ef7f0000000000000000000000000000000000000000000000000000000000000000610f7e565b61023f565b9161023f565b141580612be2575b5f14612bd357612a416020612a1683611f68565b63ecd0596190612a36600492612a2a6101fc565b95869485938493611e66565b83526004830161284d565b03915afa908115612bce575f91612ba0575b505f14612b8457612a73612a6e612a6983611f68565b6119d3565b6107eb565b5f63d68f6025913390612a9c833495612aa7823690612a906101fc565b998a9889978896611e66565b865260048601612917565b03925af18015612b7f57612add92612ace612ad392612ad8945f91612b5d575b5095612c05565b611f68565b6119d3565b6107eb565b9063173bf7da90823b15612b5857612b1492612b095f8094612afd6101fc565b96879586948593611e66565b83526004830161298d565b03925af18015612b5357612b27575b505b565b612b46905f3d8111612b4c575b612b3e8183610ca7565b81019061294d565b5f612b23565b503d612b34565b612012565b611f74565b612b7991503d805f833e612b718183610ca7565b8101906128e2565b5f612ac7565b612012565b5f6348f5c3ed60e01b815280612b9c60048201610449565b0390fd5b612bc1915060203d8111612bc7575b612bb98183610ca7565b810190612822565b5f612a53565b503d612baf565b612012565b50612bdd90612c05565b612b25565b5033612bfe612bf8612bf330611e5a565b61023f565b9161023f565b1415612a02565b612c0e90616491565b565b612c19906129a5565b565b612c35612c305f612c2a615670565b01611b6d565b615d72565b33612c70612c6a612c657f0000000000000000000000000000000000000000000000000000000000000000610f7e565b61023f565b9161023f565b141580612e58575b5f14612e4957612cb76020612c8c83611f68565b63ecd0596190612cac600492612ca06101fc565b95869485938493611e66565b83526004830161284d565b03915afa908115612e44575f91612e16575b505f14612dfa57612ce9612ce4612cdf83611f68565b6119d3565b6107eb565b5f63d68f6025913390612d12833495612d1d823690612d066101fc565b998a9889978896611e66565b865260048601612917565b03925af18015612df557612d5392612d44612d4992612d4e945f91612dd3575b5095612e87565b611f68565b6119d3565b6107eb565b9063173bf7da90823b15612dce57612d8a92612d7f5f8094612d736101fc565b96879586948593611e66565b83526004830161298d565b03925af18015612dc957612d9d575b505b565b612dbc905f3d8111612dc2575b612db48183610ca7565b81019061294d565b5f612d99565b503d612daa565b612012565b611f74565b612def91503d805f833e612de78183610ca7565b8101906128e2565b5f612d3d565b612012565b5f6348f5c3ed60e01b815280612e1260048201610449565b0390fd5b612e37915060203d8111612e3d575b612e2f8183610ca7565b810190612822565b5f612cc9565b503d612e25565b612012565b50612e5390612e87565b612d9b565b5033612e74612e6e612e6930611e5a565b61023f565b9161023f565b1415612c78565b612e84906107df565b90565b807f360894a13ba1a3210667c828492db98dca3e2076cc3735a920a3ca505d382bbc55612ed47fbc7cd75a20ee27fd9adebab32041f755214dbc6bffa90cc0225b39da2e5c2d3b91612e7b565b90612edd6101fc565b80612ee781610449565b0390a2565b612ef590612c1b565b565b612f016060610cd0565b90565b5f90565b5f90565b5f90565b612f18612ef7565b906020808084612f26612f04565b815201612f31612f08565b815201612f3c612f0c565b81525050565b612f4a612f10565b90565b90612f579061023f565b9052565b60a01c90565b612f6a90611c18565b90565b612f79612f7e91612f5b565b612f61565b90565b612f8b9054612f6d565b90565b90612f9890610811565b9052565b90612fea612fe16001612fad612ef7565b94612fc4612fbc5f830161193d565b5f8801611ca7565b612fdb612fd28383016118f9565b60208801612f4d565b01612f81565b60408401612f8e565b565b612ff590612f9c565b90565b61300d61301291613007612f42565b506155c4565b612fec565b90565b6130439161303961303e92613028611798565b506002613033615670565b016123d9565b612461565b612491565b90565b6130506020610cd0565b90565b61305b613046565b90602082613067612f04565b81525050565b613075613053565b90565b9061309761308f5f613088613046565b940161193d565b5f8401611ca7565b565b6130a290613078565b90565b6130ba6130bf916130b461306d565b50615652565b613099565b90565b5f90565b606090565b5f90565b5f90565b5f90565b606090565b600f60f81b90565b6130ed906107df565b90565b6130f86130c2565b506131016130c6565b5061310a6130c6565b506131136130cb565b5061311c6130cf565b506131256130d3565b61312d6130d7565b906131366130dc565b9261313f616617565b929093469261314d306130e4565b929190565b903361318e6131886131837f0000000000000000000000000000000000000000000000000000000000000000610f7e565b61023f565b9161023f565b0361319e5761319c916131c2565b565b5f6348f5c3ed60e01b8152806131b660048201610449565b0390fd5b606090565b91565b906131dd6131d86131d16131ba565b925f61234c565b61193d565b916131e7836107eb565b6132026131fc6131f760016123cd565b61023f565b9161023f565b036132af575b6132479061324161323b61322961321e30611e5a565b9360608101906123fb565b6132336004611842565b908092611866565b906131bf565b916166bf565b5091613252816107eb565b61326d61326761326260016123cd565b61023f565b9161023f565b14155f146132825761327f92506166f3565b5b565b505061328e901561030b565b15613280575f63f21e646b60e01b8152806132ab60048201610449565b0390fd5b90506132476132ee8334906132e66132e06132ce8760608101906123fb565b6132d86004611842565b908092611866565b906131bf565b92909161663d565b919050613208565b9061330091613152565b565b5f90565b61330e613302565b506133215f61331b615670565b01612326565b90565b959491949390936133456133405f61333a615670565b01611b6d565b615d72565b923361338161337b6133767f0000000000000000000000000000000000000000000000000000000000000000610f7e565b61023f565b9161023f565b141580613572575b5f1461355d576133c8602061339d86611f68565b63ecd05961906133bd6004926133b16101fc565b95869485938493611e66565b83526004830161284d565b03915afa908115613558575f9161352a575b505f1461350e576133fa6133f56133f086611f68565b6119d3565b6107eb565b925f63d68f602594339061342483349861342f8236906134186101fc565b9c8d9889978896611e66565b865260048601612917565b03925af195861561350957613467986134629861345d98613458975f916134e7575b509b613595565b611f68565b6119d3565b6107eb565b9063173bf7da90823b156134e25761349e926134935f80946134876101fc565b96879586948593611e66565b83526004830161298d565b03925af180156134dd576134b1575b505b565b6134d0905f3d81116134d6575b6134c88183610ca7565b81019061294d565b5f6134ad565b503d6134be565b612012565b611f74565b61350391503d805f833e6134fb8183610ca7565b8101906128e2565b5f613451565b612012565b5f6348f5c3ed60e01b81528061352660048201610449565b0390fd5b61354b915060203d8111613551575b6135438183610ca7565b810190612822565b5f6133da565b503d613539565b612012565b9490959193925061356d96613595565b6134af565b503361358e61358861358330611e5a565b61023f565b9161023f565b1415613389565b916135aa969492959391909192939495616808565b565b906135bb969594939291613324565b565b926135d86135d35f6135cd615670565b01611b6d565b615d72565b3361361361360d6136087f0000000000000000000000000000000000000000000000000000000000000000610f7e565b61023f565b9161023f565b1415806137ff575b5f146137ee5761365a602061362f83611f68565b63ecd059619061364f6004926136436101fc565b95869485938493611e66565b83526004830161284d565b03915afa9081156137e9575f916137bb575b505f1461379f5761368c61368761368283611f68565b6119d3565b6107eb565b5f63d68f60259133906136b58334956136c08236906136a96101fc565b998a9889978896611e66565b865260048601612917565b03925af192831561379a576136f8956136f3956136ee956136e9945f91613778575b50986139c8565b611f68565b6119d3565b6107eb565b9063173bf7da90823b156137735761372f926137245f80946137186101fc565b96879586948593611e66565b83526004830161298d565b03925af1801561376e57613742575b505b565b613761905f3d8111613767575b6137598183610ca7565b81019061294d565b5f61373e565b503d61374f565b612012565b611f74565b61379491503d805f833e61378c8183610ca7565b8101906128e2565b5f6136e2565b612012565b5f6348f5c3ed60e01b8152806137b760048201610449565b0390fd5b6137dc915060203d81116137e2575b6137d48183610ca7565b810190612822565b5f61366c565b503d6137ca565b612012565b5091906137fa936139c8565b613740565b503361381b61381561381030611e5a565b61023f565b9161023f565b141561361b565b61382c6004611842565b90565b90565b61384661384161384b9261382f565b61065b565b61020e565b90565b6138586005613832565b90565b90565b61387261386d6138779261385b565b61065b565b61020e565b90565b613884600661385e565b90565b613890906107c3565b90565b61389c90613887565b90565b90916138b69260208301925f818503910152611fb9565b90565b6138c2906107c3565b90565b6138ce906138b9565b90565b6138da906107df565b90565b36905f90565b90565b6138fa6138f56138ff926138e3565b61065b565b61020e565b90565b6bffffffffffffffffffffffff191690565b90613922613929918361188b565b9135613902565b9060148110613937575b5090565b613955906bffffffffffffffffffffffff199060140360080261188f565b165f613933565b60601c90565b61396e6139739161395c565b6107c3565b90565b61397f90613962565b90565b90565b61399961399461399e92613982565b61065b565b61020e565b90565b60a81c90565b6139b36139b8916139a1565b612284565b90565b6139c590546139a7565b90565b806139e26139dc6139d76117bb565b61020e565b9161020e565b145f14613b065750613af5613afb91613b0394613a74613a57613a52613a4d613a47613a285f613a21613a1c613a16615670565b9a61197e565b615694565b98016139bb565b958a905f90613a41613a3b601493611823565b92613985565b92611866565b90613914565b613976565b6119d3565b613a6b613a62611c8c565b935f8501611c99565b60208301611ca7565b90613a7d6138dd565b905050613a886138dd565b905050613a936138dd565b905050613ad7601486013560348701019260208403359660348101356034820101602081033591603460548201359101019860208a03359686949091929394615820565b93905f90613aef613ae9600493611823565b92611842565b92611866565b90611893565b600191616f06565b5b565b92919083613b23613b1d613b186117e7565b61020e565b9161020e565b145f14613bc057613bba9350613b376138dd565b905050613b426138dd565b905050613bb2601483013560348401016020810335613baa613ba4613b9f613b9a613b9460348a013560348b01019a60208c03359a905f90613b8e613b88601493611823565b92613985565b92611866565b90613914565b613976565b6119d3565b94611912565b918492616daa565b919091616b29565b5b613b04565b919280613bdc613bd6613bd1611813565b61020e565b9161020e565b145f14613cd95750613ccb613cc6613cc1613cbb613cd396613bfc6138dd565b905050613c076138dd565b9050506018860135603887010195613c9d602088033598603883013560388401019960208b033599613c59613c5386885f90613c4d613c47600493611823565b92611842565b92611866565b90611893565b92613c95613c90613c8b613c85898b600490613c7f613c79601893611842565b926138e6565b92611866565b90613914565b613976565b6119d3565b919293616961565b90600490613cb5613caf601893611842565b926138e6565b92611866565b90613914565b613976565b6119d3565b919091616b29565b5b613bbb565b80929192613cf6613cf0613ceb613822565b61020e565b9161020e565b145f14613d935750613d0a613d0f916119d3565b6107eb565b91636d61fe70919092803b15613d8e57613d3c5f8094613d47613d306101fc565b97889687958694611e66565b84526004840161389f565b03925af18015613d8957613d5d575b505b613cd4565b613d7c905f3d8111613d82575b613d748183610ca7565b81019061294d565b5f613d56565b503d613d6a565b612012565b611f74565b80613dad613da7613da261384e565b61020e565b9161020e565b145f14613e4a5750613dc1613dc6916138c5565b6138d1565b91636d61fe70919092803b15613e4557613df35f8094613dfe613de76101fc565b97889687958694611e66565b84526004840161389f565b03925af18015613e4057613e14575b505b613d58565b613e33905f3d8111613e39575b613e2b8183610ca7565b81019061294d565b5f613e0d565b503d613e21565b612012565b611f74565b613e63613e5d613e5861387a565b61020e565b9161020e565b145f14613efe57613e76613e7b91613893565b611260565b91636d61fe70919092803b15613ef957613ea85f8094613eb3613e9c6101fc565b97889687958694611e66565b84526004840161389f565b03925af18015613ef457613ec8575b50613e0f565b613ee7905f3d8111613eed575b613edf8183610ca7565b81019061294d565b5f613ec2565b503d613ed5565b612012565b611f74565b5f631092ef5760e11b815280613f1660048201610449565b0390fd5b90613f269392916135bd565b565b67ffffffffffffffff8111613f4657613f426020916109f4565b0190565b610c93565b90613f5d613f5883613f28565b610cd0565b918252565b5f7f6b65726e656c2e616476616e6365642e76302e332e3100000000000000000000910152565b613f936016613f4b565b90613fa060208301613f62565b565b613faa613f89565b90565b613fb56130c6565b50613fbe613fa2565b90565b92613fdc613fd75f613fd1615670565b01611b6d565b615d72565b3361401761401161400c7f0000000000000000000000000000000000000000000000000000000000000000610f7e565b61023f565b9161023f565b141580614203575b5f146141f25761405e602061403383611f68565b63ecd05961906140536004926140476101fc565b95869485938493611e66565b83526004830161284d565b03915afa9081156141ed575f916141bf575b505f146141a35761409061408b61408683611f68565b6119d3565b6107eb565b5f63d68f60259133906140b98334956140c48236906140ad6101fc565b998a9889978896611e66565b865260048601612917565b03925af192831561419e576140fc956140f7956140f2956140ed945f9161417c575b5098614317565b611f68565b6119d3565b6107eb565b9063173bf7da90823b1561417757614133926141285f809461411c6101fc565b96879586948593611e66565b83526004830161298d565b03925af1801561417257614146575b505b565b614165905f3d811161416b575b61415d8183610ca7565b81019061294d565b5f614142565b503d614153565b612012565b611f74565b61419891503d805f833e6141908183610ca7565b8101906128e2565b5f6140e6565b612012565b5f6348f5c3ed60e01b8152806141bb60048201610449565b0390fd5b6141e0915060203d81116141e6575b6141d88183610ca7565b810190612822565b5f614070565b503d6141ce565b612012565b5091906141fe93614317565b614144565b503361421f61421961421430611e5a565b61023f565b9161023f565b141561401f565b90565b61423d61423861424292614226565b61065b565b61020e565b90565b9061425361425a918361188b565b913561054f565b9060208110614268575b5090565b61427a905f199060200360080261188f565b165f614264565b61428a906104e8565b90565b909291926142a261429d82612866565b610cd0565b938185526020850190828401116142be576142bc92611fae565b565b612862565b6142ce91369161428d565b90565b60201b90565b906142ed640100000000600160c01b03916142d1565b9181191691161790565b9061430c61430761431392612382565b61238e565b82546142d7565b9055565b8061432b614325600161179f565b9161020e565b145f146143545750916143486143436143509461197e565b615694565b91909161714a565b505b565b8061436861436260026117cb565b9161020e565b145f1461438c57509161437d61438593611912565b9190916170ee565b505b614352565b806143a061439a60036117f7565b9161020e565b145f146144045750506143f76143f16143fd936143dd6143d785835f906143d16143cb600493611823565b92611842565b92611866565b90611893565b93906143e96004611842565b908092611866565b906131bf565b9161705b565b505b614387565b806144186144126004611842565b9161020e565b145f146144c45750614486926144809161443a5f614434615670565b01611b6d565b6144595f614453600161444b615670565b01849061198a565b016119ba565b61447361446d614468856119d3565b61039f565b9161039f565b1461448d575b50926142c3565b90616fb5565b505b6143ff565b6144be905f6144b86144a76144a260016123cd565b6119d3565b9260016144b2615670565b0161198a565b016142f7565b5f614479565b806144d86144d26005613832565b9161020e565b145f146145ab57506144f25f6144ec615670565b01611b6d565b61451c61451684865f9061451061450a602093611823565b92614229565b92611866565b90614245565b614536614528836156ae565b614530611c63565b90615b4a565b614558575b50506145519261454b91926142c3565b90616fb5565b505b614488565b61457d61457861457361456e6145839495615b7e565b611ece565b614281565b61054f565b9161054f565b1461458f575f8061453b565b5f6313002bdd60e31b8152806145a760048201610449565b0390fd5b6145be6145b8600661385e565b9161020e565b145f1461468f576145d75f6145d1615670565b01611b6d565b6146016145fb84865f906145f56145ef602093611823565b92614229565b92611866565b90614245565b61461b61460d836156ae565b614615611c63565b90615b4a565b61463c575b50506146369261463091926142c3565b90616fb5565b50614553565b61466161465c6146576146526146679495615b7e565b611ece565b614281565b61054f565b9161054f565b14614673575f80614620565b5f6313002bdd60e31b81528061468b60048201610449565b0390fd5b5f631092ef5760e11b8152806146a760048201610449565b0390fd5b906146b7939291613fc1565b565b6146c1613302565b506146d45f6146ce615670565b016139bb565b90565b5f90565b6146e36122ae565b90602080836146f06146d7565b8152016146fb612f04565b81525050565b6147096146db565b90565b61472c6147319161471b614701565b506001614726615670565b0161198a565b6122f3565b90565b5050505050505050614744611e56565b5061475263bc197c81611e6c565b90565b61475f6060610cd0565b90565b5f90565b5f90565b606090565b614777614755565b906020808084614785614762565b815201614790614766565b81520161479b61476a565b81525050565b6147a961476f565b90565b906147b69061123d565b9052565b60101c90565b60018060a01b031690565b6147d76147dc916147ba565b6147c0565b90565b6147e990546147cb565b90565b6147f59061023f565b90565b90614802906147ec565b9052565b5490565b5f5260205f2090565b60501b90565b61482290614813565b90565b614831614836916118d5565b614819565b90565b6148439054614825565b90565b60010190565b9061486961486361485c84614806565b809361127d565b9261480a565b905f5b8181106148795750505090565b90919261489961489360019261488e87614839565b6112b5565b94614846565b910191909161486c565b906148ad9161484c565b90565b906148d06148c9926148c06101fc565b938480926148a3565b0383610ca7565b565b52565b9061492361491a60016148e6614755565b946148fd6148f55f8301611f16565b5f88016147ac565b61491461490b5f83016147df565b602088016147f8565b016148b0565b604084016148d2565b565b61492e906148d5565b90565b614951614956916149406147a1565b50600361494b615670565b01611eda565b614925565b90565b6149636001611c1e565b90565b61496f5f611ea6565b90565b90565b61498961498461498e92614972565b611c18565b610811565b90565b61499b60ff614975565b90565b90565b6149b56149b06149ba9261499e565b611c18565b610811565b90565b6149c760fe6149a1565b90565b6149d46001611c1e565b90565b6149e05f611ea6565b90565b6149f76149f26149fc92611820565b611e66565b6104e8565b90565b614a10614a0b5f6149e3565b611ece565b90565b614a27614a22614a2c92611820565b614813565b61128c565b90565b614a4190614a3b611798565b5061727e565b91909192614a5781614a51614959565b906172b4565b80614b7d575b80614b65575b9081614b4c575b50614b4557614a788161081a565b614a99614a93614a8e614a896149ca565b61081a565b610811565b91610811565b14159081614b12575b50614b0c57614ab090611ece565b614ad1614acb614ac6614ac16149ff565b611ece565b6104e8565b916104e8565b03614b0757614adf9061129c565b614af9614af3614aee5f614a13565b61128c565b9161128c565b03614b0357600190565b5f90565b505f90565b50505f90565b614b1c915061081a565b614b3d614b37614b32614b2d6149d7565b61081a565b610811565b91610811565b14155f614aa2565b5050505f90565b614b5f9150614b596149bd565b906172b4565b5f614a6a565b50614b7881614b72614991565b906172b4565b614a63565b50614b9081614b8a614966565b906172b4565b614a5d565b606090565b929190614ba5614b95565b50614bc15f614bbb614bb633611912565b615652565b0161193d565b91614bcb836107eb565b614be5614bdf614bda5f611966565b61023f565b9161023f565b14614c8757614bf26131ba565b94614bfc846107eb565b614c17614c11614c0c60016123cd565b61023f565b9161023f565b03614c68575b90614c2992909161746d565b92614c33826107eb565b614c4e614c48614c4360016123cd565b61023f565b9161023f565b03614c58575b5050565b614c61916166f3565b5f80614c54565b945090614c2991614c7d84345f90369261663d565b9590919250614c1d565b5f63710c949760e01b815280614c9f60048201610449565b0390fd5b9392909192614cc2614cbd5f614cb7615670565b01611b6d565b615d72565b9033614cfe614cf8614cf37f0000000000000000000000000000000000000000000000000000000000000000610f7e565b61023f565b9161023f565b141580614eed575b5f14614eda57614d456020614d1a84611f68565b63ecd0596190614d3a600492614d2e6101fc565b95869485938493611e66565b83526004830161284d565b03915afa908115614ed5575f91614ea7575b505f14614e8b57614d77614d72614d6d84611f68565b6119d3565b6107eb565b905f63d68f6025923390614da1833496614dac823690614d956101fc565b9a8b9889978896611e66565b865260048601612917565b03925af1938415614e8657614de496614ddf96614dda96614dd5955f91614e64575b5099614f10565b611f68565b6119d3565b6107eb565b9063173bf7da90823b15614e5f57614e1b92614e105f8094614e046101fc565b96879586948593611e66565b83526004830161298d565b03925af18015614e5a57614e2e575b505b565b614e4d905f3d8111614e53575b614e458183610ca7565b81019061294d565b5f614e2a565b503d614e3b565b612012565b611f74565b614e8091503d805f833e614e788183610ca7565b8101906128e2565b5f614dce565b612012565b5f6348f5c3ed60e01b815280614ea360048201610449565b0390fd5b614ec8915060203d8111614ece575b614ec08183610ca7565b810190612822565b5f614d57565b503d614eb6565b612012565b9391929050614ee894614f10565b614e2c565b5033614f09614f03614efe30611e5a565b61023f565b9161023f565b1415614d06565b90614f2a9492614f229291909161714a565b91909161783f565b565b90614f3994939291614ca3565b565b9190614f57614f525f614f4c615670565b01611b6d565b615d72565b33614f92614f8c614f877f0000000000000000000000000000000000000000000000000000000000000000610f7e565b61023f565b9161023f565b14158061517d575b5f1461516e57614fd96020614fae83611f68565b63ecd0596190614fce600492614fc26101fc565b95869485938493611e66565b83526004830161284d565b03915afa908115615169575f9161513b575b505f1461511f5761500b61500661500183611f68565b6119d3565b6107eb565b905f63d68f60259233906150358334966150408236906150296101fc565b9a8b9889978896611e66565b865260048601612917565b03925af191821561511a57615078946150739461506e94615069935f916150f8575b50976151a0565b611f68565b6119d3565b6107eb565b9063173bf7da90823b156150f3576150af926150a45f80946150986101fc565b96879586948593611e66565b83526004830161298d565b03925af180156150ee576150c2575b505b565b6150e1905f3d81116150e7575b6150d98183610ca7565b81019061294d565b5f6150be565b503d6150cf565b612012565b611f74565b61511491503d805f833e61510c8183610ca7565b8101906128e2565b5f615062565b612012565b5f6348f5c3ed60e01b81528061513760048201610449565b0390fd5b61515c915060203d8111615162575b6151548183610ca7565b810190612822565b5f614feb565b503d61514a565b612012565b50615178926151a0565b6150c0565b503361519961519361518e30611e5a565b61023f565b9161023f565b1415614f9a565b916151ad9291909161746d565b50565b906151bb9291614f3b565b565b5f90565b6151c96151bd565b506151dc5f6151d6615670565b01611b6d565b90565b5050505050506151ed611e56565b506151fb63f23a6e61611e6c565b90565b90565b61521561521061521a926151fe565b61065b565b61020e565b90565b615225611798565b506152396152336007615201565b9161020e565b105f1461524557600190565b5f90565b91602061526a92949361526360408201965f830190610a3c565b0190610a2f565b565b33347f88a5966d370b9919b20f3e2c13ff65706f196a4e32cc2c12bf57088f88525874916152a461529b6101fc565b92839283615249565b0390a1565b6152b39051610811565b90565b6152c0905161023f565b90565b6152de6152d963ffffffff60e01b5f35166155c4565b612fec565b6152e6611798565b506152ef6131ba565b506153036152fe5f8301612333565b6107eb565b61531d6153176153125f611966565b61023f565b9161023f565b145f14615340575f631cd4b64760e21b81528061533c60048201610449565b0390fd5b6153486131ba565b61535b6153565f8401612333565b6107eb565b61537661537061536b60016123cd565b61023f565b9161023f565b141580615578575b5f146154e5575061539d6153935f8301612333565b345f90369261663d565b5b6153bb6153ad604084016152a9565b6153b5614966565b9061791e565b5f1461548357615420906153d96153d4602085016152b6565b61795a565b9390915b6153f06153eb5f8401612333565b6107eb565b61540b61540561540060016123cd565b61023f565b9161023f565b141580615450575b615436575b50501561030b565b5f1461542e57602081519101fd5b602081519101f35b6154445f6154499301612333565b6166f3565b5f80615418565b5061546461545f5f8401612333565b6107eb565b61547c61547660018060a01b0361023f565b9161023f565b1415615413565b6154a0615492604084016152a9565b61549a614991565b9061791e565b5f146154c957615420906154c16154b9602085016152b6565b5f36916166bf565b9390916153dd565b5f632d6a6bb760e01b8152806154e160048201610449565b0390fd5b6154f86154f35f8401612333565b6107eb565b61551061550a60018060a01b0361023f565b9161023f565b1461551b575b61539e565b3361555661555061554b7f0000000000000000000000000000000000000000000000000000000000000000610f7e565b61023f565b9161023f565b0315615516575f6348f5c3ed60e01b81528061557460048201610449565b0390fd5b5061558c6155875f8401612333565b6107eb565b6155a461559e60018060a01b0361023f565b9161023f565b141561537e565b906155b590611ece565b5f5260205260405f2090565b90565b6155da6155df915f6155d46179f6565b016155ab565b6155c1565b90565b90565b6155f96155f46155fe926155e2565b612362565b61054f565b90565b61562a7f1bbee3173dbdc223633258c9f337a0fff8115f206d302bea0ed3eac003b68b866155e5565b90565b61563690611906565b90565b906156439061562d565b5f5260205260405f2090565b90565b61566861566d915f615662615601565b01615639565b61564f565b90565b7f7bcaa2ced2a71450ed5a9a1b4848e8e5206dbc3f06011e595f7f55428cc6f84f90565b61569c6151bd565b50600160f81b9060581b1790565b5f90565b6156b66156aa565b5090565b6156e06156db6156d56156e6936156cf611798565b5061081a565b9361081a565b610811565b91610811565b141590565b906156fc60018060a81b0391612362565b9181191691161790565b60581c90565b61571590615706565b90565b9061572d61572861573492611636565b61570c565b82546156eb565b9055565b61574c615743615670565b5f839101615718565b6157827f6789ec0c85d6458d897a36a70129b101f8b4d84c6e218046c3107373dbcbae88916157796101fc565b9182918261164f565b0390a1565b600161579391016106c8565b90565b634e487b7160e01b5f525f60045260245ffd5b906157b863ffffffff91612362565b9181191691161790565b906157d76157d26157de92611cd7565b611cf3565b82546157a9565b9055565b9061580c60205f615812946158048282016157fe8488016122ff565b906157c2565b019201612333565b906142f7565b565b9061581e916157e2565b565b92949390919361582e615670565b6158465f61584060018401889061198a565b016122a1565b61586261585c6158575f85016139bb565b6106c8565b916106c8565b14615abe575b61587460208501612333565b61589661589061588b6158865f611966565b6119d3565b61039f565b9161039f565b14615a9b575b6158a75f82016139bb565b6158c36158bd6158b85f88016122ff565b6106c8565b916106c8565b14158015615a5f575b615a43576158e8906158e36001869201879061198a565b615814565b6158f460208401612333565b61591761591161590c61590760016123cd565b6119d3565b61039f565b9161039f565b03615a24575b505050615929816156ae565b61593b81615935611c3a565b90615b4a565b5f146159d4575061594e61595391615d72565b611f68565b91636d61fe70919092803b156159cf576159805f809461598b6159746101fc565b97889687958694611e66565b84526004840161389f565b03925af180156159ca5761599e575b505b565b6159bd905f3d81116159c3575b6159b58183610ca7565b81019061294d565b5f61599a565b503d6159ab565b612012565b611f74565b6159e9909391936159e3611c63565b90615b4a565b5f14615a08576159fb615a0393615b7e565b919091617db1565b61599c565b5f6361c4e91b60e11b815280615a2060048201610449565b0390fd5b615a336020615a3b9401612333565b919091616b29565b5f808061591d565b5f633ab3447f60e11b815280615a5b60048201610449565b0390fd5b50615a785f615a7260018401889061198a565b016122a1565b615a94615a8e615a895f88016122ff565b6106c8565b916106c8565b10156158cc565b615ab9615ab0615aab60016123cd565b6119d3565b60208601611ca7565b61589c565b615adb5f8201615ad5615ad0826139bb565b615787565b90611cf6565b615868565b91615ae96151bd565b50615af26138dd565b90505082358060f81c805f14615b3a5780600114615b2b57600214615b15575f80fd5b6005809164ffffffffff60d81b1694019203905b565b50926015809101920390615b29565b50506001805f9401920390615b29565b615b70615b6b615b65615b7693615b5f611798565b5061081a565b9361081a565b610811565b91610811565b1490565b5f90565b615b86615b7a565b5060081b90565b65ffffffffffff1690565b615bac615ba7615bb192615b8d565b61065b565b615b8d565b90565b615bc8615bc3615bcd92615b8d565b61065b565b61020e565b90565b90565b615be7615be2615bec92615bd0565b611e66565b6104e8565b90565b909391615c309593615c19615c2392615c0f60808601985f870190610a49565b6020850190610a3c565b6040830190610a49565b6060818503910152611fb9565b90565b615c55615c6b94615c66939496615c48611e56565b50839186899192936183a4565b93929691969490949694939461065e565b6184c7565b5090615c88615c82615c7d4293615b98565b615bb4565b9161020e565b10908115615d4a575b50615d3457615ceb615ce092615ca8602097611260565b94615cc9615cc2615cbd63392dffaf96611ece565b614281565b9799615df5565b919091615cd46101fc565b998a9889978897611e66565b875260048701615bef565b03915afa908115615d2f575f91615d01575b5090565b615d22915060203d8111615d28575b615d1a8183610ca7565b810190611f87565b5f615cfd565b503d615d10565b612012565b505050505050615d4763ffffffff615bd3565b90565b9050615d67615d61615d5c4293615b98565b615bb4565b9161020e565b115f615c91565b5f90565b615d7a615d6e565b5060581c90565b90565b615d98615d93615d9d92615d81565b612362565b61054f565b90565b615dc97f1547321c374afde8a591d972a084b071c594c275e36724931ff96c25f2999c83615d84565b90565b916020615ded929493615de660408201965f830190610a49565b0190610a49565b565b60200190565b615e4b90615e016130d3565b50615e33615e0d615da0565b615e24615e186101fc565b93849260208401615dcc565b60208201810382520382610ca7565b615e45615e3f82611478565b91615def565b2061850f565b90565b5f90565b615e5a615e4e565b50615e636156aa565b50615e6c6151bd565b5080918160081b9160081b908160f81c600214615e86575b565b9064ffffffffff60d81b1690615e84565b9080601f83011215615eb557816020615eb29335910161428d565b90565b61026e565b91909161012081840312615fd657615ed3610120610cd0565b92615ee0815f840161025f565b5f850152615ef18160208401610225565b6020850152604082013567ffffffffffffffff8111615fd15781615f16918401615e97565b6040850152606082013567ffffffffffffffff8111615fcc5781615f3b918401615e97565b6060850152615f4d8160808401610566565b6080850152615f5f8160a08401610225565b60a0850152615f718160c08401610566565b60c085015260e082013567ffffffffffffffff8111615fc75781615f96918401615e97565b60e085015261010082013567ffffffffffffffff8111615fc257615fba9201615e97565b610100830152565b610d06565b610d06565b610d06565b610d06565b610d02565b615fe6903690615eba565b90565b615ff36001611c1e565b90565b61600a61600561600f9261179c565b611ef0565b61123d565b90565b61601c6001615ff6565b90565b9050519061602c82610211565b565b9060208282031261604757616044915f0161601f565b90565b610206565b6160559061054f565b9052565b61610e916101006160fc6160b46160a2610120850161607e5f8801515f880190610804565b61609060208801516020880190610a69565b60408701518682036040880152611485565b60608601518582036060870152611485565b6160c66080860151608086019061604c565b6160d860a086015160a0860190610a69565b6160ea60c086015160c086019061604c565b60e085015184820360e0860152611485565b92015190610100818403910152611485565b90565b93929061613c6040916161449461612f60608901925f8a0190610a49565b8782036020890152616059565b940190610a49565b565b9291602061616261616a9360408701908782035f890152616059565b940190610a49565b565b929091926161b061617b612208565b91616184615670565b9061618e87615fdb565b9661619e816101008101906123fb565b949094926161aa615fe9565b9061858d565b6163ae575b506161d06161c2876156ae565b6161ca611c3a565b90615b4a565b5f1461627957505050906161ee6161e960209394615d72565b611f68565b6162115f639700320396939661621c6162056101fc565b98899687958694611e66565b845260048401616146565b03925af1918215616274576162429261623c915f91616246575b5061065e565b90618b14565b905b565b616267915060203d811161626d575b61625f8183610ca7565b81019061602e565b5f616236565b503d616255565b612012565b9091939592946162a35f61629d60036162946162a895615b7e565b96018690611eda565b01611f16565b611247565b6162b86162b3616012565b611247565b166162cb6162c55f611f4c565b9161123d565b03616392575f6162f86162f26162ec60209761632895879189909192618774565b98618b14565b96611260565b9261633361631261630d630ccab7a193611ece565b614281565b959861631c6101fc565b998a9788968795611e66565b855260048501616111565b03925af191821561638d5761635992616353915f9161635f575b5061065e565b90618b14565b90616244565b616380915060203d8111616386575b6163788183610ca7565b81019061602e565b5f61634d565b503d61636e565b612012565b5f6314b9743f60e01b8152806163aa60048201610449565b0390fd5b919350506163cd91506163c785916101008101906123fb565b916185bd565b91929091826163e1826101008a01926142c3565b90525f6161b5565b90565b6164006163fb616405926163e9565b61065b565b6106c8565b90565b616412600a6163ec565b90565b634e487b7160e01b5f52601160045260245ffd5b61643561643b916106c8565b916106c8565b019063ffffffff821161644a57565b616415565b60c81b90565b9061646763ffffffff60c81b9161644f565b9181191691161790565b9061648661648161648d92611cd7565b611cf3565b8254616455565b9055565b616499615670565b906164b66164a85f84016139bb565b6164b0616408565b90616429565b6164c86164c2836106c8565b916106c8565b1061656557806164ea6164e46164df5f8601612326565b6106c8565b916106c8565b1115616549576164fc905f8301616471565b6165075f82016139bb565b61652361651d6165185f8501612326565b6106c8565b916106c8565b1061652c575b50565b805f61653c816165439401612326565b9101611cf6565b5f616529565b5f633ab3447f60e11b81528061656160048201610449565b0390fd5b5f63e60fd64760e01b81528061657d60048201610449565b0390fd5b5f7f4b65726e656c0000000000000000000000000000000000000000000000000000910152565b6165b26006613f4b565b906165bf60208301616581565b565b6165c96165a8565b90565b5f7f302e332e31000000000000000000000000000000000000000000000000000000910152565b6165fd6005613f4b565b9061660a602083016165cc565b565b6166146165f3565b90565b61661f6130c6565b506166286130c6565b506166316165c1565b9061663a61660c565b90565b926166775f6166568195966166506131ba565b506107eb565b9261668263d68f60259133969861666b6101fc565b998a9889978896611e66565b865260048601612917565b03925af19081156166ba575f91616698575b5090565b6166b491503d805f833e6166ac8183610ca7565b8101906128e2565b5f616694565b612012565b5f91926166ca611798565b506166d36131ba565b50806040519485378338925af4913d8252602082013d5f823e3d01604052565b6166fc906107eb565b9063173bf7da90823b1561677657616733926167285f809461671c6101fc565b96879586948593611e66565b83526004830161298d565b03925af1801561677157616745575b50565b616764905f3d811161676a575b61675c8183610ca7565b81019061294d565b5f616742565b503d616752565b612012565b611f74565b6001616787910161020e565b90565b5090565b634e487b7160e01b5f52603260045260245ffd5b91908110156167b2576020020190565b61678e565b356167c18161037c565b90565b5190565b906167d2826167c4565b8110156167e3576020809102010190565b61678e565b908210156168035760206167ff92028101906123fb565b9091565b61678e565b969593919492966168185f611823565b5b8061683661683061682b85879061678a565b61020e565b9161020e565b101561688f5761688a90616885616857616852858785916167a2565b6167b7565b6168628a84906167c8565b51906168708d8986916167e8565b9061687d8b8d88916167e8565b949093615820565b61677b565b616819565b505050505050509050565b91908110156168aa576001020190565b61678e565b6168b8906107c3565b90565b6168c4906168af565b90565b6168d0906107df565b90565b90916168ea9260208301925f818503910152611fb9565b90565b90565b9061690561690061690c92612e7b565b6168ed565b8254612367565b9055565b60a01b90565b9061692560ff60a01b91616910565b9181191691161790565b60f81c90565b61693e9061692f565b90565b9061695661695161695d9261081a565b616935565b8254616916565b9055565b9392909361696e836107eb565b61698861698261697d5f611966565b61023f565b9161023f565b14616aec575b616997906155c4565b926169bd6169b86169b284846169ac5f611823565b9161689a565b35610811565b61081a565b916169d0836169ca614966565b9061791e565b5f14616aa357616a046169ea6169e5886168bb565b6168c7565b92636d61fe7092906169fc600161179f565b908092611866565b92803b15616a9e57616a295f8094616a34616a1d6101fc565b97889687958694611e66565b8452600484016168d3565b03925af1948515616a9957616a5c600194616a6493616a6b98616a6d575b505b5f8701612391565b8385016168f0565b9101616941565b565b616a8c905f3d8111616a92575b616a848183610ca7565b81019061294d565b5f616a52565b503d616a7a565b612012565b611f74565b5050616aba81949294616ab4614991565b906172b4565b616ad057616a64600192616a5c616a6b96616a54565b5f632d6a6bb760e01b815280616ae860048201610449565b0390fd5b9150616997616b0060018060a01b036119d3565b92905061698e565b616b11906107df565b90565b9190616b27905f60208501940190610a3c565b565b616b32816107eb565b616b4c616b46616b415f611966565b61023f565b9161023f565b148015616d73575b616d6e57616b986020616b66836107eb565b63d60b347f90616b8d616b7830616b08565b92616b816101fc565b95869485938493611e66565b835260048301616b14565b03915afa8015616d6957616bb4915f91616d3b575b501561030b565b616c9d57616bd5616bcf8385616bc95f611823565b9161689a565b35610811565b616bf0616bea616be560ff614975565b610811565b91610811565b14616bfb575b505050565b616c07616c21916107eb565b92636d61fe709290616c19600161179f565b908092611866565b92803b15616c9857616c465f8094616c51616c3a6101fc565b97889687958694611e66565b8452600484016168d3565b03925af18015616c9357616c67575b8080616bf6565b616c86905f3d8111616c8c575b616c7e8183610ca7565b81019061294d565b5f616c60565b503d616c74565b612012565b611f74565b616ca9616cc3916107eb565b92636d61fe709290616cbb600161179f565b908092611866565b92803b15616d3657616ce85f8094616cf3616cdc6101fc565b97889687958694611e66565b8452600484016168d3565b03925af18015616d3157616d05575b50565b616d24905f3d8111616d2a575b616d1c8183610ca7565b81019061294d565b5f616d02565b503d616d12565b612012565b611f74565b616d5c915060203d8111616d62575b616d548183610ca7565b810190612822565b5f616bad565b503d616d4a565b612012565b505050565b50616d7d816107eb565b616d98616d92616d8d60016123cd565b61023f565b9161023f565b14616b54565b616da7906107df565b90565b616df2919293616db9816107eb565b616dd3616dcd616dc85f611966565b61023f565b9161023f565b14616e72575b616ded905f616de784615652565b01612391565b616d9e565b91636d61fe70919092803b15616e6d57616e1f5f8094616e2a616e136101fc565b97889687958694611e66565b84526004840161389f565b03925af18015616e6857616e3c575b50565b616e5b905f3d8111616e61575b616e538183610ca7565b81019061294d565b5f616e39565b503d616e49565b612012565b611f74565b50616ded616e88616e8360016123cd565b6119d3565b9050616dd9565b90616e9b60ff91612362565b9181191691161790565b616eae9061030b565b90565b90565b90616ec9616ec4616ed092616ea5565b616eb1565b8254616e8f565b9055565b604090616efd616f049496959396616ef360608401985f8501906104f4565b6020830190611642565b0190610310565b565b9190616f31616f13615670565b616f2c616f25600286930187906123d9565b8490612461565b616eb4565b919091616f6a7f9d17cd6d095ac90a655405ab29f30a7ee7e88ef3974c1bf7544bf591043bb71a93616f616101fc565b93849384616ed4565b0390a1565b61ffff1690565b616f8a616f85616f8f92611820565b61065b565b616f6f565b90565b916020616fb3929493616fac60408201965f830190610a3c565b0190610310565b565b9190600461701991616fc5611798565b5084905a61701361700d5f6170085f95616ff9638a91b0e360e01b91616fe96101fc565b9a8b93602085019081520161298d565b60208201810382520388610ca7565b611823565b92616f76565b92618c49565b5091827f2b82f87bf66300af618a9621d3f221edfab735f5bacb4e004cce1b62375396c3916170526170496101fc565b92839283616f92565b0390a1565b5f90565b906170bb6170776170ec93959495617071617057565b506155c4565b916170b56170865f850161193d565b966170a361709b6170965f611966565b6119d3565b5f8701612391565b6170af600186016118f9565b926142c3565b90616fb5565b506170d16170c85f611966565b600183016168f0565b60016170e56170e060ff614975565b61081a565b9101616941565b565b92919061714161714792617100617057565b5061713b61710d87615652565b9661713661711c5f8a0161193d565b985f61712f61712a82611966565b6119d3565b9101612391565b616d9e565b926142c3565b90616fb5565b50565b90929192617156617057565b5061715f615670565b936171758361716f5f8801611b6d565b90618caf565b617252576171bb6171945f61718e60018901879061198a565b016119ba565b955f6171b560016171ac6171a784611966565b6119d3565b9301879061198a565b016142f7565b6171c4836156ae565b6171d6816171d0611c3a565b90615b4a565b5f1461720557506171fb906171f56171f061720195615d72565b611f68565b926142c3565b90616fb5565b505b565b61721790617211611c63565b90615b4a565b5f146172365761722961723193615b7e565b919091618cfd565b617203565b5f6361c4e91b60e11b81528061724e60048201610449565b0390fd5b5f6313002bdd60e31b81528061726a60048201610449565b0390fd5b5f90565b5f90565b5f90565b5f90565b9061728761726e565b50617290617272565b50617299617276565b506172a261727a565b50818060081b918160301b9160501b90565b6172da6172d56172cf6172e0936172c9611798565b5061081a565b9361081a565b610811565b91610811565b141590565b5f7f556e737570706f72746564000000000000000000000000000000000000000000910152565b617319600b6020926109e0565b617322816172e5565b0190565b61733b9060208101905f81830391015261730c565b90565b67ffffffffffffffff81116173565760208091020190565b610c93565b9061736d6173688361733e565b610cd0565b918252565b606090565b5f5b82811061738557505050565b602090617390617372565b8184015201617379565b906173bf6173a78361735b565b926020806173b5869361733e565b9201910390617377565b565b906173cb82611465565b8110156173dc576020809102010190565b61678e565b5f7f44656c656761746563616c6c206661696c656400000000000000000000000000910152565b61741560136020926109e0565b61741e816173e1565b0190565b6174379060208101905f818303910152617408565b90565b61744390611823565b9052565b9161746a9261745d60408201935f83019061743a565b602081840391015261295c565b90565b6174829092919261747c614b95565b5061727e565b5050929061749881617492614959565b9061791e565b5f1461751d5750906174a9916190b8565b919091906174bf816174b96149d7565b90618f34565b5f146174d457506174cf91619245565b905b5b565b6174e6906174e06149ca565b90618f34565b5f146174fb576174f591619144565b906174d1565b6175036101fc565b62461bcd60e51b81528061751960048201617326565b0390fd5b6175328195949561752c614966565b9061791e565b5f1461768557509061754391618f97565b929190919091929061755d617558600161179f565b61739a565b95617566611798565b50617579816175736149d7565b90618f34565b5f146175bf5750906175b69361759193909192619076565b6175b084915f906175aa6175a483611823565b856173c1565b52611823565b906173c1565b51505b5b6174d2565b6175d590939291936175cf6149ca565b90618f34565b5f1461766357617606936175ec9392909192619040565b6175ff856175f95f611823565b906173c1565b521561030b565b617610575b6175b9565b5f6176248361761e5f611823565b906173c1565b517fe723f28f104e46b47fd3531f3608374ac226bcf3ddda334a23a266453e0efdb79161765b6176526101fc565b92839283617447565b0390a161760b565b61766b6101fc565b62461bcd60e51b81528061768160048201617326565b0390fd5b61769a90949294617694614991565b9061791e565b5f1461781d5761771c906177096177036176bc6176b7600161179f565b61739a565b966176ef6176ea6176e486845f906176de6176d8601493611823565b92613985565b92611866565b90613914565b613976565b93906176fb6014613985565b908092611866565b906131bf565b9091617713611798565b509190916166bf565b61772f856177295f611823565b906173c1565b52906177438161773d6149ca565b90618f34565b5f146177b25750617754901561030b565b61775f575b5b6175ba565b5f6177738361776d5f611823565b906173c1565b517fe723f28f104e46b47fd3531f3608374ac226bcf3ddda334a23a266453e0efdb7916177aa6177a16101fc565b92839283617447565b0390a1617759565b6177c4906177be6149d7565b90618f34565b5f146177fb576177d4901561030b565b1561775a576177e16101fc565b62461bcd60e51b8152806177f760048201617422565b0390fd5b6178036101fc565b62461bcd60e51b81528061781960048201617326565b0390fd5b6178256101fc565b62461bcd60e51b81528061783b60048201617326565b0390fd5b91617849836107eb565b61786361785d6178585f611966565b61023f565b9161023f565b1480156178f3575b6178ee5761788c61788683836178805f611823565b9161689a565b35610811565b6178a76178a161789c60ff614975565b610811565b91610811565b146178b2575b505050565b6178d96178df916178c56178e5956107eb565b93906178d1600161179f565b908092611866565b906142c3565b90616fb5565b505f80806178ad565b505050565b506178fd836107eb565b61791861791261790d60016123cd565b61023f565b9161023f565b1461786b565b61794461793f61793961794a93617933611798565b5061081a565b9361081a565b610811565b91610811565b1490565b90604051918201604052565b5f8091617965611798565b5061796e6131ba565b506179783661794e565b36838237617986601461794e565b3360601b90528260143601925af190604051903d8252602082013d5f823e3d01604052565b90565b6179c26179bd6179c7926179ab565b612362565b61054f565b90565b6179f37f7c341349a4360fdd5d5bc07e69f325dc6aaea3eb018b3e0ea7e53cc0bb0d6f3b6179ae565b90565b6179fe6179ca565b90565b36905f90565b5090565b617a1f617a1a617a249261499e565b61065b565b61020e565b90565b600190818003010490565b91906008617a4d910291617a475f198461188f565b9261188f565b9181191691161790565b90565b9190617a70617a6b617a789361065e565b617a57565b908354617a32565b9055565b617a8e91617a886130cb565b91617a5a565b565b5b818110617a9c575050565b80617aa95f600193617a7c565b01617a91565b1c90565b9091828110617ac2575b505050565b617ae0617ada617ad4617aeb95617a27565b92617a27565b9261480a565b918201910190617a90565b5f8080617abd565b90680100000000000000008111617b1c5781617b11617b1a93614806565b90828155617ab3565b565b610c93565b5f617b2b91617af3565b565b905f03617b3f57617b3d90617b21565b565b615796565b90617b4f910361020e565b90565b90565b90565b617b6c617b67617b7192617b55565b61065b565b61020e565b90565b90617b82617b89918361188b565b913561128c565b9060168110617b97575b5090565b617bb39069ffffffffffffffffffff199060160360080261188f565b165f617b93565b5f5260205f2090565b5490565b617bd081617bc3565b821015617bea57617be2600191617bba565b910201905f90565b61678e565b91906008617c0f910291617c0960018060b01b038461188f565b9261188f565b9181191691161790565b60501c90565b617c2890617c19565b90565b9190617c41617c3c617c499361129c565b617c1f565b908354617bef565b9055565b9081549168010000000000000000831015617c7d5782617c75916001617c7b95018155617bc7565b90617c2b565b565b610c93565b90565b617c91617c969161054f565b617c82565b9052565b905090565b909182617caf81617cb693617c9a565b8093611fae565b0190565b80617ccb602092617cd29694617c85565b0191617c9f565b90565b60101b90565b90617cef62010000600160b01b0391617cd5565b9181191691161790565b617d0290613887565b90565b90565b90617d1d617d18617d2492617cf9565b617d05565b8254617cdb565b9055565b90617d36617d3d918361188b565b913561123d565b9060028110617d4b575b5090565b617d619061ffff60f01b9060020360080261188f565b165f617d47565b90617d7561ffff91612362565b9181191691161790565b60f01c90565b617d8e90617d7f565b90565b90617da6617da1617dad92611247565b617d85565b8254617d68565b9055565b90929150617dbd615670565b92617dc6617a01565b90505060208135910101602081033593617de1828690617a07565b617df4617dee60fe617a0b565b9161020e565b118015618249575b61822d57617e196001617e13600384018690611eda565b01614806565b617e2b617e255f611823565b9161020e565b1161820e575b617e3a5f611823565b5b80617e6b617e65617e60617e50878b90617a07565b617e5a600161179f565b90617b44565b61020e565b9161020e565b101561800557617ecf617e8d6001617e87600386018890611eda565b01617b52565b617ec9617ec4617ebe617ea2888c88916167e8565b5f90617eb8617eb2601693611823565b92617b58565b92611866565b90617b74565b61129c565b90617c4d565b617f1c617f17617f12617f0d617f07617eea888c88916167e8565b600290617f01617efb6016936117cb565b92617b58565b92611866565b90613914565b613976565b6138c5565b6138d1565b90636d61fe70617f71617f80617f39617f3489611ece565b614281565b617f5a617f48898d88916167e8565b617f526016617b58565b908092611866565b617f659491946101fc565b94859360208501617cba565b60208201810382520382610ca7565b833b1561800057617fb093617fa55f8094617f996101fc565b97889586948593611e66565b83526004830161298d565b03925af1918215617ffb57617fca92617fcf575b5061677b565b617e3b565b617fee905f3d8111617ff4575b617fe68183610ca7565b81019061294d565b5f617fc4565b503d617fdc565b612012565b611f74565b509392938184838661801691617a07565b60016180219061179f565b61802a91617b44565b90618034926167e8565b6002601690618042906117cb565b9061804c90617b58565b9161805693611866565b61805f91613914565b61806890613976565b61807190613893565b9081816003018561808191611eda565b5f019061808d91617d08565b8285848761809a91617a07565b60016180a59061179f565b6180ae91617b44565b906180b8926167e8565b5f6002906180c590611823565b906180cf906117cb565b916180d993611866565b6180e291617d28565b6180eb90611247565b90600301846180f991611eda565b5f019061810591617d91565b61810e90611260565b92636d61fe709261811e90611ece565b61812790614281565b91809180919061813691617a07565b60016181419061179f565b61814a91617b44565b90618154926167e8565b601661815f90617b58565b8161816993611866565b916181726101fc565b928392602084019261818393617cba565b6020820181038252036181969082610ca7565b823b15618209576181c6926181bb5f80946181af6101fc565b96879586948593611e66565b83526004830161298d565b03925af18015618204576181d8575b50565b6181f7905f3d81116181fd575b6181ef8183610ca7565b81019061294d565b5f6181d5565b503d6181e5565b612012565b611f74565b6182285f6001618222600385018790611eda565b01617b2d565b617e31565b5f63b62d956d60e01b81528061824560048201610449565b0390fd5b50618255828690617a07565b6182676182615f611823565b9161020e565b14617dfc565b5f90565b61827c610120610cd0565b90565b5f90565b5f90565b5f90565b5f90565b5f90565b5f90565b61829f618271565b90602080808080808080808a6182b361827f565b8152016182be618283565b8152016182c9618287565b8152016182d461828b565b8152016182df614762565b8152016182ea61828f565b8152016182f5617372565b815201618300612f08565b81520161830b618293565b81525050565b618319618297565b90565b90618326906104e8565b9052565b906183349061054f565b9052565b60ff1690565b61835261834d61835792618338565b61065b565b618338565b90565b61836661836b9161692f565b61833e565b90565b61838261837d61838792614972565b61065b565b618338565b90565b61839490516104e8565b90565b6183a1905161020e565b90565b929094916183fd906183b461826d565b506183bd612208565b506183c66138dd565b9050506183f36183d4615670565b976183ea6183e0618311565b976060890161831c565b60e08701612f4d565b610100850161832a565b61840b8386839087926193aa565b61843061842b618425838761841f5f611823565b9161689a565b35610811565b61835a565b61844361843d60ff61836e565b91618338565b036184a35760406184935f61848d61847761847160039961849a9790618469600161179f565b908092611866565b906131bf565b989099016184876060890161838a565b90611eda565b016147df565b9301618397565b93929193929190565b5f63b32eeb6960e01b8152806184bb60048201610449565b0390fd5b5f90565b5f90565b6184cf6184bf565b506184d86184c3565b506184e16130cf565b508065ffffffffffff8260a01c16918215600114618500575b60d01c92565b915065ffffffffffff916184fa565b6185176130d3565b50618520619767565b5f1461854c5761852e6197ca565b5b6719010000000000005f52601a52603a526042601820905f603a52565b7f0000000000000000000000000000000000000000000000000000000000000000618575619772565b61857f575b61852f565b506185886197ca565b61857a565b6185b36185ae6185a86185b9936185a2611798565b5061081a565b9361081a565b610811565b91610811565b1490565b916185e19193926185cc612208565b506185d56138dd565b905050908490916198b8565b916034609482013591010190602082033592919291929190565b61860b9060086186109302617aaf565b614819565b90565b9061861e91546185fb565b90565b61863561863061863a92618338565b61065b565b61020e565b90565b906186479061020e565b9052565b6186545f613f4b565b90565b90565b61866e61866961867392618657565b61065b565b61020e565b90565b67ffffffffffffffff60c01b1690565b9061869461869b918361188b565b9135618676565b90600881106186a9575b5090565b6186c59067ffffffffffffffff60c01b9060080360080261188f565b165f6186a5565b60c01c90565b67ffffffffffffffff1690565b6186f36186ee6186f8926186d2565b61065b565b6186d2565b90565b61870761870c916186cc565b6186df565b90565b61872361871e618728926186d2565b61065b565b61020e565b90565b90618736910161020e565b90565b9161875c9261874f60408201935f830190610a49565b6020818403910152616059565b90565b9190618772905f60208501940190610a2f565b565b91939293618780612208565b9461878961826d565b50618792615670565b6187ab60016187a5600384018890611eda565b01617b52565b906187b55f611823565b5b806187d16187cb6187c686617bc3565b61020e565b9161020e565b1015618a70576187f36187ee6187e8858490617bc7565b90618613565b619967565b9490949061881c618817618811898461880b5f611823565b9161689a565b35610811565b61835a565b8061882f6188298661020e565b91618621565b145f14618a1957506188da6188e091886188d261888161887c6188776188716188e99d9e8760019061886b61886560099361179f565b9261865a565b92611866565b90618686565b6186fb565b61870f565b918c6188bf6101006188b584886009906188ae6188a860096188a38d9161865a565b61872b565b9261865a565b9192611866565b91909301926142c3565b905292916188cd600961865a565b61872b565b908092611866565b906131bf565b9590965b611247565b6188f96188f4616012565b611247565b1661890c6189065f611f4c565b9161123d565b14618921575b5061891c9061677b565b6187b6565b61892d909991996138d1565b6020637129edce916189466189418b611ece565b614281565b906189645f8b9561896f6189586101fc565b97889687958694611e66565b845260048401618739565b03925af18015618a145761898a915f916189e6575b5061065e565b9061899482619981565b6189ae6189a86189a35f611966565b61023f565b9161023f565b036189c75761891c916189c091618b14565b9890618912565b6189e28a5f918291631f24c1fb60e11b83526004830161875f565b0390fd5b618a07915060203d8111618a0d575b6189ff8183610ca7565b81019061602e565b5f618984565b503d6189f5565b612012565b959095618a2e618a288561020e565b91618621565b105f14618a51575f630760bdcf60e11b815280618a4d60048201610449565b0390fd5b6188e990618a6b6101008a01618a6561864b565b9061863d565b6188e4565b509694919050618a9b618a96618a908584618a8a5f611823565b9161689a565b35610811565b61835a565b618aae618aa860ff61836e565b91618338565b03618af857618af5945f94618ae6610100618adc600395618aef9890618ad4600161179f565b908092611866565b91909301926142c3565b90529601611eda565b016147df565b90565b5f63b32eeb6960e01b815280618b1060048201610449565b0390fd5b90618b1d612208565b5080820160601b8160601b8114908360601b141760018060a01b03828418161517600114618b4d5750506001905b565b60018060a01b03818317168265ffffffffffff60d01b168265ffffffffffff60d01b168181119082180218179165ffffffffffff60a01b16908115618bd8575b65ffffffffffff60a01b168015618bc8575b8181109082180218908115618bb6575b1790618b4b565b905065ffffffffffff60a01b90618baf565b5065ffffffffffff60a01b618b9f565b905065ffffffffffff60a01b90618b8d565b618bfe618bf9618c0392616f6f565b61065b565b61020e565b90565b90618c18618c1383612866565b610cd0565b918252565b369037565b90618c47618c2f83618c06565b92602080618c3d8693612866565b9201910390618c1d565b565b94935f92918392618c58611798565b50618c616131ba565b50618c6a6130cb565b50618c73611798565b50618c85618c8087618bea565b618c22565b9760208451940192f1903d90808211618ca7575b508084525f602085013e9190565b90505f618c99565b618cd5618cd0618cca618cdb93618cc4611798565b50611636565b93611636565b61036b565b9161036b565b1490565b90565b80618cf3602092618cfa9694617c85565b0191617c9f565b90565b9150618d07617a01565b9050506020813591010190602082033591618d35618d306003618d28615670565b018490611eda565b618cdf565b92618d41828290617a07565b618d71618d6b618d66618d5660018901614806565b618d60600161179f565b9061872b565b61020e565b9161020e565b03618f1857618d8260018501617b52565b94618d8c5f611823565b5b80618da8618da2618d9d8a617bc3565b61020e565b9161020e565b1015618e3457618e2f90618e29618e15618dde618dd7618dd2618dcc8d8790617bc7565b90618613565b619967565b90506138d1565b618e24618df2618ded8b611ece565b614281565b618dfe8a8a88916167e8565b618e099591956101fc565b95869360208501618ce2565b60208201810382520383610ca7565b616fb5565b5061677b565b618d8d565b509450618f169392618edb618ee093618eb5618ecc94618e6b5f6001618e656003618e5d615670565b018990611eda565b01617b2d565b618e8f618e8a618e84618e7f5f8c016147df565b611260565b96611ece565b614281565b92618eaf618e9f82938093617a07565b618ea9600161179f565b90617b44565b916167e8565b618ec09591956101fc565b95869360208501618ce2565b60208201810382520383610ca7565b616fb5565b50618efd618ef5618ef05f611966565b613893565b5f8301617d08565b5f618f0f618f0a82611f4c565b611247565b9101617d91565b565b5f63013dcc8d60e31b815280618f3060048201610449565b0390fd5b618f5a618f55618f4f618f6093618f49611798565b5061081a565b9361081a565b610811565b91610811565b1490565b90565b618f7b618f76618f8092618f64565b61065b565b61020e565b90565b618f8f618f94916118d5565b61065e565b90565b9091618fa16130cf565b50618faa6130cb565b50618fb36138dd565b90505061903c619036618fee618fe9618fe386885f90618fdd618fd7601493611823565b92613985565b92611866565b90613914565b613976565b9461902261901d619017878460149061901161900b603493613985565b92618f67565b92611866565b90614245565b618f83565b949061902e6034618f67565b908092611866565b906131bf565b9091565b905f92849161904d611798565b506190566131ba565b50604051958692833738935af1913d8252602082013d5f823e3d01604052565b90925f928195946190856131ba565b50604051968792833738935af1156190a9573d8252602082013d5f823e3d01604052565b503d5f823e3d90fd5b36905f90565b90506190c26190b2565b9050508035019060208201913590565b5090565b9035906001606003813603038212156190ed570190565b6123ef565b9082101561910c57602061910992028101906190d6565b90565b61678e565b3561911b8161024b565b90565b916191419261913460408201935f830190610a2f565b602081840391015261295c565b90565b9061914d614b95565b506191598282906190d2565b916191638361739a565b9361916c6130cb565b5b8061918061917a8761020e565b9161020e565b101561923e576191ee906191e46191d261919c868885916190f2565b6191a4611798565b506191b05f8201619111565b6191ca6191bf60208401612277565b9260408101906123fb565b929091619040565b6191dd8a85906173c1565b521561030b565b6191f3575b61677b565b61916d565b806191ff8883906173c1565b517fe723f28f104e46b47fd3531f3608374ac226bcf3ddda334a23a266453e0efdb79161923661922d6101fc565b9283928361911e565b0390a16191e9565b5092505050565b9061924e614b95565b5061925a8282906190d2565b916192648361739a565b9361926d6130cb565b5b8061928161927b8761020e565b9161020e565b10156192e9576192e4906192dd6192ca61929d868885916190f2565b6192a85f8201619111565b6192c26192b760208401612277565b9260408101906123fb565b929091619076565b8883916192d783836173c1565b526173c1565b515061677b565b61926e565b5092505050565b6192f99061023f565b90565b90619306906192f0565b9052565b9061931490618338565b9052565b6193229051618338565b90565b61932f905161020e565b90565b61933c905161123d565b90565b61934990516192f0565b90565b619356905161054f565b90565b909261938c90619382619399969461937860808601975f870190610a49565b6020850190610a3c565b6040830190610a49565b606081840391015261295c565b90565b906193a69061020e565b9052565b9392919060016193cc60036193d293016193c66060890161838a565b90611eda565b01617b52565b916193dc5f611823565b915b826193f96193f36193ee87617bc3565b61020e565b9161020e565b101561975f5761943661941e619419619413878790617bc7565b90618613565b619967565b9061943060808a019260a08b016192fc565b906147ac565b61946661945e619459619453848661944d5f611823565b9161689a565b35610811565b61835a565b5f880161930a565b6194715f8701619318565b61948361947d8561020e565b91618621565b145f146196e45761955191816194d96194d06194cb6194c66194c061954b97876001906194ba6194b460099361179f565b9261865a565b92611866565b90618686565b6186fb565b61870f565b60208a0161863d565b619521619514828a8561950d6195076009936195026194fc602060099301619325565b9161865a565b61872b565b9261865a565b9192611866565b60c08b93929301926142c3565b905290619543600961953e61953860208c01619325565b9161865a565b61872b565b908092611866565b906131bf565b9290915b61956961956460808801619332565b611247565b619579619574611f3f565b611247565b1661958c6195865f611f4c565b9161123d565b146195a4575b61959b9061677b565b919290926193de565b6195b86195b360a0880161933f565b6138d1565b602063309bfb76916195dc6195d76195d260608c0161838a565b611ece565b614281565b906196186195ec60e08c016152b6565b946196238c60c0619600610100830161934c565b9101519061960c6101fc565b98899788968796611e66565b865260048601619359565b03915afa80156196df5761963e915f916196b1575b5061065e565b61964781619981565b61966161965b6196565f611966565b61023f565b9161023f565b03619692579061968b61968261959b9361967d60408b01618397565b618b14565b6040890161939c565b9050619592565b6196ad825f918291631f24c1fb60e11b83526004830161875f565b0390fd5b6196d2915060203d81116196d8575b6196ca8183610ca7565b81019061602e565b5f619638565b503d6196c0565b612012565b916196f35f8795939501619318565b6197056196ff8361020e565b91618621565b105f14619728575f630760bdcf60e11b81528061972460048201610449565b0390fd5b61975861974b84865f9061974561973f5f93611823565b92611823565b92611866565b60c08993929301926142c3565b9052619555565b505050509050565b61976f611798565b90565b61977a611798565b507f00000000000000000000000000000000000000000000000000000000000000007f00000000000000000000000000000000000000000000000000000000000000003014904614161590565b90565b6197d26130d3565b506197db6130d3565b506197e4619767565b5f1461986f5760a061980161981a6197fa616617565b92906197c7565b61981361980d82611478565b91615def565b20916197c7565b61982c61982682611478565b91615def565b205b604051917f8b73c3c69bb8fe3d512ecc4cf759cc79239f7b179b0ffacaa9a75d522b39400f8352602083015260408201524660608201523060808201522090565b60a07f00000000000000000000000000000000000000000000000000000000000000007f000000000000000000000000000000000000000000000000000000000000000061982e565b9061995561994f61992661995d946198ec61991998976198d6612208565b506198df6138dd565b9050508290879091619a5a565b98969e91949e9b909b939293959e9293949b98906034607482013591010190602082033590919091619c1e565b9c86949091929394615820565b619931858390619f18565b93905f90619949619943600493611823565b92611842565b92611866565b90611893565b600191616f06565b565b5f90565b5f90565b9061997061995f565b50619979619963565b508160501c90565b6199896130cf565b5090565b90565b6199a461999f6199a99261998d565b612362565b61054f565b90565b6199d57fb17ab1224aca0d4255ef8161acaf2ac121b8faa32a4b2258c912cc5f8308c505619990565b90565b6199e19061036b565b9052565b6199ee906107eb565b9052565b949290979695939160e08601985f8701619a0b91610a49565b60208601619a18916199d8565b60408501619a2591610bfd565b60608401619a32916199e5565b60808301619a3f91610a49565b60a08201619a4c91610a49565b60c001619a5891610a49565b565b9092619a64614701565b93619a6d6138dd565b905050619a786138dd565b905050619a836138dd565b905050619a8e6130d3565b50619ade619ad5619ad0619acb619ac5619aa6615670565b9886905f90619abf619ab9601493611823565b92613985565b92611866565b90613914565b613976565b6119d3565b60208701611ca7565b619af4619aec5f86016139bb565b5f8701611c99565b60148101356034820101936020850335936034830135603484010193619bf06020860335946034605482013591010193619bd8602086033594619bc98c8c619b648d619b5e6020619b575f619b50619b4a6199ac565b9a611636565b9b016139bb565b9501612333565b926142c3565b619b76619b7082611478565b91615def565b20619b828d8d906142c3565b619b94619b8e82611478565b91615def565b2091619ba18c8c906142c3565b619bb3619bad82611478565b91615def565b2093619bbd6101fc565b988997602089016199f2565b60208201810382520382610ca7565b619bea619be482611478565b91615def565b2061850f565b90565b619bfc906107df565b90565b90565b619c16619c11619c1b92619bff565b611e66565b6104e8565b90565b929192619c29612208565b93619c32615670565b619c45619c405f8301611b6d565b6156ae565b619c4d611e56565b50619c6081619c5a611c3a565b90615b4a565b5f14619d3d575090619cb2619c89619c84619c7f5f6020979601611b6d565b615d72565b611f68565b91619cbd63f551e2ee91619c9c30619bf3565b9597619ca66101fc565b98899788968796611e66565b865260048601611fdc565b03915afa908115619d38575f91619d0a575b505b619ce7619ce1631626ba7e619c02565b916104e8565b03619cee57565b5f6362467c7760e11b815280619d0660048201610449565b0390fd5b619d2b915060203d8111619d31575b619d238183610ca7565b810190611f87565b5f619ccf565b503d619d19565b612012565b619d5591929650939293619d4f611c63565b90615b4a565b5f14619e3957619dee94619de3619d9c602094619d7e619d795f619daa9701611b6d565b615b7e565b93619d8761826d565b508491619d9330619bf3565b899192936183a4565b949299919590949599611260565b93619dc1619dbc63392dffaf94611ece565b614281565b95619dcb30619bf3565b98919091619dd76101fc565b998a9889978897611e66565b875260048701615bef565b03915afa908115619e34575f91619e06575b50619cd1565b619e27915060203d8111619e2d575b619e1f8183610ca7565b810190611f87565b5f619e00565b503d619e15565b612012565b5f6361c4e91b60e11b815280619e5160048201610449565b0390fd5b90565b619e6c619e67619e7192619e55565b61065b565b61020e565b90565b5f7f496e76616c69642073656c6563746f7244617461000000000000000000000000910152565b619ea860146020926109e0565b619eb181619e74565b0190565b619eca9060208101905f818303910152619e9b565b90565b15619ed457565b619edc6101fc565b62461bcd60e51b815280619ef260048201619eb5565b0390fd5b619eff906117cb565b9052565b9190619f16905f60208501940190619ef6565b565b619f42619f3c82845f90619f36619f30600493611823565b92611842565b92611866565b90611893565b619f4d82849061188b565b619f60619f5a6004611842565b9161020e565b1015619f6c575b505050565b619f7782849061188b565b619f8a619f84602c619e58565b9161020e565b10155f1461a23957619f9a6138dd565b905050619fa56138dd565b905050619fe3619fde619fd9619fd38587600490619fcd619fc7601893611842565b926138e6565b92611866565b90613914565b613976565b6168bb565b91602c810135604c820101926020840335604c830135604c8401019460208603359461a03b61a02d61a02861a022858761a01c5f611823565b9161689a565b35610811565b61081a565b61a035614966565b9061791e565b8061a187575b9461a0ab61a0d49561a0cf9561a0c99561a06861a0e19d9661a0d99b61a0ea575b936168c7565b61a0a361a09e61a09961a093898b60189061a08d61a087602c936138e6565b92619e58565b92611866565b90613914565b613976565b6119d3565b919293616961565b9060189061a0c361a0bd602c936138e6565b92619e58565b92611866565b90613914565b613976565b6119d3565b919091616b29565b5b5f8080619f67565b61a0f26138dd565b90505061a182606c880135604c89010161a17c61a176602083033561a14761a14261a13d61a13787855f9061a13161a12b601493611823565b92613985565b92611866565b90613914565b613976565b6119d3565b61a16261a15b61a1568d6168c7565b611912565b829061a265565b939061a16e6014613985565b908092611866565b906131bf565b91616b29565b61a062565b5090929661a1c69294602061a19b8a6168c7565b63ecd059619061a1bb60029261a1af6101fc565b98899485938493611e66565b835260048301619f03565b03915afa801561a2345761a0e19961a0d99761a0d49761a06861a0c99761a0ab9561a0cf9a5f9161a206575b50969b50969d50509550955095505061a041565b61a227915060203d811161a22d575b61a21f8183610ca7565b810190612822565b5f61a1f2565b503d61a215565b612012565b5061a2609161a2479161188b565b61a25a61a2546004611842565b9161020e565b14619ecd565b61a0e2565b9061a2a39161a273826107eb565b61a28d61a28761a2825f611966565b61023f565b9161023f565b1461a2a5575b61a29d5f91615652565b01612391565b565b90505f61a29d61a2bd61a2b860016123cd565b6119d3565b9291505061a29356","linkReferences":{}},"methodIdentifiers":{"accountId()":"9cfd7cff","currentNonce()":"adb610a3","eip712Domain()":"84b0196e","entrypoint()":"a65d69d4","execute(bytes32,bytes)":"e9ae5c53","executeFromExecutor(bytes32,bytes)":"d691c964","executeUserOp((address,uint256,bytes,bytes,bytes32,uint256,bytes32,bytes,bytes),bytes32)":"8dd7712f","executorConfig(address)":"721e67f4","initialize(bytes21,address,bytes,bytes)":"12af322c","installModule(uint256,address,bytes)":"9517e29f","installValidations(bytes21[],(uint32,address)[],bytes[],bytes[])":"9198bdf5","invalidateNonce(uint32)":"1f1b92e3","isAllowedSelector(bytes21,bytes4)":"6e6fa0c6","isModuleInstalled(uint256,address,bytes)":"112d3a7d","isValidSignature(bytes32,bytes)":"1626ba7e","onERC1155BatchReceived(address,address,uint256[],uint256[],bytes)":"bc197c81","onERC1155Received(address,address,uint256,uint256,bytes)":"f23a6e61","onERC721Received(address,address,uint256,bytes)":"150b7a02","permissionConfig(bytes4)":"c3e58978","rootValidator()":"f1f7f0f9","selectorConfig(bytes4)":"57b3a5f4","supportsExecutionMode(bytes32)":"d03c7914","supportsModule(uint256)":"f2dc691d","uninstallModule(uint256,address,bytes)":"a71763a8","uninstallValidation(bytes21,bytes,bytes)":"e6f3d50a","upgradeTo(address)":"3659cfe6","validNonceFrom()":"90ef8862","validateUserOp((address,uint256,bytes,bytes,bytes32,uint256,bytes32,bytes,bytes),bytes32,uint256)":"19822f7c","validationConfig(bytes21)":"b8afe17d"},"id":34}