{"abi":[{"type":"function","name":"balanceOf","inputs":[{"name":"owner","type":"address","internalType":"address"},{"name":"id","type":"uint256","internalType":"uint256"}],"outputs":[{"name":"result","type":"uint256","internalType":"uint256"}],"stateMutability":"view"},{"type":"function","name":"balanceOfBatch","inputs":[{"name":"owners","type":"address[]","internalType":"address[]"},{"name":"ids","type":"uint256[]","internalType":"uint256[]"}],"outputs":[{"name":"balances","type":"uint256[]","internalType":"uint256[]"}],"stateMutability":"view"},{"type":"function","name":"batchMint","inputs":[{"name":"to","type":"address","internalType":"address"},{"name":"ids","type":"uint256[]","internalType":"uint256[]"},{"name":"amounts","type":"uint256[]","internalType":"uint256[]"},{"name":"data","type":"bytes","internalType":"bytes"}],"outputs":[],"stateMutability":"nonpayable"},{"type":"function","name":"isApprovedForAll","inputs":[{"name":"owner","type":"address","internalType":"address"},{"name":"operator","type":"address","internalType":"address"}],"outputs":[{"name":"result","type":"bool","internalType":"bool"}],"stateMutability":"view"},{"type":"function","name":"mint","inputs":[{"name":"to","type":"address","internalType":"address"},{"name":"id","type":"uint256","internalType":"uint256"},{"name":"amount","type":"uint256","internalType":"uint256"},{"name":"data","type":"bytes","internalType":"bytes"}],"outputs":[],"stateMutability":"nonpayable"},{"type":"function","name":"safeBatchTransferFrom","inputs":[{"name":"from","type":"address","internalType":"address"},{"name":"to","type":"address","internalType":"address"},{"name":"ids","type":"uint256[]","internalType":"uint256[]"},{"name":"amounts","type":"uint256[]","internalType":"uint256[]"},{"name":"data","type":"bytes","internalType":"bytes"}],"outputs":[],"stateMutability":"nonpayable"},{"type":"function","name":"safeTransferFrom","inputs":[{"name":"from","type":"address","internalType":"address"},{"name":"to","type":"address","internalType":"address"},{"name":"id","type":"uint256","internalType":"uint256"},{"name":"amount","type":"uint256","internalType":"uint256"},{"name":"data","type":"bytes","internalType":"bytes"}],"outputs":[],"stateMutability":"nonpayable"},{"type":"function","name":"setApprovalForAll","inputs":[{"name":"operator","type":"address","internalType":"address"},{"name":"isApproved","type":"bool","internalType":"bool"}],"outputs":[],"stateMutability":"nonpayable"},{"type":"function","name":"supportsInterface","inputs":[{"name":"interfaceId","type":"bytes4","internalType":"bytes4"}],"outputs":[{"name":"result","type":"bool","internalType":"bool"}],"stateMutability":"view"},{"type":"function","name":"test_ignore","inputs":[],"outputs":[],"stateMutability":"nonpayable"},{"type":"function","name":"uri","inputs":[{"name":"","type":"uint256","internalType":"uint256"}],"outputs":[{"name":"","type":"string","internalType":"string"}],"stateMutability":"pure"},{"type":"event","name":"ApprovalForAll","inputs":[{"name":"owner","type":"address","indexed":true,"internalType":"address"},{"name":"operator","type":"address","indexed":true,"internalType":"address"},{"name":"isApproved","type":"bool","indexed":false,"internalType":"bool"}],"anonymous":false},{"type":"event","name":"TransferBatch","inputs":[{"name":"operator","type":"address","indexed":true,"internalType":"address"},{"name":"from","type":"address","indexed":true,"internalType":"address"},{"name":"to","type":"address","indexed":true,"internalType":"address"},{"name":"ids","type":"uint256[]","indexed":false,"internalType":"uint256[]"},{"name":"amounts","type":"uint256[]","indexed":false,"internalType":"uint256[]"}],"anonymous":false},{"type":"event","name":"TransferSingle","inputs":[{"name":"operator","type":"address","indexed":true,"internalType":"address"},{"name":"from","type":"address","indexed":true,"internalType":"address"},{"name":"to","type":"address","indexed":true,"internalType":"address"},{"name":"id","type":"uint256","indexed":false,"internalType":"uint256"},{"name":"amount","type":"uint256","indexed":false,"internalType":"uint256"}],"anonymous":false},{"type":"event","name":"URI","inputs":[{"name":"value","type":"string","indexed":false,"internalType":"string"},{"name":"id","type":"uint256","indexed":true,"internalType":"uint256"}],"anonymous":false},{"type":"error","name":"AccountBalanceOverflow","inputs":[]},{"type":"error","name":"ArrayLengthsMismatch","inputs":[]},{"type":"error","name":"InsufficientBalance","inputs":[]},{"type":"error","name":"NotOwnerNorApproved","inputs":[]},{"type":"error","name":"TransferToNonERC1155ReceiverImplementer","inputs":[]},{"type":"error","name":"TransferToZeroAddress","inputs":[]}],"bytecode":{"object":"0x608060405234601c57600e6020565b61151561002b823961151590f35b6026565b60405190565b5f80fdfe60806040526004361015610013575b610aae565b61001d5f356100cb565b8062fdd58e146100c657806301ffc9a7146100c15780630e89341c146100bc5780632eb2c2d6146100b75780634e1273f4146100b2578063731133e9146100ad578063a22cb465146100a8578063b48ab8b6146100a3578063b4e7a91d1461009e578063e985e9c5146100995763f242432a0361000e57610a74565b6109ce565b610976565b610930565b6107d6565b61074f565b6105da565b610460565b6102fa565b61023c565b610192565b60e01c90565b60405190565b5f80fd5b5f80fd5b5f80fd5b60018060a01b031690565b6100f7906100e3565b90565b610103816100ee565b0361010a57565b5f80fd5b9050359061011b826100fa565b565b90565b6101298161011d565b0361013057565b5f80fd5b9050359061014182610120565b565b919060408382031261016b578061015f610168925f860161010e565b93602001610134565b90565b6100db565b6101799061011d565b9052565b9190610190905f60208501940190610170565b565b346101c3576101bf6101ae6101a8366004610143565b90610ab6565b6101b66100d1565b9182918261017d565b0390f35b6100d7565b63ffffffff60e01b1690565b6101dd816101c8565b036101e457565b5f80fd5b905035906101f5826101d4565b565b906020828203126102105761020d915f016101e8565b90565b6100db565b151590565b61022390610215565b9052565b919061023a905f6020850194019061021a565b565b3461026c576102686102576102523660046101f7565b610adc565b61025f6100d1565b91829182610227565b0390f35b6100d7565b9060208282031261028a57610287915f01610134565b90565b6100db565b5190565b60209181520190565b90825f9392825e0152565b601f801991011690565b6102d06102d96020936102de936102c78161028f565b93848093610293565b9586910161029c565b6102a7565b0190565b6102f79160208201915f8184039101526102b1565b90565b3461032a57610326610315610310366004610271565b610b8d565b61031d6100d1565b918291826102e2565b0390f35b6100d7565b5f80fd5b5f80fd5b5f80fd5b909182601f830112156103755781359167ffffffffffffffff831161037057602001926020830284011161036b57565b610337565b610333565b61032f565b909182601f830112156103b45781359167ffffffffffffffff83116103af5760200192600183028401116103aa57565b610337565b610333565b61032f565b9160a083830312610456576103d0825f850161010e565b926103de836020830161010e565b92604082013567ffffffffffffffff811161045157816103ff91840161033b565b929093606082013567ffffffffffffffff811161044c578361042291840161033b565b929093608082013567ffffffffffffffff811161044757610443920161037a565b9091565b6100df565b6100df565b6100df565b6100db565b5f0190565b34610498576104826104733660046103b9565b96959095949194939293610bbe565b61048a6100d1565b806104948161045b565b0390f35b6100d7565b909182601f830112156104d75781359167ffffffffffffffff83116104d25760200192602083028401116104cd57565b610337565b610333565b61032f565b9091604082840312610536575f82013567ffffffffffffffff8111610531578361050791840161049d565b929093602082013567ffffffffffffffff811161052c57610528920161033b565b9091565b6100df565b6100df565b6100db565b5190565b60209181520190565b60200190565b6105579061011d565b9052565b906105688160209361054e565b0190565b60200190565b9061058f6105896105828461053b565b809361053f565b92610548565b905f5b81811061059f5750505090565b9091926105b86105b2600192865161055b565b9461056c565b9101919091610592565b6105d79160208201915f818403910152610572565b90565b3461060e5761060a6105f96105f03660046104dc565b92919091610e13565b6106016100d1565b918291826105c2565b0390f35b6100d7565b5f80fd5b634e487b7160e01b5f52604160045260245ffd5b90610635906102a7565b810190811067ffffffffffffffff82111761064f57604052565b610617565b906106676106606100d1565b928361062b565b565b67ffffffffffffffff8111610687576106836020916102a7565b0190565b610617565b90825f939282370152565b909291926106ac6106a782610669565b610654565b938185526020850190828401116106c8576106c69261068c565b565b610613565b9080601f830112156106eb578160206106e893359101610697565b90565b61032f565b9060808282031261074a57610707815f840161010e565b926107158260208501610134565b926107238360408301610134565b92606082013567ffffffffffffffff81116107455761074292016106cd565b90565b6100df565b6100db565b346107815761076b6107623660046106f0565b92919091610e81565b6107736100d1565b8061077d8161045b565b0390f35b6100d7565b61078f81610215565b0361079657565b5f80fd5b905035906107a782610786565b565b91906040838203126107d157806107c56107ce925f860161010e565b9360200161079a565b90565b6100db565b34610805576107ef6107e93660046107a9565b90610e91565b6107f76100d1565b806108018161045b565b0390f35b6100d7565b67ffffffffffffffff81116108225760208091020190565b610617565b9092919261083c6108378261080a565b610654565b938185526020808601920283019281841161087957915b8383106108605750505050565b6020809161086e8486610134565b815201920191610853565b610337565b9080601f8301121561089c5781602061089993359101610827565b90565b61032f565b9060808282031261092b576108b8815f840161010e565b92602083013567ffffffffffffffff811161092657826108d991850161087e565b92604081013567ffffffffffffffff811161092157836108fa91830161087e565b92606082013567ffffffffffffffff811161091c5761091992016106cd565b90565b6100df565b6100df565b6100df565b6100db565b346109625761094c6109433660046108a1565b92919091610ede565b6109546100d1565b8061095e8161045b565b0390f35b6100d7565b5f91031261097157565b6100db565b3461099c57610986366004610967565b61098e6100d1565b806109988161045b565b0390f35b6100d7565b91906040838203126109c957806109bd6109c6925f860161010e565b9360200161010e565b90565b6100db565b346109ff576109fb6109ea6109e43660046109a1565b90610eee565b6109f26100d1565b91829182610227565b0390f35b6100d7565b91909160a081840312610a6f57610a1d835f830161010e565b92610a2b816020840161010e565b92610a398260408501610134565b92610a478360608301610134565b92608082013567ffffffffffffffff8111610a6a57610a66920161037a565b9091565b6100df565b6100db565b34610aa957610a93610a87366004610a04565b94939093929192610f11565b610a9b6100d1565b80610aa58161045b565b0390f35b6100d7565b5f80fd5b5f90565b610abe610ab2565b50679a31110384e0b0c96020526014525f5260405f205490565b5f90565b610ae4610ad8565b5060e01c630e89341c8114906301ffc9a763d9b67a2682149114171790565b606090565b67ffffffffffffffff8111610b2657610b226020916102a7565b0190565b610617565b90610b3d610b3883610b08565b610654565b918252565b5f7f68747470733a2f2f6578616d706c652e636f6d00000000000000000000000000910152565b610b736013610b2b565b90610b8060208301610b42565b565b610b8a610b69565b90565b50610b96610b03565b50610b9f610b82565b90565b610bad913691610827565b90565b610bbb913691610697565b90565b969392969591909495610bcf6110d5565b610de5575b868803610dd85760601b679a31110384e0b0c9179460601b679a31110384e0b0c91795856020528560601c958760601c978815610dcb57873303610db1575b8960051b805b610d56575050508686604051604081527f4a39dc06d4c0dbc64b70af90fd698a233a518aa5d07e595d983b8c0526c8f7fb8b60051b6020019182604082018160208a0382378160400160208401528160208c039101376040339380010190a4610c806110e2565b610d39575b50853b610c96575b50505050505050565b6020955f5260405196879563bc197c8187523388880152604087015260a0606087015260051b86018093818860c089019403843781888160a001928360808b015203818501370160a086015285848101920390838001013780010160c401601c82015f80515af115610d2b575b63bc197c8160e01b905103610d1e575f808080808080610c8d565b639c05499b5f526004601cfd5b3d15610d03573d5f823e3d90fd5b610d50908690889084908b88919288948b966110ef565b5f610c85565b602090038087013583602052818601355f5260405f208054808311610da45782900390558260205260405f20908154908101908110610d9757829155610c19565b6301336cea5f526004601cfd5b63f4d678b85f526004601cfd5b335f526034600c2054610c1357634b6e7f185f526004601cfd5b63ea553b345f526004601cfd5b633b800a465f526004601cfd5b610e088289610e02878b90610dfc89948c96610ba2565b50610ba2565b50610bb0565b50610bd4565b606090565b93929190610e1f610e0e565b508203610e745760405193828552602085019260051b808481016040525b610e475750505050565b602090038082013560601b679a31110384e0b0c917602052808301355f528060405f205481860152610e3d565b633b800a465f526004601cfd5b91610e8f9391909192611167565b565b901515679a31110384e0b0c960205233601452815f52806034600c20555f5260601b60601c337f17307eab39ab6107e8899845ad3d59bd9653f200f220920489ca2b5937696c3160205fa3565b91610eec9391909192611262565b565b610ef6610ad8565b50679a31110384e0b0c96020526014525f526034600c205490565b94909194939293610f206110d5565b6110b0575b60601b679a31110384e0b0c9179160601b679a31110384e0b0c917918060205260601c928260601c9283156110a357843303611089575b865f5260405f20805480881161107c57879003905560205260405f2080549086820191821061106f5755846020528284337fc3d58168c5ae7397731d063d5bbf3d657854427343f4c083240f7aacaa2d0f6260405fa4610fba6110e2565b61104a575b823b610fce575b505050505050565b60209460405196879563f23a6e618752338888015260408701526060860152608085015260a08085015284828101910360c085013760c401905f601c8401915af11561103c575b63f23a6e6160e01b90510361102f575f8080808080610fc6565b639c05499b5f526004601cfd5b3d15611015573d5f823e3d90fd5b6110538661139e565b5061105d8561139e565b50611069818390610bb0565b50610fbf565b6301336cea5f526004601cfd5b63f4d678b85f526004601cfd5b335f526034600c2054610f5c57634b6e7f185f526004601cfd5b63ea553b345f526004601cfd5b6110b98661139e565b506110c38561139e565b506110cf848390610bb0565b50610f25565b6110dd610ad8565b505f90565b6110ea610ad8565b505f90565b505094929390936110fe6110e2565b61110b575b505050505050565b6111216111279361112d97969092939596610ba2565b50610ba2565b50610bb0565b505f8080808080611103565b90565b90565b61115361114e61115892611139565b61113c565b6100e3565b90565b6111649061113f565b90565b919290926111736110d5565b611249575b8260601b801561123c57679a31110384e0b0c960205283601452845f5260405f2080549083820191821061122f57558160205260601c5f337fc3d58168c5ae7397731d063d5bbf3d657854427343f4c083240f7aacaa2d0f62604083a46111dd6110e2565b611216575b6111eb836113be565b6111f6575b50505050565b61120d936112035f61115b565b93909192936113cb565b5f8080806111f0565b61121f8461139e565b506112298161139e565b506111e2565b6301336cea5f526004601cfd5b63ea553b345f526004601cfd5b6112528461139e565b5061125c8161139e565b50611178565b9192909261126e6110d5565b611399575b805184510361138c578260601b801561137f5780679a31110384e0b0c917602052845160051b805b61134b57505f604051604081527f4a39dc06d4c0dbc64b70af90fd698a233a518aa5d07e595d983b8c0526c8f7fb81885160051b602001604082019081818c60045afa503d60400160208301523d01865160051b60200181818960045afa503d01039360601c933392a461130d6110e2565b611346575b61131b836113be565b611326575b50505050565b61133d936113335f61115b565b9390919293611461565b5f808080611320565b611312565b8083015190808701515f5260405f209182549081019081106113725760209255038061129b565b6301336cea5f526004601cfd5b63ea553b345f526004601cfd5b633b800a465f526004601cfd5b611273565b906113a7610e0e565b506040519160408301604052600183526020830152565b6113c6610ad8565b503b90565b919360209360405195869463f23a6e618652338787015260601b60601c60408601526060850152608084015260a08084015280518091818060c087015261144d575b505060c401905f601c8401915af11561143f575b63f23a6e6160e01b90510361143257565b639c05499b5f526004601cfd5b3d15611421573d5f823e3d90fd5b818660e08701920160045afa50805f61140d565b919360209360405195869463bc197c818652338787015260601b60601c604086015260a06060860152805160051b8601809160c0870192839160045afa503d60a001908160808701523d019182815160051b8801809260045afa503d0160a08501523d01908181518601809260045afa50601c8301903d0103905f601c8401915af115611507575b63bc197c8160e01b9051036114fa57565b639c05499b5f526004601cfd5b3d156114e9573d5f823e3d90fd","linkReferences":{}},"methodIdentifiers":{"balanceOf(address,uint256)":"00fdd58e","balanceOfBatch(address[],uint256[])":"4e1273f4","batchMint(address,uint256[],uint256[],bytes)":"b48ab8b6","isApprovedForAll(address,address)":"e985e9c5","mint(address,uint256,uint256,bytes)":"731133e9","safeBatchTransferFrom(address,address,uint256[],uint256[],bytes)":"2eb2c2d6","safeTransferFrom(address,address,uint256,uint256,bytes)":"f242432a","setApprovalForAll(address,bool)":"a22cb465","supportsInterface(bytes4)":"01ffc9a7","test_ignore()":"b4e7a91d","uri(uint256)":"0e89341c"},"id":51}