{"abi":[{"type":"function","name":"doSomething","inputs":[],"outputs":[],"stateMutability":"nonpayable"},{"type":"function","name":"isInitialized","inputs":[{"name":"smartAccount","type":"address","internalType":"address"}],"outputs":[{"name":"","type":"bool","internalType":"bool"}],"stateMutability":"view"},{"type":"function","name":"isModuleType","inputs":[{"name":"moduleTypeId","type":"uint256","internalType":"uint256"}],"outputs":[{"name":"","type":"bool","internalType":"bool"}],"stateMutability":"view"},{"type":"function","name":"onInstall","inputs":[{"name":"data","type":"bytes","internalType":"bytes"}],"outputs":[],"stateMutability":"payable"},{"type":"function","name":"onUninstall","inputs":[{"name":"data","type":"bytes","internalType":"bytes"}],"outputs":[],"stateMutability":"payable"},{"type":"event","name":"MockActionEvent","inputs":[{"name":"here","type":"address","indexed":false,"internalType":"address"}],"anonymous":false}],"bytecode":{"object":"0x608060405234601c57600e6020565b61037c61002b823961037c90f35b6026565b60405190565b5f80fdfe60806040526004361015610013575b6102bf565b61001d5f3561006c565b80636d61fe701461006757806382692679146100625780638a91b0e31461005d578063d60b347f146100585763ecd059610361000e5761028a565b610211565b61016f565b61013c565b610106565b60e01c90565b60405190565b5f80fd5b5f80fd5b5f80fd5b5f80fd5b5f80fd5b909182601f830112156100c65781359167ffffffffffffffff83116100c15760200192600183028401116100bc57565b610088565b610084565b610080565b906020828203126100fc575f82013567ffffffffffffffff81116100f7576100f3920161008c565b9091565b61007c565b610078565b5f0190565b6101113660046100cb565b505061011b610072565b8061012581610101565b0390f35b5f80fd5b5f91031261013757565b610078565b3461016a5761014c36600461012d565b61015461031c565b61015c610072565b8061016681610101565b0390f35b610129565b61017a3660046100cb565b5050610184610072565b8061018e81610101565b0390f35b60018060a01b031690565b6101a690610192565b90565b6101b28161019d565b036101b957565b5f80fd5b905035906101ca826101a9565b565b906020828203126101e5576101e2915f016101bd565b90565b610078565b151590565b6101f8906101ea565b9052565b919061020f905f602085019401906101ef565b565b346102415761023d61022c6102273660046101cc565b610364565b610234610072565b918291826101fc565b0390f35b610129565b90565b61025281610246565b0361025957565b5f80fd5b9050359061026a82610249565b565b9060208282031261028557610282915f0161025d565b90565b610078565b346102ba576102b66102a56102a036600461026c565b610370565b6102ad610072565b918291826101fc565b0390f35b610129565b5f80fd5b90565b6102da6102d56102df92610192565b6102c3565b610192565b90565b6102eb906102c6565b90565b6102f7906102e2565b90565b6103039061019d565b9052565b919061031a905f602085019401906102fa565b565b610325306102ee565b61035b7f4bc4a08204b81f0ab8f665c880d329e777ac3dc9ef755e44cb1633e85e30a7b891610352610072565b91829182610307565b0390a1565b5f90565b5061036d610360565b90565b50610379610360565b9056","linkReferences":{}},"methodIdentifiers":{"doSomething()":"82692679","isInitialized(address)":"d60b347f","isModuleType(uint256)":"ecd05961","onInstall(bytes)":"6d61fe70","onUninstall(bytes)":"8a91b0e3"},"id":50}