{"abi":[{"type":"function","name":"data","inputs":[{"name":"","type":"address","internalType":"address"}],"outputs":[{"name":"","type":"bytes","internalType":"bytes"}],"stateMutability":"view"},{"type":"function","name":"isInitialized","inputs":[{"name":"smartAccount","type":"address","internalType":"address"}],"outputs":[{"name":"","type":"bool","internalType":"bool"}],"stateMutability":"view"},{"type":"function","name":"isModuleType","inputs":[{"name":"moduleTypeId","type":"uint256","internalType":"uint256"}],"outputs":[{"name":"","type":"bool","internalType":"bool"}],"stateMutability":"pure"},{"type":"function","name":"onInstall","inputs":[{"name":"_data","type":"bytes","internalType":"bytes"}],"outputs":[],"stateMutability":"payable"},{"type":"function","name":"onUninstall","inputs":[{"name":"","type":"bytes","internalType":"bytes"}],"outputs":[],"stateMutability":"payable"},{"type":"function","name":"sudoDoExec","inputs":[{"name":"account","type":"address","internalType":"contract IERC7579Account"},{"name":"mode","type":"bytes32","internalType":"ExecMode"},{"name":"executionCalldata","type":"bytes","internalType":"bytes"}],"outputs":[],"stateMutability":"payable"},{"type":"error","name":"AlreadyInitialized","inputs":[{"name":"smartAccount","type":"address","internalType":"address"}]},{"type":"error","name":"NotInitialized","inputs":[{"name":"smartAccount","type":"address","internalType":"address"}]}],"bytecode":{"object":"0x608060405234601c57600e6020565b610cf561002b8239610cf590f35b6026565b60405190565b5f80fdfe60806040526004361015610013575b6105e7565b61001d5f3561007c565b80636d61fe70146100775780638a91b0e314610072578063b90d3d0c1461006d578063d60b347f14610068578063ea876c9f146100635763ecd059610361000e576105b2565b610541565b610465565b610409565b610140565b610116565b60e01c90565b60405190565b5f80fd5b5f80fd5b5f80fd5b5f80fd5b5f80fd5b909182601f830112156100d65781359167ffffffffffffffff83116100d15760200192600183028401116100cc57565b610098565b610094565b610090565b9060208282031261010c575f82013567ffffffffffffffff811161010757610103920161009c565b9091565b61008c565b610088565b5f0190565b61012a6101243660046100db565b906107f8565b610132610082565b8061013c81610111565b0390f35b61015461014e3660046100db565b906109c0565b61015c610082565b8061016681610111565b0390f35b5f80fd5b60018060a01b031690565b6101829061016e565b90565b61018e81610179565b0361019557565b5f80fd5b905035906101a682610185565b565b906020828203126101c1576101be915f01610199565b90565b610088565b90565b6101dd6101d86101e29261016e565b6101c6565b61016e565b90565b6101ee906101c9565b90565b6101fa906101e5565b90565b90610207906101f1565b5f5260205260405f2090565b634e487b7160e01b5f525f60045260245ffd5b634e487b7160e01b5f52602260045260245ffd5b906001600283049216801561025a575b602083101461025557565b610226565b91607f169161024a565b60209181520190565b5f5260205f2090565b905f92918054906102906102898361023a565b8094610264565b916001811690815f146102e757506001146102ab575b505050565b6102b8919293945061026d565b915f925b8184106102cf57505001905f80806102a6565b600181602092959395548486015201910192906102bc565b92949550505060ff19168252151560200201905f80806102a6565b9061030c91610276565b90565b601f801991011690565b634e487b7160e01b5f52604160045260245ffd5b906103379061030f565b810190811067ffffffffffffffff82111761035157604052565b610319565b9061037661036f92610366610082565b93848092610302565b038361032d565b565b905f1061038b5761038890610356565b90565b610213565b6103a5906103a05f915f926101fd565b610378565b90565b5190565b60209181520190565b90825f9392825e0152565b6103df6103e86020936103ed936103d6816103a8565b938480936103ac565b958691016103b5565b61030f565b0190565b6104069160208201915f8184039101526103c0565b90565b346104395761043561042461041f3660046101a8565b610390565b61042c610082565b918291826103f1565b0390f35b61016a565b151590565b61044c9061043e565b9052565b9190610463905f60208501940190610443565b565b346104955761049161048061047b3660046101a8565b610a08565b610488610082565b91829182610450565b0390f35b61016a565b6104a390610179565b90565b6104af8161049a565b036104b657565b5f80fd5b905035906104c7826104a6565b565b90565b6104d5816104c9565b036104dc57565b5f80fd5b905035906104ed826104cc565b565b9160608383031261053c57610506825f85016104ba565b9261051483602083016104e0565b92604082013567ffffffffffffffff811161053757610533920161009c565b9091565b61008c565b610088565b61055861054f3660046104ef565b92919091610c44565b610560610082565b8061056a81610111565b0390f35b90565b61057a8161056e565b0361058157565b5f80fd5b9050359061059282610571565b565b906020828203126105ad576105aa915f01610585565b90565b610088565b346105e2576105de6105cd6105c8366004610594565b610cd5565b6105d5610082565b91829182610450565b0390f35b61016a565b5f80fd5b5090565b601f602091010490565b1b90565b919060086106189102916106125f19846105f9565b926105f9565b9181191691161790565b61063661063161063b9261056e565b6101c6565b61056e565b90565b90565b919061065761065261065f93610622565b61063e565b9083546105fd565b9055565b5f90565b61067991610673610663565b91610641565b565b5b818110610687575050565b806106945f600193610667565b0161067c565b9190601f81116106aa575b505050565b6106b66106db9361026d565b9060206106c2846105ef565b830193106106e3575b6106d4906105ef565b019061067b565b5f80806106a5565b91506106d4819290506106cb565b1c90565b90610705905f19906008026106f1565b191690565b81610714916106f5565b906002021790565b9161072790826105eb565b9067ffffffffffffffff82116107e65761074b82610745855461023a565b8561069a565b5f90601f831160011461077e5791809161076d935f92610772575b505061070a565b90555b565b90915001355f80610766565b601f1983169161078d8561026d565b925f5b8181106107ce575091600293918560019694106107b4575b50505002019055610770565b6107c4910135601f8416906106f5565b90555f80806107a8565b91936020600181928787013581550195019201610790565b610319565b906107f6929161071c565b565b9061080d916108085f33906101fd565b6107eb565b565b90610822905f19906020036008026106f1565b8154169055565b905f916108406108388261026d565b92835461070a565b905555565b919290602082105f1461089e57601f841160011461086e5761086892935061070a565b90555b5b565b509061089461089993600161088b6108858561026d565b926105ef565b8201910161067b565b610829565b61086b565b506108d582936108af60019461026d565b6108ce6108bb856105ef565b820192601f8616806108e0575b506105ef565b019061067b565b60020217905561086c565b6108ec9088860361080f565b5f6108c8565b929091680100000000000000008211610952576020115f1461094357602081105f14610927576109219161070a565b90555b5b565b60019160ff19166109378461026d565b55600202019055610924565b60019150600202019055610925565b610319565b9081546109638161023a565b9081831161098c575b81831061097a575b50505050565b61098393610845565b5f808080610974565b610998838383876108f2565b61096c565b5f6109a791610957565b565b905f036109bb576109b99061099d565b565b610213565b50506109d65f6109d18133906101fd565b6109a9565b565b5f90565b6109e6905461023a565b90565b90565b610a006109fb610a05926109e9565b6101c6565b61056e565b90565b610a1e610a2391610a176109d8565b505f6101fd565b6109dc565b610a35610a2f5f6109ec565b9161056e565b1190565b610a42906101e5565b90565b60e01b90565b90610a5e610a57610082565b928361032d565b565b67ffffffffffffffff8111610a785760208091020190565b610319565b5f80fd5b67ffffffffffffffff8111610a9f57610a9b60209161030f565b0190565b610319565b90929192610ab9610ab482610a81565b610a4b565b93818552602085019082840111610ad557610ad3926103b5565b565b610a7d565b9080601f83011215610af857816020610af593519101610aa4565b90565b610090565b929190610b11610b0c82610a60565b610a4b565b9381855260208086019202810191838311610b685781905b838210610b37575050505050565b815167ffffffffffffffff8111610b6357602091610b588784938701610ada565b815201910190610b29565b610090565b610098565b9080601f83011215610b8b57816020610b8893519101610afd565b90565b610090565b90602082820312610bc0575f82015167ffffffffffffffff8111610bbb57610bb89201610b6d565b90565b61008c565b610088565b610bce906104c9565b90565b610bda90610bc5565b9052565b90825f939282370152565b9190610c0381610bfc81610c08956103ac565b8095610bde565b61030f565b0190565b91610c31939192610c2460408201945f830190610bd1565b6020818503910152610be9565b90565b610c3c610082565b3d5f823e3d90fd5b90610c745f610c54819594610a39565b92610c7f63d691c964919597610c68610082565b98899788968795610a45565b855260048501610c0c565b03925af18015610cb157610c91575b50565b610cac903d805f833e610ca4818361032d565b810190610b90565b610c8e565b610c34565b90565b610ccd610cc8610cd292610cb6565b6101c6565b61056e565b90565b610cdd6109d8565b50610cf1610ceb6002610cb9565b9161056e565b149056","linkReferences":{}},"methodIdentifiers":{"data(address)":"b90d3d0c","isInitialized(address)":"d60b347f","isModuleType(uint256)":"ecd05961","onInstall(bytes)":"6d61fe70","onUninstall(bytes)":"8a91b0e3","sudoDoExec(address,bytes32,bytes)":"ea876c9f"},"id":54}