{"abi":[{"type":"function","name":"isInitialized","inputs":[{"name":"smartAccount","type":"address","internalType":"address"}],"outputs":[{"name":"","type":"bool","internalType":"bool"}],"stateMutability":"view"},{"type":"function","name":"isModuleType","inputs":[{"name":"typeID","type":"uint256","internalType":"uint256"}],"outputs":[{"name":"","type":"bool","internalType":"bool"}],"stateMutability":"pure"},{"type":"function","name":"isValidSignatureWithSender","inputs":[{"name":"","type":"address","internalType":"address"},{"name":"hash","type":"bytes32","internalType":"bytes32"},{"name":"sig","type":"bytes","internalType":"bytes"}],"outputs":[{"name":"","type":"bytes4","internalType":"bytes4"}],"stateMutability":"view"},{"type":"function","name":"onInstall","inputs":[{"name":"_data","type":"bytes","internalType":"bytes"}],"outputs":[],"stateMutability":"payable"},{"type":"function","name":"onUninstall","inputs":[{"name":"","type":"bytes","internalType":"bytes"}],"outputs":[],"stateMutability":"payable"},{"type":"function","name":"validateUserOp","inputs":[{"name":"userOp","type":"tuple","internalType":"struct PackedUserOperation","components":[{"name":"sender","type":"address","internalType":"address"},{"name":"nonce","type":"uint256","internalType":"uint256"},{"name":"initCode","type":"bytes","internalType":"bytes"},{"name":"callData","type":"bytes","internalType":"bytes"},{"name":"accountGasLimits","type":"bytes32","internalType":"bytes32"},{"name":"preVerificationGas","type":"uint256","internalType":"uint256"},{"name":"gasFees","type":"bytes32","internalType":"bytes32"},{"name":"paymasterAndData","type":"bytes","internalType":"bytes"},{"name":"signature","type":"bytes","internalType":"bytes"}]},{"name":"userOpHash","type":"bytes32","internalType":"bytes32"}],"outputs":[{"name":"","type":"uint256","internalType":"uint256"}],"stateMutability":"payable"},{"type":"function","name":"webAuthnValidatorStorage","inputs":[{"name":"kernel","type":"address","internalType":"address"}],"outputs":[{"name":"pubKeyX","type":"uint256","internalType":"uint256"},{"name":"pubKeyY","type":"uint256","internalType":"uint256"}],"stateMutability":"view"},{"type":"event","name":"OwnerRegistered","inputs":[{"name":"kernel","type":"address","indexed":true,"internalType":"address"},{"name":"owner","type":"address","indexed":true,"internalType":"address"}],"anonymous":false},{"type":"event","name":"WebAuthnPublicKeyRegistered","inputs":[{"name":"kernel","type":"address","indexed":true,"internalType":"address"},{"name":"authenticatorIdHash","type":"bytes32","indexed":true,"internalType":"bytes32"},{"name":"pubKeyX","type":"uint256","indexed":false,"internalType":"uint256"},{"name":"pubKeyY","type":"uint256","indexed":false,"internalType":"uint256"}],"anonymous":false},{"type":"error","name":"AlreadyInitialized","inputs":[{"name":"smartAccount","type":"address","internalType":"address"}]},{"type":"error","name":"InvalidPublicKey","inputs":[]},{"type":"error","name":"InvalidTargetAddress","inputs":[{"name":"target","type":"address","internalType":"address"}]},{"type":"error","name":"NotInitialized","inputs":[{"name":"smartAccount","type":"address","internalType":"address"}]}],"bytecode":{"object":"0x60808060405234601557610faf908161001b8239f35b600080fdfe6040608081526004908136101561001557600080fd5b6000803560e01c80636d61fe70146102335780638a91b0e3146101bd5780639343e7591461017c5780639700320314610137578063d60b347f146100ec578063ecd05961146100ca5763f551e2ee1461006d57600080fd5b346100c75760603660031901126100c757610086610364565b50604435906001600160401b0382116100c757506100ac6020936100b592369101610332565b5060243561056c565b90516001600160e01b03199091168152f35b80fd5b508290346100c75760203660031901126100c757506001602092519135148152f35b5090346101335760203660031901126101335760209061012a61010d610364565b6001600160a01b0316600090815260208190526040902054151590565b90519015158152f35b5080fd5b506003199082823601126100c7578335916001600160401b038311610133576101209083360301126100c757506020926101759160243591016104a5565b9051908152f35b509034610133576020366003190112610133579081906001600160a01b036101a2610364565b16815280602052206001815491015482519182526020820152f35b5091602036600319011261022f5780356001600160401b03811161022b576101e89036908301610332565b50503360009081526020819052604090205415610215575060018291338352826020528220828155015580f35b602491519063f91bd6f160e01b82523390820152fd5b8380fd5b8280fd5b5091602036600319011261022f5780356001600160401b03811161022b5761025e9036908301610332565b3360009081526020819052604090205461031c5781908101036060811261031857831361022b5782516102908161037a565b813592838252602083013560208301948186521590811561030f575b5061030157507fdaa12c36d531747b295ac442f2dc73409156b4e78117b4b178bc019014b6cf5b916001859233885287602052838820905195868255519182910155825194855260208501520135923392a380f35b845163145a1fdd60e31b8152fd5b905015386102ac565b8480fd5b83516393360fbf60e01b81523381850152602490fd5b9181601f8401121561035f578235916001600160401b03831161035f576020838186019501011161035f57565b600080fd5b600435906001600160a01b038216820361035f57565b604081019081106001600160401b0382111761039557604052565b634e487b7160e01b600052604160045260246000fd5b60c081019081106001600160401b0382111761039557604052565b90601f801991011681019081106001600160401b0382111761039557604052565b90602090818382031261035f5782356001600160401b039384821161035f570181601f8201121561035f578035938411610395578360051b9060405194610430858401876103c6565b8552838086019282010192831161035f578301905b828210610453575050505090565b81358152908301908301610445565b1561046957565b60405162461bcd60e51b81526020600482015260146024820152733430b9b41034b9903737ba1034b710383937b7b360611b6044820152606490fd5b61010081013590601e198136030182121561035f570180356001600160401b03811161035f5760208201903603811361035f573581019160208301359160408101350190602060408301920135928015610560578060201161035f5761052a60409261052f926105258860608761055d9b013597889483010191016103e7565b610742565b610462565b6020527b19457468657265756d205369676e6564204d6573736167653a0a3332600052603c6004203361065b565b90565b5061055d93503361065b565b90602091813582019283359281810135019181830192359380156105fb5780831161035f5761052a83926105b492610525896040876105e09c013598899483010191016103e7565b527b19457468657265756d205369676e6564204d6573736167653a0a3332600052603c6004203361065b565b6105ef57630b135d3f60e11b90565b6001600160e01b031990565b5090506105e093503361065b565b6001600160401b03811161039557601f01601f191660200190565b92919261063082610609565b9161063e60405193846103c6565b82948184528183011161035f578281602093846000960137010152565b92919091810160c08282031261035f576001600160401b03823581811161035f5783019180601f8401121561035f5761069b816020948581359101610624565b918385013590811161035f5784019080601f8301121561035f5781846106c393359101610624565b9260a081013594851515860361035f576107349660018060a01b03166000526000845260406000206001604051916106fa8361037a565b805483520154948082019586526040519281840152825261071a8261037a565b5193519460808301359360406060850135940135926107e5565b61073d57600190565b600090565b919091805180610753575b50501490565b919060209060208082019160059560051b0101925b81518111851b9081528282519118528160406000209101938385101561078f579390610768565b5092505050388061074d565b9081518110156107ac570160200190565b634e487b7160e01b600052603260045260246000fd5b60005b8381106107d55750506000910152565b81810151838201526020016107c5565b979593919096949297600197805160258110908115610ba4575b50610b9b575b6040928351926108148461037a565b601584526108428c8360209674113a3cb832911d113bb2b130baba34371733b2ba1160591b88820152610ca4565b15610b92575b845160608101918183106001600160401b03841117610395576108b99287528682527f4142434445464748494a4b4c4d4e4f505152535455565758595a616263646566868301527f6768696a6b6c6d6e6f707172737475767778797a303132333435363738392b2f87830152610e7b565b60008151600281119081610b4e575b5015610aed57506002905b8051918203918211610ad75782906108ea83610609565b926108f7885194856103c6565b80845261090381610609565b8488019290601f190136843760005b828110610a525750505061096a602e61096f94610950938a519485926c1131b430b63632b733b2911d1160991b8c850152518092602d8501906107c2565b8101601160f91b602d82015203600e8101845201826103c6565b610c31565b15610a49575b600061098e8492838751928284809451938492016107c2565b8101039060025afa15610a3e576109e360009182516109d38680518093886109bf81840197888151938492016107c2565b8201908982015203878101845201826103c6565b85519283928392519283916107c2565b8101039060025afa15610a3457506000519660001914610a2557610a079596610d9e565b9081610a1d575b50610a1857600090565b600190565b905038610a0e565b91935091935061055d94610d0a565b513d6000823e3d90fd5b82513d6000823e3d90fd5b60009950610975565b92935090916001906001600160f81b0319602b60f81b81610a73848761079b565b511603610a945750602d610a87828861079b565b535b019085939291610912565b602f60f81b81610aa4848761079b565b511603610abe5750605f610ab8828861079b565b53610a89565b610ac8828561079b565b511660001a610ab8828861079b565b634e487b7160e01b600052601160045260246000fd5b908051600181119081610b0a575b50156108d357600191506108d3565b600019810191508111610b3a57603d60f81b906001600160f81b031990610b31908461079b565b51161438610afb565b634e487b7160e01b83526011600452602483fd5b600119810191508111610b7e57603d60f81b906001600160f81b031990610b75908561079b565b511614386108c8565b634e487b7160e01b82526011600452602482fd5b60009a50610848565b60009850610805565b9050602010156107ac576040810151610bc6906001600160f81b031916610bcd565b15386107ff565b6001600160f81b0319600160f81b821601610c1e57603f60fa1b600160fa1b821601610c1e57601f60fb1b600160fb1b821601610c0b575b50600190565b600160fc1b9081161461073d5738610c05565b50600090565b91908201809211610ad757565b9081519181519060005b848110610c4c575050505050600190565b6017818101809111610ad75783811015610c99576001600160f81b0319610c8081610c77858761079b565b5116928761079b565b511603610c8f57600101610c3b565b5050505050600090565b505050505050600090565b9190825192815160005b858110610cc057505050505050600190565b81610ccb8287610c24565b1015610c99576001600160f81b031980610ce5838661079b565b511690610cfb610cf58489610c24565b8761079b565b511603610c9957600101610cae565b9192937f7fffffff800000007fffffffffffffffde737d56d38bcf4279dce5617e3192a88411610c8f576000948594604051936020850195865260408501526060840152608083015260a082015260a08152610d65816103ab565b519073c2b78104907f722dabac4c69f826a522b2754de45afa50610d87610dd3565b60208180518101031261035f576020015160011490565b94939291907f7fffffff800000007fffffffffffffffde737d56d38bcf4279dce5617e3192a88211610c995761055d95610e03565b3d15610dfe573d90610de482610609565b91610df260405193846103c6565b82523d6000602084013e565b606090565b92936000959192948695604051946020860196875260408601526060850152608084015260a083015260a08252610e39826103ab565b8314610d655751906101005afa610e4e610dd3565b90158015610e72575b610c1e5760208180518101031261035f576020015160011490565b50805115610e57565b919091805115610f895780519260029160028501809511610ad757600394859004600281901b93906001600160fe1b03811603610ad75794610ed5610ebf85610609565b94610ecd60405196876103c6565b808652610609565b6020850190601f190136823792829183518401976020890192835194600085525b8a8110610f3c57505050506003939495965052510680600114610f2957600214610f1e575090565b603d90600019015390565b50603d9081600019820153600119015390565b836004919b989b019a8b51600190603f9082828260121c16870101518453828282600c1c16870101518385015382828260061c168701015187850153168401015185820153019699610ef6565b509050604051602081018181106001600160401b0382111761039557604052600081529056","linkReferences":{}},"methodIdentifiers":{"isInitialized(address)":"d60b347f","isModuleType(uint256)":"ecd05961","isValidSignatureWithSender(address,bytes32,bytes)":"f551e2ee","onInstall(bytes)":"6d61fe70","onUninstall(bytes)":"8a91b0e3","validateUserOp((address,uint256,bytes,bytes,bytes32,uint256,bytes32,bytes,bytes),bytes32)":"97003203","webAuthnValidatorStorage(address)":"9343e759"},"id":73}