{"abi":[{"type":"function","name":"checkSignature","inputs":[{"name":"id","type":"bytes32","internalType":"bytes32"},{"name":"sender","type":"address","internalType":"address"},{"name":"hash","type":"bytes32","internalType":"bytes32"},{"name":"sig","type":"bytes","internalType":"bytes"}],"outputs":[{"name":"","type":"bytes4","internalType":"bytes4"}],"stateMutability":"view"},{"type":"function","name":"checkUserOpSignature","inputs":[{"name":"id","type":"bytes32","internalType":"bytes32"},{"name":"userOp","type":"tuple","internalType":"struct PackedUserOperation","components":[{"name":"sender","type":"address","internalType":"address"},{"name":"nonce","type":"uint256","internalType":"uint256"},{"name":"initCode","type":"bytes","internalType":"bytes"},{"name":"callData","type":"bytes","internalType":"bytes"},{"name":"accountGasLimits","type":"bytes32","internalType":"bytes32"},{"name":"preVerificationGas","type":"uint256","internalType":"uint256"},{"name":"gasFees","type":"bytes32","internalType":"bytes32"},{"name":"paymasterAndData","type":"bytes","internalType":"bytes"},{"name":"signature","type":"bytes","internalType":"bytes"}]},{"name":"userOpHash","type":"bytes32","internalType":"bytes32"}],"outputs":[{"name":"","type":"uint256","internalType":"uint256"}],"stateMutability":"payable"},{"type":"function","name":"isInitialized","inputs":[{"name":"wallet","type":"address","internalType":"address"}],"outputs":[{"name":"","type":"bool","internalType":"bool"}],"stateMutability":"view"},{"type":"function","name":"isModuleType","inputs":[{"name":"typeID","type":"uint256","internalType":"uint256"}],"outputs":[{"name":"","type":"bool","internalType":"bool"}],"stateMutability":"pure"},{"type":"function","name":"onInstall","inputs":[{"name":"data","type":"bytes","internalType":"bytes"}],"outputs":[],"stateMutability":"payable"},{"type":"function","name":"onUninstall","inputs":[{"name":"data","type":"bytes","internalType":"bytes"}],"outputs":[],"stateMutability":"payable"},{"type":"function","name":"signer","inputs":[{"name":"id","type":"bytes32","internalType":"bytes32"},{"name":"wallet","type":"address","internalType":"address"}],"outputs":[{"name":"","type":"address","internalType":"address"}],"stateMutability":"view"},{"type":"function","name":"usedIds","inputs":[{"name":"","type":"address","internalType":"address"}],"outputs":[{"name":"","type":"uint256","internalType":"uint256"}],"stateMutability":"view"},{"type":"function","name":"validateSignatureWithData","inputs":[{"name":"hash","type":"bytes32","internalType":"bytes32"},{"name":"signature","type":"bytes","internalType":"bytes"},{"name":"data","type":"bytes","internalType":"bytes"}],"outputs":[{"name":"","type":"bool","internalType":"bool"}],"stateMutability":"view"},{"type":"function","name":"validateSignatureWithDataWithSender","inputs":[{"name":"","type":"address","internalType":"address"},{"name":"hash","type":"bytes32","internalType":"bytes32"},{"name":"signature","type":"bytes","internalType":"bytes"},{"name":"data","type":"bytes","internalType":"bytes"}],"outputs":[{"name":"","type":"bool","internalType":"bool"}],"stateMutability":"view"},{"type":"error","name":"AlreadyInitialized","inputs":[{"name":"smartAccount","type":"address","internalType":"address"}]},{"type":"error","name":"NotInitialized","inputs":[{"name":"smartAccount","type":"address","internalType":"address"}]}],"bytecode":{"object":"0x608060405234601c57600e6020565b61115061002b823961115090f35b6026565b60405190565b5f80fdfe60806040526004361015610013575b6107b2565b61001d5f356100bc565b80630ccab7a1146100b7578063244d6cb2146100b2578063392dffaf146100ad5780633d4e44be146100a85780636d61fe70146100a35780638a3646e31461009e5780638a91b0e314610099578063940d384014610094578063d60b347f1461008f5763ecd059610361000e5761077d565b610707565b6106ce565b610639565b610603565b610500565b610489565b6103ae565b6102a0565b610186565b60e01c90565b60405190565b5f80fd5b5f80fd5b90565b6100dc816100d0565b036100e357565b5f80fd5b905035906100f4826100d3565b565b5f80fd5b90816101209103126101095790565b6100f6565b909160608284031261015c57610126835f84016100e7565b9260208301359067ffffffffffffffff82116101575761014b816101549386016100fa565b936040016100e7565b90565b6100cc565b6100c8565b90565b61016d90610161565b9052565b9190610184905f60208501940190610164565b565b6101ae61019d61019736600461010e565b9161088a565b6101a56100c2565b91829182610171565b0390f35b5f80fd5b60018060a01b031690565b6101ca906101b6565b90565b6101d6816101c1565b036101dd57565b5f80fd5b905035906101ee826101cd565b565b9060208282031261020957610206915f016101e1565b90565b6100c8565b90565b61022561022061022a926101b6565b61020e565b6101b6565b90565b61023690610211565b90565b6102429061022d565b90565b9061024f90610239565b5f5260205260405f2090565b1c90565b90565b610272906008610277930261025b565b61025f565b90565b906102859154610262565b90565b61029d906102985f915f92610245565b61027a565b90565b346102d0576102cc6102bb6102b63660046101f0565b610288565b6102c36100c2565b91829182610171565b0390f35b6101b2565b5f80fd5b5f80fd5b5f80fd5b909182601f8301121561031b5781359167ffffffffffffffff831161031657602001926001830284011161031157565b6102dd565b6102d9565b6102d5565b9060808282031261037b57610337815f84016100e7565b9261034582602085016101e1565b9261035383604083016100e7565b92606082013567ffffffffffffffff81116103765761037292016102e1565b9091565b6100cc565b6100c8565b63ffffffff60e01b1690565b61039590610380565b9052565b91906103ac905f6020850194019061038c565b565b346103e2576103de6103cd6103c4366004610320565b93929092610952565b6103d56100c2565b91829182610399565b0390f35b6101b2565b919060808382031261045d576103ff815f85016101e1565b9261040d82602083016100e7565b92604082013567ffffffffffffffff8111610458578361042e9184016102e1565b929093606082013567ffffffffffffffff81116104535761044f92016102e1565b9091565b6100cc565b6100cc565b6100c8565b151590565b61047090610462565b9052565b9190610487905f60208501940190610467565b565b346104c0576104bc6104ab61049f3660046103e7565b94939093929192610a7f565b6104b36100c2565b91829182610474565b0390f35b6101b2565b906020828203126104f6575f82013567ffffffffffffffff81116104f1576104ed92016102e1565b9091565b6100cc565b6100c8565b5f0190565b61051461050e3660046104c5565b90610b2d565b61051c6100c2565b80610526816104fb565b0390f35b9190604083820312610552578061054661054f925f86016100e7565b936020016101e1565b90565b6100c8565b610560906100d0565b90565b9061056d90610557565b5f5260205260405f2090565b9061058390610239565b5f5260205260405f2090565b60018060a01b031690565b6105aa9060086105af930261025b565b61058f565b90565b906105bd915461059a565b90565b6105d96105de926105d46001935f94610563565b610579565b6105b2565b90565b6105ea906101c1565b9052565b9190610601905f602085019401906105e1565b565b346106345761063061061f61061936600461052a565b906105c0565b6106276100c2565b918291826105ee565b0390f35b6101b2565b61064d6106473660046104c5565b90610b83565b6106556100c2565b8061065f816104fb565b0390f35b6060818303126106c957610679825f83016100e7565b92602082013567ffffffffffffffff81116106c4578361069a9184016102e1565b929093604082013567ffffffffffffffff81116106bf576106bb92016102e1565b9091565b6100cc565b6100cc565b6100c8565b34610702576106fe6106ed6106e4366004610663565b93929092610bd9565b6106f56100c2565b91829182610474565b0390f35b6101b2565b346107375761073361072261071d3660046101f0565b610c49565b61072a6100c2565b91829182610474565b0390f35b6101b2565b61074581610161565b0361074c57565b5f80fd5b9050359061075d8261073c565b565b9060208282031261077857610775915f01610750565b90565b6100c8565b346107ad576107a961079861079336600461075f565b610cfe565b6107a06100c2565b91829182610474565b0390f35b6101b2565b5f80fd5b5f90565b5f1c90565b6107cb6107d0916107ba565b61058f565b90565b6107dd90546107bf565b90565b5f80fd5b5f80fd5b5f80fd5b90359060016020038136030382121561082e570180359067ffffffffffffffff82116108295760200191600182023603831361082457565b6107e8565b6107e4565b6107e0565b90565b61084a61084561084f92610833565b61020e565b610161565b90565b61085c6001610836565b90565b90565b61087661087161087b9261085f565b61020e565b610161565b90565b6108875f610862565b90565b916108c46108b76108b26108ab6108cb966108a36107b6565b506001610563565b3390610579565b6107d3565b91926101008101906107ec565b9192610d78565b5f146108dd576108d961087e565b5b90565b6108e5610852565b6108da565b5f90565b90565b60e01b90565b61090b610906610910926108ee565b6108f1565b610380565b90565b61092063ffffffff6108f7565b90565b90565b61093a61093561093f92610923565b6108f1565b610380565b90565b61094f631626ba7e610926565b90565b61098894915061097961097261097e9261096a6108ea565b506001610563565b3390610579565b6107d3565b9192909192610d78565b5f1461099a57610996610942565b5b90565b6109a2610913565b610997565b5f90565b90565b6109c26109bd6109c7926109ab565b61020e565b610161565b90565b5f80fd5b5f80fd5b909392938483116109f25784116109ed576001820201920390565b6109ce565b6109ca565b5090565b6bffffffffffffffffffffffff191690565b1b90565b90610a1f610a2691836109f7565b91356109fb565b9060148110610a34575b5090565b610a52906bffffffffffffffffffffffff1990601403600802610a0d565b165f610a30565b60601c90565b610a6b610a7091610a59565b610211565b90565b610a7c90610a5f565b90565b50610ac1610abb610acc96610ac69396959496610a9a6109a7565b50969495905f90610ab5610aaf601493610862565b926109ae565b926109d2565b90610a11565b610a73565b92610d78565b90565b90565b610ae6610ae1610aeb92610acf565b61020e565b610161565b90565b90610afc610b0391836109f7565b91356100d0565b9060208110610b11575b5090565b610b23905f1990602003600802610a0d565b165f610b0d565b91565b610b7b610b75610b8193610b61610b5b85835f90610b55610b4f602093610862565b92610ad2565b926109d2565b90610aee565b9390610b6d6020610ad2565b9080926109d2565b90610b2a565b91610ed6565b565b610bd1610bcb610bd793610bb7610bb185835f90610bab610ba5602093610862565b92610ad2565b926109d2565b90610aee565b9390610bc36020610ad2565b9080926109d2565b90610b2a565b9161100f565b565b610c1a610c14610c2596610c1f9396959496610bf36109a7565b50969495905f90610c0e610c08601493610862565b926109ae565b926109d2565b90610a11565b610a73565b92610d78565b90565b610c34610c39916107ba565b61025f565b90565b610c469054610c28565b90565b610c5f610c6491610c586109a7565b505f610245565b610c3c565b610c76610c705f610862565b91610161565b1190565b90565b610c91610c8c610c9692610c7a565b61020e565b610161565b90565b610ca36006610c7d565b90565b90565b610cbd610cb8610cc292610ca6565b61020e565b610161565b90565b610ccf6007610ca9565b90565b90565b610ce9610ce4610cee92610cd2565b61020e565b610161565b90565b610cfb6008610cd5565b90565b610d066109a7565b5080610d21610d1b610d16610c99565b610161565b91610161565b148015610d57575b908115610d35575b5090565b9050610d50610d4a610d45610cf1565b610161565b91610161565b145f610d31565b5080610d72610d6c610d67610cc5565b610161565b91610161565b14610d29565b919091610d836109a7565b5083610da2610d9c610d978487879161109a565b6101c1565b916101c1565b14610dd257610dce92610dc892610dbb610dc39361111d565b91909161109a565b6101c1565b916101c1565b1490565b50505050600190565b610def610dea610df49261085f565b61020e565b6101b6565b90565b610e0090610ddb565b90565b15610e0a57565b5f80fd5b634e487b7160e01b5f52601160045260245ffd5b610e2b90610161565b5f198114610e395760010190565b610e0e565b5f1b90565b90610e4f5f1991610e3e565b9181191691161790565b610e6d610e68610e7292610161565b61020e565b610161565b90565b90565b90610e8d610e88610e9492610e59565b610e75565b8254610e43565b9055565b90610ea960018060a01b0391610e3e565b9181191691161790565b90565b90610ecb610ec6610ed292610239565b610eb3565b8254610e98565b9055565b90610f81610f79610f74610f6e610f8d96610f8895610f2c610f0c610f07610f0060018c90610563565b3390610579565b6107d3565b610f26610f20610f1b5f610df7565b6101c1565b916101c1565b14610e03565b610f51610f3a5f3390610245565b610f4b610f4682610c3c565b610e22565b90610e78565b905f90610f68610f62601493610862565b926109ae565b926109d2565b90610a11565b610a73565b926001610563565b3390610579565b610eb6565b565b91906008610faf910291610fa960018060a01b0384610a0d565b92610a0d565b9181191691161790565b9190610fcf610fca610fd793610239565b610eb3565b908354610f8f565b9055565b5f90565b610ff191610feb610fdb565b91610fb9565b565b610ffc90610161565b5f811461100a576001900390565b610e0e565b61107392505f915061106761106e9161106061103f61103a61103360018590610563565b3390610579565b6107d3565b61105961105361104e88610df7565b6101c1565b916101c1565b1415610e03565b6001610563565b3390610579565b610fdf565b6110986110815f3390610245565b61109261108d82610c3c565b610ff3565b90610e78565b565b929190926110a6610fdb565b9360405192806040146110f2576041146110c0575050505b565b604080929395508101355f1a60205281375b5f526020604060805f60015afa505f6060523d60601851916040526110be565b5090919350602081013590601b8260ff1c016020523560405260011b60011c6060526110d2565b5f90565b611125611119565b506020527b19457468657265756d205369676e6564204d6573736167653a0a33325f52603c6004209056","linkReferences":{}},"methodIdentifiers":{"checkSignature(bytes32,address,bytes32,bytes)":"392dffaf","checkUserOpSignature(bytes32,(address,uint256,bytes,bytes,bytes32,uint256,bytes32,bytes,bytes),bytes32)":"0ccab7a1","isInitialized(address)":"d60b347f","isModuleType(uint256)":"ecd05961","onInstall(bytes)":"6d61fe70","onUninstall(bytes)":"8a91b0e3","signer(bytes32,address)":"8a3646e3","usedIds(address)":"244d6cb2","validateSignatureWithData(bytes32,bytes,bytes)":"940d3840","validateSignatureWithDataWithSender(address,bytes32,bytes,bytes)":"3d4e44be"},"id":2}