{"abi":[{"type":"constructor","inputs":[{"name":"_impl","type":"address","internalType":"address"}],"stateMutability":"nonpayable"},{"type":"function","name":"createAccount","inputs":[{"name":"data","type":"bytes","internalType":"bytes"},{"name":"salt","type":"bytes32","internalType":"bytes32"}],"outputs":[{"name":"","type":"address","internalType":"address"}],"stateMutability":"payable"},{"type":"function","name":"getAddress","inputs":[{"name":"data","type":"bytes","internalType":"bytes"},{"name":"salt","type":"bytes32","internalType":"bytes32"}],"outputs":[{"name":"","type":"address","internalType":"address"}],"stateMutability":"view"},{"type":"function","name":"implementation","inputs":[],"outputs":[{"name":"","type":"address","internalType":"address"}],"stateMutability":"view"},{"type":"error","name":"InitializeError","inputs":[]}],"bytecode":{"object":"0x60a0604052346100465761001961001461010b565b61012c565b61002161004b565b6106bf610132823960805181818161019a0152818161035b015261047501526106bf90f35b610051565b60405190565b5f80fd5b601f801991011690565b634e487b7160e01b5f52604160045260245ffd5b9061007d90610055565b810190811060018060401b0382111761009557604052565b61005f565b906100ad6100a661004b565b9283610073565b565b5f80fd5b60018060a01b031690565b6100c7906100b3565b90565b6100d3816100be565b036100da57565b5f80fd5b905051906100eb826100ca565b565b9060208282031261010657610103915f016100de565b90565b6100af565b6101296107f18038038061011e8161009a565b9283398101906100ed565b90565b60805256fe60806040526004361015610013575b61021d565b61001d5f3561004c565b806348aac392146100475780635c60da1b146100425763ea6d13ac0361000e576101f1565b6101bc565b610153565b60e01c90565b60405190565b5f80fd5b5f80fd5b5f80fd5b5f80fd5b5f80fd5b5f80fd5b909182601f830112156100aa5781359167ffffffffffffffff83116100a55760200192600183028401116100a057565b61006c565b610068565b610064565b90565b6100bb816100af565b036100c257565b5f80fd5b905035906100d3826100b2565b565b91604083830312610115575f83013567ffffffffffffffff8111610110576101028361010d928601610070565b9390946020016100c6565b90565b610060565b61005c565b60018060a01b031690565b61012e9061011a565b90565b61013a90610125565b9052565b9190610151905f60208501940190610131565b565b346101845761018061016f6101693660046100d5565b9161030c565b610177610052565b9182918261013e565b0390f35b610058565b5f91031261019357565b61005c565b7f000000000000000000000000000000000000000000000000000000000000000090565b346101ec576101cc366004610189565b6101e86101d7610198565b6101df610052565b9182918261013e565b0390f35b610058565b6102196102086102023660046100d5565b91610422565b610210610052565b9182918261013e565b0390f35b5f80fd5b5f90565b905090565b90825f939282370152565b9091826102458161024c93610225565b809361022a565b0190565b90565b61025f610264916100af565b610250565b9052565b610279906020949361028093610235565b8092610253565b0190565b601f801991011690565b634e487b7160e01b5f52604160045260245ffd5b906102ac90610284565b810190811067ffffffffffffffff8211176102c657604052565b61028e565b60200190565b5190565b90565b6102ec6102e76102f19261011a565b6102d5565b61011a565b90565b6102fd906102d8565b90565b610309906102f4565b90565b61038a929161033761034692610320610221565b50919361032b610052565b94859360208501610268565b602082018103825203826102a2565b610358610352826102d1565b916102cb565b207f00000000000000000000000000000000000000000000000000000000000000009061038430610300565b91610505565b90565b151590565b909161039d92610235565b90565b906103b36103ac610052565b92836102a2565b565b67ffffffffffffffff81116103d3576103cf602091610284565b0190565b61028e565b906103ea6103e5836103b5565b6103a0565b918252565b606090565b3d5f1461040f576104043d6103d8565b903d5f602084013e5b565b6104176103ef565b9061040d565b5f0190565b61049b6104a393610431610221565b5061045e8361044f8693610443610052565b94859360208501610268565b602082018103825203826102a2565b61047061046a826102d1565b916102cb565b2034907f0000000000000000000000000000000000000000000000000000000000000000909161052a565b93901561038d565b6104ad575b505090565b5f80916104de938286926104cb6104c2610052565b93849283610392565b03925af16104d76103f4565b501561038d565b6104e9575f806104a8565b5f63487e630960e11b8152806105016004820161041d565b0390fd5b9161051b61052393610515610221565b5061061d565b919091610698565b90565b5f90565b9290610534610526565b61053c610221565b50604051917fcc3735a920a3ca505d382bbc545af43d6000803e6038573d6000fd5b3d6000f36060527f5155f3363d3d373d3d363d7f360894a13ba1a3210667c828492db98dca3e2076604052616009602052601e5268603d3d8160223d3973600a52605f60212060358301523060581b825260ff82538360158301526055822093843b156105fc57505060019380156105f6575f908138913890875af1156105e9575b6040525f606052565b63b12d13eb5f526004601cfd5b506105e0565b919350936021605f91f591826105e05763301164255f526004601cfd5b5f90565b90610626610619565b50604051917fcc3735a920a3ca505d382bbc545af43d6000803e6038573d6000fd5b3d6000f36060527f5155f3363d3d373d3d363d7f360894a13ba1a3210667c828492db98dca3e2076604052616009602052601e5268603d3d8160223d3973600a52605f602120916040525f606052565b9190916106a3610221565b5060ff5f5360355260601b60015260155260555f20905f60355256","linkReferences":{}},"methodIdentifiers":{"createAccount(bytes,bytes32)":"ea6d13ac","getAddress(bytes,bytes32)":"48aac392","implementation()":"5c60da1b"},"id":40}