{"abi":[{"type":"constructor","inputs":[{"name":"_owner","type":"address","internalType":"address"}],"stateMutability":"nonpayable"},{"type":"function","name":"approveFactory","inputs":[{"name":"factory","type":"address","internalType":"contract KernelFactory"},{"name":"approval","type":"bool","internalType":"bool"}],"outputs":[],"stateMutability":"payable"},{"type":"function","name":"approved","inputs":[{"name":"","type":"address","internalType":"contract KernelFactory"}],"outputs":[{"name":"","type":"bool","internalType":"bool"}],"stateMutability":"view"},{"type":"function","name":"cancelOwnershipHandover","inputs":[],"outputs":[],"stateMutability":"payable"},{"type":"function","name":"completeOwnershipHandover","inputs":[{"name":"pendingOwner","type":"address","internalType":"address"}],"outputs":[],"stateMutability":"payable"},{"type":"function","name":"deployWithFactory","inputs":[{"name":"factory","type":"address","internalType":"contract KernelFactory"},{"name":"createData","type":"bytes","internalType":"bytes"},{"name":"salt","type":"bytes32","internalType":"bytes32"}],"outputs":[{"name":"","type":"address","internalType":"address"}],"stateMutability":"payable"},{"type":"function","name":"owner","inputs":[],"outputs":[{"name":"result","type":"address","internalType":"address"}],"stateMutability":"view"},{"type":"function","name":"ownershipHandoverExpiresAt","inputs":[{"name":"pendingOwner","type":"address","internalType":"address"}],"outputs":[{"name":"result","type":"uint256","internalType":"uint256"}],"stateMutability":"view"},{"type":"function","name":"renounceOwnership","inputs":[],"outputs":[],"stateMutability":"payable"},{"type":"function","name":"requestOwnershipHandover","inputs":[],"outputs":[],"stateMutability":"payable"},{"type":"function","name":"stake","inputs":[{"name":"entryPoint","type":"address","internalType":"contract IEntryPoint"},{"name":"unstakeDelay","type":"uint32","internalType":"uint32"}],"outputs":[],"stateMutability":"payable"},{"type":"function","name":"transferOwnership","inputs":[{"name":"newOwner","type":"address","internalType":"address"}],"outputs":[],"stateMutability":"payable"},{"type":"function","name":"unlockStake","inputs":[{"name":"entryPoint","type":"address","internalType":"contract IEntryPoint"}],"outputs":[],"stateMutability":"payable"},{"type":"function","name":"withdrawStake","inputs":[{"name":"entryPoint","type":"address","internalType":"contract IEntryPoint"},{"name":"recipient","type":"address","internalType":"address payable"}],"outputs":[],"stateMutability":"payable"},{"type":"event","name":"OwnershipHandoverCanceled","inputs":[{"name":"pendingOwner","type":"address","indexed":true,"internalType":"address"}],"anonymous":false},{"type":"event","name":"OwnershipHandoverRequested","inputs":[{"name":"pendingOwner","type":"address","indexed":true,"internalType":"address"}],"anonymous":false},{"type":"event","name":"OwnershipTransferred","inputs":[{"name":"oldOwner","type":"address","indexed":true,"internalType":"address"},{"name":"newOwner","type":"address","indexed":true,"internalType":"address"}],"anonymous":false},{"type":"error","name":"AlreadyInitialized","inputs":[]},{"type":"error","name":"NewOwnerIsZeroAddress","inputs":[]},{"type":"error","name":"NoHandoverRequest","inputs":[]},{"type":"error","name":"NotApprovedFactory","inputs":[]},{"type":"error","name":"Unauthorized","inputs":[]}],"bytecode":{"object":"0x60806040523461002f576100196100146100f4565b610115565b610021610034565b610ec46101c88239610ec490f35b61003a565b60405190565b5f80fd5b601f801991011690565b634e487b7160e01b5f52604160045260245ffd5b906100669061003e565b810190811060018060401b0382111761007e57604052565b610048565b9061009661008f610034565b928361005c565b565b5f80fd5b60018060a01b031690565b6100b09061009c565b90565b6100bc816100a7565b036100c357565b5f80fd5b905051906100d4826100b3565b565b906020828203126100ef576100ec915f016100c7565b90565b610098565b61011261108c8038038061010781610083565b9283398101906100d6565b90565b61011e90610120565b565b6101286101bc565b5f1461018057638b78c6d8199081546101735760601b60601c90811560ff1b821790555f7f8be0079c531659141344cd1fd0a4f28419497f9722a3daafe3b4186f6b6457e08180a35b565b630dc149f05f526004601cfd5b60601b60601c80638b78c6d819555f7f8be0079c531659141344cd1fd0a4f28419497f9722a3daafe3b4186f6b6457e08180a3610171565b5f90565b6101c46101b8565b9056fe60806040526004361015610013575b610718565b61001d5f356100ec565b806325692962146100e75780634a1ce599146100e257806354d1f13d146100dd5780636e7dbabb146100d8578063715018a6146100d35780638da5cb5b146100ce578063b36f9705146100c9578063c5265d5d146100c4578063c7e55f3e146100bf578063d8b964e6146100ba578063f04e283e146100b5578063f2fde38b146100b05763fee81cf40361000e576106e3565b610695565b61066c565b6105f6565b6104f7565b61046f565b610381565b6102f0565b6102a1565b610277565b6101ca565b6101a1565b610110565b60e01c90565b60405190565b5f80fd5b5f91031261010657565b6100f8565b5f0190565b61011b3660046100fc565b610123610753565b61012b6100f2565b806101358161010b565b0390f35b5f80fd5b60018060a01b031690565b6101519061013d565b90565b61015d90610148565b90565b61016981610154565b0361017057565b5f80fd5b9050359061018182610160565b565b9060208282031261019c57610199915f01610174565b90565b6100f8565b6101b46101af366004610183565b6108c5565b6101bc6100f2565b806101c68161010b565b0390f35b6101d53660046100fc565b6101dd6108d0565b6101e56100f2565b806101ef8161010b565b0390f35b6101fc90610148565b90565b610208816101f3565b0361020f57565b5f80fd5b90503590610220826101ff565b565b151590565b61023081610222565b0361023757565b5f80fd5b9050359061024882610227565b565b9190604083820312610272578061026661026f925f8601610213565b9360200161023b565b90565b6100f8565b61028b61028536600461024a565b9061097c565b6102936100f2565b8061029d8161010b565b0390f35b6102ac3660046100fc565b6102b46109d8565b6102bc6100f2565b806102c68161010b565b0390f35b5f80fd5b6102d790610148565b9052565b91906102ee905f602085019401906102ce565b565b34610320576103003660046100fc565b61031c61030b6109e6565b6103136100f2565b918291826102db565b0390f35b6102ca565b61032e9061013d565b90565b61033a81610325565b0361034157565b5f80fd5b9050359061035282610331565b565b919060408382031261037c5780610370610379925f8601610174565b93602001610345565b90565b6100f8565b61039561038f366004610354565b90610ab7565b61039d6100f2565b806103a78161010b565b0390f35b5f80fd5b5f80fd5b5f80fd5b909182601f830112156103f15781359167ffffffffffffffff83116103ec5760200192600183028401116103e757565b6103b3565b6103af565b6103ab565b90565b610402816103f6565b0361040957565b5f80fd5b9050359061041a826103f9565b565b9060608282031261046a57610433815f8401610213565b92602083013567ffffffffffffffff811161046557610457836104629286016103b7565b93909460400161040d565b90565b610139565b6100f8565b61049a61048961048036600461041c565b92919091610b8e565b6104916100f2565b918291826102db565b0390f35b63ffffffff1690565b6104b08161049e565b036104b757565b5f80fd5b905035906104c8826104a7565b565b91906040838203126104f257806104e66104ef925f8601610174565b936020016104bb565b90565b6100f8565b61050b6105053660046104ca565b90610d1a565b6105136100f2565b8061051d8161010b565b0390f35b9060208282031261053a57610537915f01610213565b90565b6100f8565b90565b61055661055161055b9261013d565b61053f565b61013d565b90565b61056790610542565b90565b6105739061055e565b90565b906105809061056a565b5f5260205260405f2090565b1c90565b60ff1690565b6105a69060086105ab930261058c565b610590565b90565b906105b99154610596565b90565b6105d1906105cc5f915f92610576565b6105ae565b90565b6105dd90610222565b9052565b91906105f4905f602085019401906105d4565b565b346106265761062261061161060c366004610521565b6105bc565b6106196100f2565b918291826105e1565b0390f35b6102ca565b61063481610148565b0361063b57565b5f80fd5b9050359061064c8261062b565b565b9060208282031261066757610664915f0161063f565b90565b6100f8565b61067f61067a36600461064e565b610d6c565b6106876100f2565b806106918161010b565b0390f35b6106a86106a336600461064e565b610dab565b6106b06100f2565b806106ba8161010b565b0390f35b90565b6106ca906106be565b9052565b91906106e1905f602085019401906106c1565b565b346107135761070f6106fe6106f936600461064e565b610dba565b6107066100f2565b918291826106ce565b0390f35b6102ca565b5f80fd5b67ffffffffffffffff1690565b61073d6107386107429261071c565b61053f565b6106be565b90565b9061075091016106be565b90565b61076d42610767610762610df9565b610729565b90610745565b63389a75e1600c52335f526020600c2055337fdbf36a107da19e49527a7176a1babf963b4b0ff8cde35ee35d6cd8f1f9ac7e1d5f80a2565b6107b6906107b1610e11565b610840565b565b6107c190610542565b90565b6107cd906107b8565b90565b5f80fd5b601f801991011690565b634e487b7160e01b5f52604160045260245ffd5b906107fc906107d4565b810190811067ffffffffffffffff82111761081657604052565b6107de565b60e01b90565b5f91031261082b57565b6100f8565b6108386100f2565b3d5f823e3d90fd5b610849906107c4565b63bb9fe6bf90803b156108c05761086c915f916108646100f2565b93849261081b565b825281838161087d6004820161010b565b03925af180156108bb5761088f575b50565b6108ae905f3d81116108b4575b6108a681836107f2565b810190610821565b5f61088c565b503d61089c565b610830565b6107d0565b6108ce906107a5565b565b63389a75e1600c52335f525f6020600c2055337ffa7b8eab7da67f412cc9575ed43464468f9bfbae89d1675917346ca6d8fe3c925f80a2565b9061091b91610916610e11565b610967565b565b5f1b90565b9061092e60ff9161091d565b9181191691161790565b61094190610222565b90565b90565b9061095c61095761096392610938565b610944565b8254610922565b9055565b61097561097a92915f610576565b610947565b565b9061098691610909565b565b610990610e11565b6109986109c5565b565b90565b6109b16109ac6109b69261099a565b61053f565b61013d565b90565b6109c29061099d565b90565b6109d66109d15f6109b9565b610e2d565b565b6109e0610988565b565b5f90565b6109ee6109e2565b50638b78c6d8195490565b90610a0b91610a06610e11565b610a2f565b565b610a1690610325565b9052565b9190610a2d905f60208501940190610a0d565b565b610a38906107c4565b9063c23a5cea90823b15610ab257610a6f92610a645f8094610a586100f2565b9687958694859361081b565b835260048301610a1a565b03925af18015610aad57610a81575b50565b610aa0905f3d8111610aa6575b610a9881836107f2565b810190610821565b5f610a7e565b503d610a8e565b610830565b6107d0565b90610ac1916109f9565b565b5f1c90565b610ad4610ad991610ac3565b610590565b90565b610ae69054610ac8565b90565b610af2906107b8565b90565b90505190610b028261062b565b565b90602082820312610b1d57610b1a915f01610af5565b90565b6100f8565b60209181520190565b90825f939282370152565b9190610b5081610b4981610b5595610b22565b8095610b2b565b6107d4565b0190565b610b62906103f6565b9052565b939290610b84602091610b8c9460408801918883035f8a0152610b36565b940190610b59565b565b9190610b986109e2565b50610bb5610baf610baa5f8690610576565b610adc565b15610222565b610c3c57610be85f610bc8602095610ae9565b92610bf363ea6d13ac919597610bdc6100f2565b9889978896879561081b565b855260048501610b66565b03925af1908115610c37575f91610c09575b5090565b610c2a915060203d8111610c30575b610c2281836107f2565b810190610b04565b5f610c05565b503d610c18565b610830565b5f633220d5f360e21b815280610c546004820161010b565b0390fd5b90610c6a91610c65610e11565b610c8e565b565b610c759061049e565b9052565b9190610c8c905f60208501940190610c6c565b565b610c97906107c4565b90630396cb60349290929190803b15610d1557610cc75f93610cd295610cbb6100f2565b9687958694859361081b565b835260048301610c79565b03925af18015610d1057610ce4575b50565b610d03905f3d8111610d09575b610cfb81836107f2565b810190610821565b5f610ce1565b503d610cf1565b610830565b6107d0565b90610d2491610c58565b565b610d3790610d32610e11565b610d39565b565b63389a75e1600c52805f526020600c209081544211610d5f575f610d5d9255610e2d565b565b636f5e88185f526004601cfd5b610d7590610d26565b565b610d8890610d83610e11565b610d8a565b565b8060601b15610d9e57610d9c90610e2d565b565b637448fbae5f526004601cfd5b610db490610d77565b565b5f90565b610dc2610db6565b5063389a75e1600c525f526020600c205490565b5f90565b90565b610df1610dec610df692610dda565b61053f565b61071c565b90565b610e01610dd6565b50610e0e6202a300610ddd565b90565b638b78c6d819543303610e2057565b6382b429005f526004601cfd5b610e35610eb9565b5f14610e7a57638b78c6d8199060601b60601c8082547f8be0079c531659141344cd1fd0a4f28419497f9722a3daafe3b4186f6b6457e05f80a3801560ff1b1790555b565b638b78c6d8199060601b60601c908181547f8be0079c531659141344cd1fd0a4f28419497f9722a3daafe3b4186f6b6457e05f80a355610e78565b5f90565b610ec1610eb5565b9056","linkReferences":{}},"methodIdentifiers":{"approveFactory(address,bool)":"6e7dbabb","approved(address)":"d8b964e6","cancelOwnershipHandover()":"54d1f13d","completeOwnershipHandover(address)":"f04e283e","deployWithFactory(address,bytes,bytes32)":"c5265d5d","owner()":"8da5cb5b","ownershipHandoverExpiresAt(address)":"fee81cf4","renounceOwnership()":"715018a6","requestOwnershipHandover()":"25692962","stake(address,uint32)":"c7e55f3e","transferOwnership(address)":"f2fde38b","unlockStake(address)":"4a1ce599","withdrawStake(address,address)":"b36f9705"},"id":39}