{"abi":[{"type":"function","name":"checkSignature","inputs":[{"name":"id","type":"bytes32","internalType":"bytes32"},{"name":"","type":"address","internalType":"address"},{"name":"hash","type":"bytes32","internalType":"bytes32"},{"name":"sig","type":"bytes","internalType":"bytes"}],"outputs":[{"name":"","type":"bytes4","internalType":"bytes4"}],"stateMutability":"view"},{"type":"function","name":"checkUserOpSignature","inputs":[{"name":"id","type":"bytes32","internalType":"bytes32"},{"name":"userOp","type":"tuple","internalType":"struct PackedUserOperation","components":[{"name":"sender","type":"address","internalType":"address"},{"name":"nonce","type":"uint256","internalType":"uint256"},{"name":"initCode","type":"bytes","internalType":"bytes"},{"name":"callData","type":"bytes","internalType":"bytes"},{"name":"accountGasLimits","type":"bytes32","internalType":"bytes32"},{"name":"preVerificationGas","type":"uint256","internalType":"uint256"},{"name":"gasFees","type":"bytes32","internalType":"bytes32"},{"name":"paymasterAndData","type":"bytes","internalType":"bytes"},{"name":"signature","type":"bytes","internalType":"bytes"}]},{"name":"userOpHash","type":"bytes32","internalType":"bytes32"}],"outputs":[{"name":"","type":"uint256","internalType":"uint256"}],"stateMutability":"payable"},{"type":"function","name":"isInitialized","inputs":[{"name":"kernel","type":"address","internalType":"address"}],"outputs":[{"name":"","type":"bool","internalType":"bool"}],"stateMutability":"view"},{"type":"function","name":"isModuleType","inputs":[{"name":"id","type":"uint256","internalType":"uint256"}],"outputs":[{"name":"","type":"bool","internalType":"bool"}],"stateMutability":"pure"},{"type":"function","name":"onInstall","inputs":[{"name":"data","type":"bytes","internalType":"bytes"}],"outputs":[],"stateMutability":"payable"},{"type":"function","name":"onUninstall","inputs":[{"name":"data","type":"bytes","internalType":"bytes"}],"outputs":[],"stateMutability":"payable"},{"type":"function","name":"usedIds","inputs":[{"name":"","type":"address","internalType":"address"}],"outputs":[{"name":"","type":"uint256","internalType":"uint256"}],"stateMutability":"view"},{"type":"function","name":"webAuthnSignerStorage","inputs":[{"name":"id","type":"bytes32","internalType":"bytes32"},{"name":"kernel","type":"address","internalType":"address"}],"outputs":[{"name":"pubKeyX","type":"uint256","internalType":"uint256"},{"name":"pubKeyY","type":"uint256","internalType":"uint256"}],"stateMutability":"view"},{"type":"event","name":"WebAuthnPublicKeyRegistered","inputs":[{"name":"kernel","type":"address","indexed":true,"internalType":"address"},{"name":"authenticatorIdHash","type":"bytes32","indexed":true,"internalType":"bytes32"},{"name":"pubKeyX","type":"uint256","indexed":false,"internalType":"uint256"},{"name":"pubKeyY","type":"uint256","indexed":false,"internalType":"uint256"}],"anonymous":false},{"type":"error","name":"AlreadyInitialized","inputs":[{"name":"smartAccount","type":"address","internalType":"address"}]},{"type":"error","name":"InvalidPublicKey","inputs":[]},{"type":"error","name":"NotInitialized","inputs":[{"name":"smartAccount","type":"address","internalType":"address"}]}],"bytecode":{"object":"0x608060405234601c57600e6020565b611fe461002b8239611fe490f35b6026565b60405190565b5f80fdfe60806040526004361015610013575b61063c565b61001d5f3561009c565b80630ccab7a1146100975780631811663f14610092578063244d6cb21461008d578063392dffaf146100885780636d61fe70146100835780638a91b0e31461007e578063d60b347f146100795763ecd059610361000e57610607565b610591565b610540565b610516565b6104a2565b610394565b6102e7565b610166565b60e01c90565b60405190565b5f80fd5b5f80fd5b90565b6100bc816100b0565b036100c357565b5f80fd5b905035906100d4826100b3565b565b5f80fd5b90816101209103126100e95790565b6100d6565b909160608284031261013c57610106835f84016100c7565b9260208301359067ffffffffffffffff82116101375761012b816101349386016100da565b936040016100c7565b90565b6100ac565b6100a8565b90565b61014d90610141565b9052565b9190610164905f60208501940190610144565b565b61018e61017d6101773660046100ee565b91610697565b6101856100a2565b91829182610151565b0390f35b5f80fd5b60018060a01b031690565b6101aa90610196565b90565b6101b6816101a1565b036101bd57565b5f80fd5b905035906101ce826101ad565b565b91906040838203126101f857806101ec6101f5925f86016100c7565b936020016101c1565b90565b6100a8565b610206906100b0565b90565b90610213906101fd565b5f5260205260405f2090565b90565b61023661023161023b92610196565b61021f565b610196565b90565b61024790610222565b90565b6102539061023e565b90565b906102609061024a565b5f5260205260405f2090565b5f1c90565b90565b6102806102859161026c565b610271565b90565b6102929054610274565b90565b906102a46102a9926001610209565b610256565b906102c160016102ba5f8501610288565b9301610288565b90565b9160206102e59294936102de60408201965f830190610144565b0190610144565b565b34610319576103006102fa3660046101d0565b90610295565b9061031561030c6100a2565b928392836102c4565b0390f35b610192565b9060208282031261033757610334915f016101c1565b90565b6100a8565b906103469061024a565b5f5260205260405f2090565b1c90565b61036690600861036b9302610352565b610271565b90565b906103799154610356565b90565b6103919061038c5f915f9261033c565b61036e565b90565b346103c4576103c06103af6103aa36600461031e565b61037c565b6103b76100a2565b91829182610151565b0390f35b610192565b5f80fd5b5f80fd5b5f80fd5b909182601f8301121561040f5781359167ffffffffffffffff831161040a57602001926001830284011161040557565b6103d1565b6103cd565b6103c9565b9060808282031261046f5761042b815f84016100c7565b9261043982602085016101c1565b9261044783604083016100c7565b92606082013567ffffffffffffffff811161046a5761046692016103d5565b9091565b6100ac565b6100a8565b63ffffffff60e01b1690565b61048990610474565b9052565b91906104a0905f60208501940190610480565b565b346104d6576104d26104c16104b8366004610414565b93929092610756565b6104c96100a2565b9182918261048d565b0390f35b610192565b9060208282031261050c575f82013567ffffffffffffffff81116105075761050392016103d5565b9091565b6100ac565b6100a8565b5f0190565b61052a6105243660046104db565b9061083e565b6105326100a2565b8061053c81610511565b0390f35b61055461054e3660046104db565b90610894565b61055c6100a2565b8061056681610511565b0390f35b151590565b6105789061056a565b9052565b919061058f905f6020850194019061056f565b565b346105c1576105bd6105ac6105a736600461031e565b6108ee565b6105b46100a2565b9182918261057c565b0390f35b610192565b6105cf81610141565b036105d657565b5f80fd5b905035906105e7826105c6565b565b90602082820312610602576105ff915f016105da565b90565b6100a8565b346106375761063361062261061d3660046105e9565b610922565b61062a6100a2565b9182918261057c565b0390f35b610192565b5f80fd5b5f90565b5f80fd5b5f80fd5b5f80fd5b903590600160200381360303821215610692570180359067ffffffffffffffff821161068d5760200191600182023603831361068857565b61064c565b610648565b610644565b906106c092916106a5610640565b50906106b8339391610100810190610650565b939092610c49565b90565b5f90565b90565b6106de6106d96106e3926106c7565b61021f565b610141565b90565b6106ef5f6106ca565b90565b90565b60e01b90565b61070f61070a610714926106f2565b6106f5565b610474565b90565b61072463ffffffff6106fb565b90565b90565b61073e61073961074392610727565b6106f5565b610474565b90565b610753631626ba7e61072a565b90565b61077294929391506107666106c3565b50923390919293610c49565b61078b6107856107806106e6565b610141565b91610141565b145f1461079e5761079a610746565b5b90565b6107a6610717565b61079b565b90565b6107c26107bd6107c7926107ab565b61021f565b610141565b90565b5f80fd5b5f80fd5b909392938483116107f25784116107ed576001820201920390565b6107ce565b6107ca565b5090565b1b90565b9061080d61081491836107f7565b91356100b0565b9060208110610822575b5090565b610834905f19906020036008026107fb565b165f61081e565b91565b61088c6108866108929361087261086c85835f906108666108606020936106ca565b926107ae565b926107d2565b906107ff565b939061087e60206107ae565b9080926107d2565b9061083b565b91610e71565b565b6108e26108dc6108e8936108c86108c285835f906108bc6108b66020936106ca565b926107ae565b926107d2565b906107ff565b93906108d460206107ae565b9080926107d2565b9061083b565b91611095565b565b5f90565b610900906108fa6108ea565b50611133565b90565b90565b61091a61091561091f92610903565b61021f565b610141565b90565b61092a6108ea565b5061093e6109386006610906565b91610141565b1490565b5f80fd5b601f801991011690565b634e487b7160e01b5f52604160045260245ffd5b9061096e90610946565b810190811067ffffffffffffffff82111761098857604052565b610950565b906109a06109996100a2565b9283610964565b565b67ffffffffffffffff81116109c0576109bc602091610946565b0190565b610950565b90825f939282370152565b909291926109e56109e0826109a2565b61098d565b93818552602085019082840111610a01576109ff926109c5565b565b610942565b9080601f83011215610a2457816020610a21933591016109d0565b90565b6103c9565b67ffffffffffffffff8111610a4757610a43602091610946565b0190565b610950565b90929192610a61610a5c82610a29565b61098d565b93818552602085019082840111610a7d57610a7b926109c5565b565b610942565b9080601f83011215610aa057816020610a9d93359101610a4c565b90565b6103c9565b610aae8161056a565b03610ab557565b5f80fd5b90503590610ac682610aa5565b565b909160c082840312610b57575f82013567ffffffffffffffff8111610b525783610af3918401610a06565b92602083013567ffffffffffffffff8111610b4d5781610b14918501610a82565b92610b2282604083016105da565b92610b4a610b3384606085016105da565b93610b4181608086016105da565b9360a001610ab9565b90565b6100ac565b6100ac565b6100a8565b90610b6690610141565b9052565b610b74604061098d565b90565b90610bae610ba56001610b88610b6a565b94610b9f610b975f8301610288565b5f8801610b5c565b01610288565b60208401610b5c565b565b610bb990610b77565b90565b90565b610bcb610bd0916100b0565b610bbc565b9052565b610be081602093610bbf565b0190565b90565b610bfb610bf6610c0092610be4565b61021f565b610141565b90565b610c0d6017610be7565b90565b610c1a9051610141565b90565b90565b610c34610c2f610c3992610c1d565b61021f565b610141565b90565b610c466001610c20565b90565b9190610cbc610c9891610c8e610c93610c75610ce999610cad99610c6b610640565b5090810190610ac8565b98949993959299979196909795999697989b6001610209565b610256565b610bb0565b96610ca16100a2565b998a9160208301610bd4565b60208201810382520389610964565b936001610cc7610c03565b92939495610ce26020610cdb5f8b01610c10565b9901610c10565b989961133f565b610cf857610cf5610c3c565b90565b610d006106e6565b90565b610d0c906101a1565b9052565b9190610d23905f60208501940190610d03565b565b634e487b7160e01b5f52601160045260245ffd5b610d4290610141565b5f198114610d505760010190565b610d25565b5f1b90565b90610d665f1991610d55565b9181191691161790565b610d84610d7f610d8992610141565b61021f565b610141565b90565b90565b90610da4610d9f610dab92610d70565b610d8c565b8254610d5a565b9055565b5f80fd5b9190604083820312610ded57610de690610dcd604061098d565b93610dda825f83016105da565b5f8601526020016105da565b6020830152565b610daf565b9190606083820312610e1a5780610e0e610e17925f8601610db3565b936040016100c7565b90565b6100a8565b634e487b7160e01b5f525f60045260245ffd5b90610e5d60206001610e6394610e555f8201610e4f5f8801610c10565b90610d8f565b019201610c10565b90610d8f565b565b90610e6f91610e32565b565b91610e925f610e8c610e8560018790610209565b3390610256565b01610288565b610ea4610e9e5f6106ca565b91610141565b03610fcd57610edb91610ed2610ebb5f339061033c565b610ecc610ec782610288565b610d39565b90610d8f565b90810190610df2565b91909190610eea5f8401610c10565b610efc610ef65f6106ca565b91610141565b148015610fa8575b610f8c57610f2790610f22610f1b85926001610209565b3390610256565b610e65565b33610f3f6020610f385f8601610c10565b9401610c10565b610f72610f6c7fdaa12c36d531747b295ac442f2dc73409156b4e78117b4b178bc019014b6cf5b9361024a565b936101fd565b93610f87610f7e6100a2565b928392836102c4565b0390a3565b5f63145a1fdd60e31b815280610fa460048201610511565b0390fd5b50610fb560208401610c10565b610fc7610fc15f6106ca565b91610141565b14610f04565b610fe8335f9182916393360fbf60e01b835260048301610d10565b0390fd5b919060086110079102916110015f19846107fb565b926107fb565b9181191691161790565b919061102761102261102f93610d70565b610d8c565b908354610fec565b9055565b6110459161103f610640565b91611011565b565b5f60016110609261105a83808301611033565b01611033565b565b905f036110745761107290611047565b565b610e1f565b61108290610141565b5f8114611090576001900390565b610d25565b9150506110b85f6110b26110ab60018590610209565b3390610256565b01610288565b6110ca6110c45f6106ca565b91610141565b14611114575f6110e86110e16110ed936001610209565b3390610256565b611062565b6111126110fb5f339061033c565b61110c61110782610288565b611079565b90610d8f565b565b61112f335f91829163f91bd6f160e01b835260048301610d10565b0390fd5b61114961114e916111426108ea565b505f61033c565b610288565b61116061115a5f6106ca565b91610141565b1190565b5190565b90565b61117f61117a61118492611168565b61021f565b610141565b90565b634e487b7160e01b5f52603260045260245ffd5b906111a582611164565b8110156111b757600160209102010190565b611187565b60ff60f81b1690565b6111cf90516111bc565b90565b906111e46111df83610a29565b61098d565b918252565b5f74113a3cb832911d113bb2b130baba34371733b2ba1160591b910152565b61121260156111d2565b9061121f602083016111e9565b565b611229611208565b90565b6c1131b430b63632b733b2911d1160991b9052565b5190565b905090565b90825f9392825e0152565b61127a6112719260209261126881611241565b94858093611245565b9384910161124a565b0190565b601160f91b9052565b600191600d6112a0926112998161122c565b0190611255565b6112a98161127e565b0190565b906112d56112b96100a2565b80936112c9602083019182611287565b90810382520383610964565b565b90565b905090565b6113046112fb926020926112f281611164565b948580936112da565b9384910161124a565b0190565b611311916112df565b90565b61131c6100a2565b3d5f823e3d90fd5b61133461133b91602094936112df565b8092610bbf565b0190565b99969390929198959794996113526108ea565b5060019961135f85611164565b61137261136c602561116b565b91610141565b109081156114fe575b506114f5575b61139e61139861138f611221565b8d8690916116ed565b1561056a565b6114d9575b6113ca916113bb6113b66113c49361188f565b6112ad565b908490916116ed565b1561056a565b6114c2575b5f6113ef6113de6020936112d7565b6113e66100a2565b91829182611308565b039060025afa156114bd575f61144460209261143361140e8451610d55565b9161142561141a6100a2565b938492888401611324565b868201810382520382610964565b61143b6100a2565b91829182611308565b039060025afa156114b8576114595f51610d55565b9661146d6114675f19610141565b91610141565b1461149f576114829596949091929394611b15565b9081611497575b50611492575f90565b600190565b90505f611489565b9394509091506114b59493929091925f94611b15565b90565b611314565b611314565b965060205f6113ef6113de829a93505050506113cf565b98506113c46113ca916113bb6113b65f9c9350505091506113a3565b98505f98611381565b61152e91506115289061152361151e8861151860206107ae565b9061119b565b6111c5565b6115e7565b1561056a565b5f61137b565b60f81b90565b61154e61154961155392610c1d565b611534565b6111bc565b90565b611560600161153a565b90565b90565b61157a61157561157f92611563565b611534565b6111bc565b90565b61158c6004611566565b90565b90565b6115a66115a16115ab9261158f565b611534565b6111bc565b90565b6115b86008611592565b90565b90565b6115d26115cd6115d7926115bb565b611534565b6111bc565b90565b6115e460106115be565b90565b906115f06108ea565b50816115fa611556565b1661161461160e611609611556565b6111bc565b916111bc565b036116b35780611688575b611683578061162c6115ae565b1661164661164061163b6115ae565b6111bc565b916111bc565b03611652575b50600190565b61165a6115da565b1661167461166e6116696115da565b6111bc565b916111bc565b1461167f575f61164c565b5f90565b505f90565b5080611692611582565b166116ac6116a66116a1611582565b6111bc565b916111bc565b141561161f565b50505f90565b60016116c59101610141565b90565b6116d76116dd91939293610141565b92610141565b82018092116116e857565b610d25565b61170561170b919392936116ff6108ea565b506112d7565b926112d7565b9061171583611164565b9261171f83611164565b6117285f6106ca565b5b8061173c61173688610141565b91610141565b10156117cd5761174d8482906116c8565b61175f61175984610141565b91610141565b10156117c35761177861177384839061119b565b6111c5565b6117a66117a061179b611796896117908a88906116c8565b9061119b565b6111c5565b6111bc565b916111bc565b036117b9576117b4906116b9565b611729565b5050505050505f90565b5050505050505f90565b505050505050600190565b606090565b90565b6117f46117ef6117f9926117dd565b61021f565b610141565b90565b61180b61181191939293610141565b92610141565b820391821161181c57565b610d25565b603d60f81b90565b9061183b611836836109a2565b61098d565b918252565b369037565b9061186a61185283611829565b9260208061186086936109a2565b9201910390611840565b565b602b60f81b90565b602f60f81b90565b605f60f81b90565b602d60f81b90565b90565b6118a46118a99161189e6117d8565b50611cbe565b6112d7565b6118b25f6106ca565b6118bb82611164565b6118ce6118c860026117e0565b91610141565b1180611a84575b5f146119f857506118f86118e960026117e0565b5b6118f383611164565b6117fc565b9061190282611845565b9061190c5f6106ca565b5b8061192061191a86610141565b91610141565b10156119e9576119739061193d61193884839061119b565b6111c5565b61194e61194861186c565b916111bc565b145f146119785761195d611884565b61196c859183905f1a9261119b565b535b6116b9565b61190d565b61198b61198684839061119b565b6111c5565b61199c611996611874565b916111bc565b145f146119c1576119ab61187c565b6119ba859183905f1a9261119b565b535b61196e565b6119d46119cf84839061119b565b6111c5565b6119e3859183905f1a9261119b565b536119bc565b50506119f5915061188c565b90565b611a0182611164565b611a14611a0e6001610c20565b91610141565b1180611a3e575b611a29575b6118f8906118ea565b506118f8611a376001610c20565b9050611a20565b50611a6d611a6883611a62611a5286611164565b611a5c6001610c20565b906117fc565b9061119b565b6111c5565b611a7e611a78611821565b916111bc565b14611a1b565b50611ab3611aae83611aa8611a9886611164565b611aa260026117e0565b906117fc565b9061119b565b6111c5565b611ac4611abe611821565b916111bc565b146118d5565b90565b611ae1611adc611ae692611aca565b61021f565b610141565b90565b611b127f7fffffff800000007fffffffffffffffde737d56d38bcf4279dce5617e3192a8611acd565b90565b9492909391611b226108ea565b5080611b3d611b37611b32611ae9565b610141565b91610141565b11611b5457611b5195949091929394611ec3565b90565b5050505050505f90565b611b675f6111d2565b90565b611b72611b5e565b90565b60207f6768696a6b6c6d6e6f707172737475767778797a303132333435363738392b2f917f4142434445464748494a4b4c4d4e4f505152535455565758595a6162636465665f8201520152565b611bcc60406111d2565b90611bd960208301611b75565b565b611be3611bc2565b90565b611bee611bdb565b90565b90565b611c08611c03611c0d92611bf1565b61021f565b610141565b90565b634e487b7160e01b5f52601260045260245ffd5b611c30611c3691610141565b91610141565b908115611c41570490565b611c10565b611c5a611c55611c5f92611563565b61021f565b610141565b90565b611c71611c7791939293610141565b92610141565b91611c83838202610141565b928184041490151715611c9257565b610d25565b90611cbc611ca4836111d2565b92602080611cb28693610a29565b9201910390611840565b565b90611cc76117d8565b50611cd182611164565b611ce3611cdd5f6106ca565b91610141565b14611de357611cf0611be6565b6001611d3c611d376004611d32611d2c611d1c611d0c8a611164565b611d1660026117e0565b906116c8565b611d266003611bf4565b90611c24565b91611c46565b611c62565b611c97565b910192602082019080815182019560208701908151925f83525b888110611d9e5750506003939495965052510680600114611d8a57600214611d7d575b5090565b6001603d9103535f611d79565b50600281603d60018194035303535f611d79565b60036001919996990198603f8280808d5194848660121c168801518153018385600c1c16870151815301828460061c1686015181530191168301518153019497611d56565b9050611ded611b6a565b90565b611df9906100b0565b9052565b90959492611e4894611e37611e4192611e2d608096611e2360a088019c5f890190611df0565b6020870190610144565b6040850190610144565b6060830190610144565b0190610144565b565b73c2b78104907f722dabac4c69f826a522b2754de490565b606090565b3d5f14611e8257611e773d611829565b903d5f602084013e5b565b611e8a611e62565b90611e80565b90505190611e9d826105c6565b565b90602082820312611eb857611eb5915f01611e90565b90565b6100a8565b61010090565b90611ef25f96948796611f0194611ed86108ea565b509395919091611ee66100a2565b96879560208701611dfd565b60208201810382520382610964565b908214611f9957611f10611ebd565b90602081019051915afa611f22611e67565b90611f35611f2f5f61056a565b9161056a565b148015611f77575b611f7257611f5b906020611f5082611164565b818301019101611e9f565b611f6e611f686001610c20565b91610141565b1490565b505f90565b50611f8181611164565b611f93611f8d5f6106ca565b91610141565b14611f3d565b611fa1611e4a565b90602081019051915afa50611fcd611fb7611e67565b6020611fc282611164565b818301019101611e9f565b611fe0611fda6001610c20565b91610141565b149056","linkReferences":{}},"methodIdentifiers":{"checkSignature(bytes32,address,bytes32,bytes)":"392dffaf","checkUserOpSignature(bytes32,(address,uint256,bytes,bytes,bytes32,uint256,bytes32,bytes,bytes),bytes32)":"0ccab7a1","isInitialized(address)":"d60b347f","isModuleType(uint256)":"ecd05961","onInstall(bytes)":"6d61fe70","onUninstall(bytes)":"8a91b0e3","usedIds(address)":"244d6cb2","webAuthnSignerStorage(bytes32,address)":"1811663f"},"id":9}