{"abi":[{"type":"function","name":"count","inputs":[],"outputs":[{"name":"","type":"uint256","internalType":"uint256"}],"stateMutability":"view"},{"type":"function","name":"initialized","inputs":[{"name":"","type":"address","internalType":"address"}],"outputs":[{"name":"","type":"bool","internalType":"bool"}],"stateMutability":"view"},{"type":"function","name":"isHook","inputs":[],"outputs":[{"name":"","type":"bool","internalType":"bool"}],"stateMutability":"view"},{"type":"function","name":"isInitialized","inputs":[{"name":"smartAccount","type":"address","internalType":"address"}],"outputs":[{"name":"","type":"bool","internalType":"bool"}],"stateMutability":"view"},{"type":"function","name":"isModuleType","inputs":[{"name":"typeID","type":"uint256","internalType":"uint256"}],"outputs":[{"name":"","type":"bool","internalType":"bool"}],"stateMutability":"pure"},{"type":"function","name":"isValidSignatureWithSender","inputs":[{"name":"","type":"address","internalType":"address"},{"name":"","type":"bytes32","internalType":"bytes32"},{"name":"sig","type":"bytes","internalType":"bytes"}],"outputs":[{"name":"","type":"bytes4","internalType":"bytes4"}],"stateMutability":"view"},{"type":"function","name":"onInstall","inputs":[{"name":"data","type":"bytes","internalType":"bytes"}],"outputs":[],"stateMutability":"payable"},{"type":"function","name":"onUninstall","inputs":[{"name":"data","type":"bytes","internalType":"bytes"}],"outputs":[],"stateMutability":"payable"},{"type":"function","name":"postCheck","inputs":[{"name":"hookData","type":"bytes","internalType":"bytes"}],"outputs":[],"stateMutability":"payable"},{"type":"function","name":"preCheck","inputs":[{"name":"msgSender","type":"address","internalType":"address"},{"name":"value","type":"uint256","internalType":"uint256"},{"name":"msgData","type":"bytes","internalType":"bytes"}],"outputs":[{"name":"hookData","type":"bytes","internalType":"bytes"}],"stateMutability":"payable"},{"type":"function","name":"setHook","inputs":[{"name":"_isHook","type":"bool","internalType":"bool"}],"outputs":[],"stateMutability":"nonpayable"},{"type":"function","name":"success","inputs":[],"outputs":[{"name":"","type":"bool","internalType":"bool"}],"stateMutability":"view"},{"type":"function","name":"sudoSetSuccess","inputs":[{"name":"_success","type":"bool","internalType":"bool"}],"outputs":[],"stateMutability":"nonpayable"},{"type":"function","name":"sudoSetValidSig","inputs":[{"name":"sig","type":"bytes","internalType":"bytes"}],"outputs":[],"stateMutability":"nonpayable"},{"type":"function","name":"validSig","inputs":[{"name":"","type":"bytes32","internalType":"bytes32"}],"outputs":[{"name":"","type":"bool","internalType":"bool"}],"stateMutability":"view"},{"type":"function","name":"validateUserOp","inputs":[{"name":"","type":"tuple","internalType":"struct PackedUserOperation","components":[{"name":"sender","type":"address","internalType":"address"},{"name":"nonce","type":"uint256","internalType":"uint256"},{"name":"initCode","type":"bytes","internalType":"bytes"},{"name":"callData","type":"bytes","internalType":"bytes"},{"name":"accountGasLimits","type":"bytes32","internalType":"bytes32"},{"name":"preVerificationGas","type":"uint256","internalType":"uint256"},{"name":"gasFees","type":"bytes32","internalType":"bytes32"},{"name":"paymasterAndData","type":"bytes","internalType":"bytes"},{"name":"signature","type":"bytes","internalType":"bytes"}]},{"name":"","type":"bytes32","internalType":"bytes32"}],"outputs":[{"name":"","type":"uint256","internalType":"uint256"}],"stateMutability":"payable"},{"type":"function","name":"validatorData","inputs":[{"name":"","type":"address","internalType":"address"}],"outputs":[{"name":"","type":"bytes","internalType":"bytes"}],"stateMutability":"view"},{"type":"error","name":"AlreadyInitialized","inputs":[{"name":"smartAccount","type":"address","internalType":"address"}]},{"type":"error","name":"InvalidTargetAddress","inputs":[{"name":"target","type":"address","internalType":"address"}]},{"type":"error","name":"NotInitialized","inputs":[{"name":"smartAccount","type":"address","internalType":"address"}]}],"bytecode":{"object":"0x608060405234601c57600e6020565b61112c61002b823961112c90f35b6026565b60405190565b5f80fdfe60806040526004361015610013575b610af2565b61001d5f3561012c565b806306661abd146101275780630b93381b14610122578063173bf7da1461011d57806341f77adb146101185780636d61fe70146101135780638a91b0e31461010e5780639700320314610109578063ac5e1d3914610104578063b75ad262146100ff578063c4cbfd00146100fa578063cbca47db146100f5578063d60b347f146100f0578063d68f6025146100eb578063ecd05961146100e6578063f36b25a1146100e1578063f551e2ee146100dc5763fabaf0b60361000e57610abf565b610a86565b6109d1565b61098d565b610940565b610896565b610861565b610800565b61078b565b610756565b6106d1565b610624565b6105fa565b6105c5565b610306565b610247565b6101b0565b60e01c90565b60405190565b5f80fd5b5f80fd5b5f91031261014a57565b61013c565b1c90565b90565b61016690600861016b930261014f565b610153565b90565b906101799154610156565b90565b61018860025f9061016e565b90565b90565b6101979061018b565b9052565b91906101ae905f6020850194019061018e565b565b346101e0576101c0366004610140565b6101dc6101cb61017c565b6101d3610132565b9182918261019b565b0390f35b610138565b60ff1690565b6101fb906008610200930261014f565b6101e5565b90565b9061020e91546101eb565b90565b61021d60015f90610203565b90565b151590565b61022e90610220565b9052565b9190610245905f60208501940190610225565b565b3461027757610257366004610140565b610273610262610211565b61026a610132565b91829182610232565b0390f35b610138565b5f80fd5b5f80fd5b5f80fd5b5f80fd5b909182601f830112156102c65781359167ffffffffffffffff83116102c15760200192600183028401116102bc57565b610288565b610284565b610280565b906020828203126102fc575f82013567ffffffffffffffff81116102f7576102f3920161028c565b9091565b61027c565b61013c565b5f0190565b6103113660046102cb565b505061031b610132565b8061032581610301565b0390f35b60018060a01b031690565b61033d90610329565b90565b61034981610334565b0361035057565b5f80fd5b9050359061036182610340565b565b9060208282031261037c57610379915f01610354565b90565b61013c565b90565b61039861039361039d92610329565b610381565b610329565b90565b6103a990610384565b90565b6103b5906103a0565b90565b906103c2906103ac565b5f5260205260405f2090565b634e487b7160e01b5f525f60045260245ffd5b634e487b7160e01b5f52602260045260245ffd5b9060016002830492168015610415575b602083101461041057565b6103e1565b91607f1691610405565b60209181520190565b5f5260205f2090565b905f929180549061044b610444836103f5565b809461041f565b916001811690815f146104a25750600114610466575b505050565b6104739192939450610428565b915f925b81841061048a57505001905f8080610461565b60018160209295939554848601520191019290610477565b92949550505060ff19168252151560200201905f8080610461565b906104c791610431565b90565b601f801991011690565b634e487b7160e01b5f52604160045260245ffd5b906104f2906104ca565b810190811067ffffffffffffffff82111761050c57604052565b6104d4565b9061053161052a92610521610132565b938480926104bd565b03836104e8565b565b905f106105465761054390610511565b90565b6103ce565b6105619061055c6003915f926103b8565b610533565b90565b5190565b60209181520190565b90825f9392825e0152565b61059b6105a46020936105a99361059281610564565b93848093610568565b95869101610571565b6104ca565b0190565b6105c29160208201915f81840391015261057c565b90565b346105f5576105f16105e06105db366004610363565b61054b565b6105e8610132565b918291826105ad565b0390f35b610138565b61060e6106083660046102cb565b90610d49565b610616610132565b8061062081610301565b0390f35b6106386106323660046102cb565b90610d76565b610640610132565b8061064a81610301565b0390f35b5f80fd5b90816101209103126106615790565b61064e565b90565b61067281610666565b0361067957565b5f80fd5b9050359061068a82610669565b565b91906040838203126106cc575f8301359067ffffffffffffffff82116106c7576106bb816106c4938601610652565b9360200161067d565b90565b61027c565b61013c565b6106f96106e86106e236600461068c565b90610e8d565b6106f0610132565b9182918261019b565b0390f35b9060208282031261071657610713915f0161067d565b90565b61013c565b61072490610666565b90565b906107319061071b565b5f5260205260405f2090565b6107539061074e6004915f92610727565b610203565b90565b346107865761078261077161076c3660046106fd565b61073d565b610779610132565b91829182610232565b0390f35b610138565b346107ba576107a461079e3660046102cb565b90610f6e565b6107ac610132565b806107b681610301565b0390f35b610138565b6107c881610220565b036107cf57565b5f80fd5b905035906107e0826107bf565b565b906020828203126107fb576107f8915f016107d3565b90565b61013c565b3461082e576108186108133660046107e2565b610fa4565b610820610132565b8061082a81610301565b0390f35b610138565b9061083d906103ac565b5f5260205260405f2090565b61085e906108595f915f92610833565b610203565b90565b346108915761088d61087c610877366004610363565b610849565b610884610132565b91829182610232565b0390f35b610138565b346108c6576108c26108b16108ac366004610363565b610fb5565b6108b9610132565b91829182610232565b0390f35b610138565b6108d48161018b565b036108db57565b5f80fd5b905035906108ec826108cb565b565b9160608383031261093b57610905825f8501610354565b9261091383602083016108df565b92604082013567ffffffffffffffff811161093657610932920161028c565b9091565b61027c565b61013c565b61096b61095a6109513660046108ee565b92919091611029565b610962610132565b918291826105ad565b0390f35b9060208282031261098857610985915f016108df565b90565b61013c565b346109bd576109b96109a86109a336600461096f565b611041565b6109b0610132565b91829182610232565b0390f35b610138565b6109ce60055f90610203565b90565b34610a01576109e1366004610140565b6109fd6109ec6109c2565b6109f4610132565b91829182610232565b0390f35b610138565b91606083830312610a5357610a1d825f8501610354565b92610a2b836020830161067d565b92604082013567ffffffffffffffff8111610a4e57610a4a920161028c565b9091565b61027c565b61013c565b63ffffffff60e01b1690565b610a6d90610a58565b9052565b9190610a84905f60208501940190610a64565b565b34610aba57610ab6610aa5610a9c366004610a06565b929190916110a9565b610aad610132565b91829182610a71565b0390f35b610138565b34610aed57610ad7610ad23660046107e2565b61111f565b610adf610132565b80610ae981610301565b0390f35b610138565b5f80fd5b5f1b90565b90610b0760ff91610af6565b9181191691161790565b610b1a90610220565b90565b90565b90610b35610b30610b3c92610b11565b610b1d565b8254610afb565b9055565b5090565b601f602091010490565b1b90565b91906008610b6d910291610b675f1984610b4e565b92610b4e565b9181191691161790565b610b8b610b86610b909261018b565b610381565b61018b565b90565b90565b9190610bac610ba7610bb493610b77565b610b93565b908354610b52565b9055565b5f90565b610bce91610bc8610bb8565b91610b96565b565b5b818110610bdc575050565b80610be95f600193610bbc565b01610bd1565b9190601f8111610bff575b505050565b610c0b610c3093610428565b906020610c1784610b44565b83019310610c38575b610c2990610b44565b0190610bd0565b5f8080610bfa565b9150610c2981929050610c20565b90610c56905f199060080261014f565b191690565b81610c6591610c46565b906002021790565b91610c789082610b40565b9067ffffffffffffffff8211610d3757610c9c82610c9685546103f5565b85610bef565b5f90601f8311600114610ccf57918091610cbe935f92610cc3575b5050610c5b565b90555b565b90915001355f80610cb7565b601f19831691610cde85610428565b925f5b818110610d1f57509160029391856001969410610d05575b50505002019055610cc1565b610d15910135601f841690610c46565b90555f8080610cf9565b91936020600181928787013581550195019201610ce1565b6104d4565b90610d479291610c6d565b565b90610d7491610d636001610d5e5f3390610833565b610b20565b610d6f600333906103b8565b610d3c565b565b90610da091610d8f5f610d8a5f3390610833565b610b20565b610d9b600333906103b8565b610d3c565b565b5f1c90565b610db3610db891610da2565b610153565b90565b610dc59054610da7565b90565b634e487b7160e01b5f52601160045260245ffd5b610de59061018b565b5f198114610df35760010190565b610dc8565b90610e045f1991610af6565b9181191691161790565b90610e23610e1e610e2a92610b77565b610b93565b8254610df8565b9055565b610e3a610e3f91610da2565b6101e5565b90565b610e4c9054610e2e565b90565b90565b610e66610e61610e6b92610e4f565b610381565b61018b565b90565b90565b610e85610e80610e8a92610e6e565b610381565b61018b565b90565b5050610e97610bb8565b50610eb4610ead610ea86002610dbb565b610ddc565b6002610e0e565b610ebe6001610e42565b5f14610ed057610ecd5f610e71565b90565b610eda6001610e52565b90565b5f80fd5b90610ef4610eed610132565b92836104e8565b565b67ffffffffffffffff8111610f1457610f106020916104ca565b0190565b6104d4565b90825f939282370152565b90929192610f39610f3482610ef6565b610ee1565b93818552602085019082840111610f5557610f5392610f19565b565b610edd565b610f65913691610f24565b90565b60200190565b90610f9d610fa292610f84600193600492610f5a565b610f96610f9082610564565b91610f68565b2090610727565b610b20565b565b610faf906001610b20565b565b5f90565b610fcb610fd091610fc4610fb1565b505f610833565b610e42565b90565b606090565b67ffffffffffffffff8111610ff657610ff26020916104ca565b0190565b6104d4565b9061100d61100883610fd8565b610ee1565b918252565b61101b5f610ffb565b90565b611026611012565b90565b50505050611035610fd3565b5061103e61101e565b90565b611049610fb1565b5061105d6110576001610e52565b9161018b565b1490565b5f90565b90565b60e01b90565b61108261107d61108792611065565b611068565b610a58565b90565b90565b6110a161109c6110a69261108a565b611068565b610a58565b90565b50506110e0906110c76110e5936110be611061565b50600492610f5a565b6110d96110d382610564565b91610f68565b2090610727565b610e42565b6110f86110f26001610220565b91610220565b145f1461110f5761110c631626ba7e61108d565b90565b61111c63ffffffff61106e565b90565b61112a906005610b20565b56","linkReferences":{}},"methodIdentifiers":{"count()":"06661abd","initialized(address)":"cbca47db","isHook()":"f36b25a1","isInitialized(address)":"d60b347f","isModuleType(uint256)":"ecd05961","isValidSignatureWithSender(address,bytes32,bytes)":"f551e2ee","onInstall(bytes)":"6d61fe70","onUninstall(bytes)":"8a91b0e3","postCheck(bytes)":"173bf7da","preCheck(address,uint256,bytes)":"d68f6025","setHook(bool)":"fabaf0b6","success()":"0b93381b","sudoSetSuccess(bool)":"c4cbfd00","sudoSetValidSig(bytes)":"b75ad262","validSig(bytes32)":"ac5e1d39","validateUserOp((address,uint256,bytes,bytes,bytes32,uint256,bytes32,bytes,bytes),bytes32)":"97003203","validatorData(address)":"41f77adb"},"id":59}