{"abi":[{"type":"function","name":"ecdsaValidatorStorage","inputs":[{"name":"","type":"address","internalType":"address"}],"outputs":[{"name":"owner","type":"address","internalType":"address"}],"stateMutability":"view"},{"type":"function","name":"isInitialized","inputs":[{"name":"smartAccount","type":"address","internalType":"address"}],"outputs":[{"name":"","type":"bool","internalType":"bool"}],"stateMutability":"view"},{"type":"function","name":"isModuleType","inputs":[{"name":"typeID","type":"uint256","internalType":"uint256"}],"outputs":[{"name":"","type":"bool","internalType":"bool"}],"stateMutability":"pure"},{"type":"function","name":"isValidSignatureWithSender","inputs":[{"name":"","type":"address","internalType":"address"},{"name":"hash","type":"bytes32","internalType":"bytes32"},{"name":"sig","type":"bytes","internalType":"bytes"}],"outputs":[{"name":"","type":"bytes4","internalType":"bytes4"}],"stateMutability":"view"},{"type":"function","name":"onInstall","inputs":[{"name":"_data","type":"bytes","internalType":"bytes"}],"outputs":[],"stateMutability":"payable"},{"type":"function","name":"onUninstall","inputs":[{"name":"","type":"bytes","internalType":"bytes"}],"outputs":[],"stateMutability":"payable"},{"type":"function","name":"postCheck","inputs":[{"name":"hookData","type":"bytes","internalType":"bytes"}],"outputs":[],"stateMutability":"payable"},{"type":"function","name":"preCheck","inputs":[{"name":"msgSender","type":"address","internalType":"address"},{"name":"","type":"uint256","internalType":"uint256"},{"name":"","type":"bytes","internalType":"bytes"}],"outputs":[{"name":"","type":"bytes","internalType":"bytes"}],"stateMutability":"payable"},{"type":"function","name":"validateSignatureWithData","inputs":[{"name":"hash","type":"bytes32","internalType":"bytes32"},{"name":"signature","type":"bytes","internalType":"bytes"},{"name":"data","type":"bytes","internalType":"bytes"}],"outputs":[{"name":"","type":"bool","internalType":"bool"}],"stateMutability":"view"},{"type":"function","name":"validateSignatureWithDataWithSender","inputs":[{"name":"","type":"address","internalType":"address"},{"name":"hash","type":"bytes32","internalType":"bytes32"},{"name":"signature","type":"bytes","internalType":"bytes"},{"name":"data","type":"bytes","internalType":"bytes"}],"outputs":[{"name":"","type":"bool","internalType":"bool"}],"stateMutability":"view"},{"type":"function","name":"validateUserOp","inputs":[{"name":"userOp","type":"tuple","internalType":"struct PackedUserOperation","components":[{"name":"sender","type":"address","internalType":"address"},{"name":"nonce","type":"uint256","internalType":"uint256"},{"name":"initCode","type":"bytes","internalType":"bytes"},{"name":"callData","type":"bytes","internalType":"bytes"},{"name":"accountGasLimits","type":"bytes32","internalType":"bytes32"},{"name":"preVerificationGas","type":"uint256","internalType":"uint256"},{"name":"gasFees","type":"bytes32","internalType":"bytes32"},{"name":"paymasterAndData","type":"bytes","internalType":"bytes"},{"name":"signature","type":"bytes","internalType":"bytes"}]},{"name":"userOpHash","type":"bytes32","internalType":"bytes32"}],"outputs":[{"name":"","type":"uint256","internalType":"uint256"}],"stateMutability":"payable"},{"type":"event","name":"OwnerRegistered","inputs":[{"name":"kernel","type":"address","indexed":true,"internalType":"address"},{"name":"owner","type":"address","indexed":true,"internalType":"address"}],"anonymous":false},{"type":"error","name":"AlreadyInitialized","inputs":[{"name":"smartAccount","type":"address","internalType":"address"}]},{"type":"error","name":"InvalidTargetAddress","inputs":[{"name":"target","type":"address","internalType":"address"}]},{"type":"error","name":"NotInitialized","inputs":[{"name":"smartAccount","type":"address","internalType":"address"}]}],"bytecode":{"object":"0x6080604052348015600e575f5ffd5b506111758061001c5f395ff3fe60806040526004361061009b575f3560e01c8063940d384011610063578063940d38401461016b57806397003203146101a7578063d60b347f146101d7578063d68f602514610213578063ecd0596114610243578063f551e2ee1461027f5761009b565b8063173bf7da1461009f57806320709efc146100bb5780633d4e44be146100f75780636d61fe70146101335780638a91b0e31461014f575b5f5ffd5b6100b960048036038101906100b491906109f8565b6102bb565b005b3480156100c6575f5ffd5b506100e160048036038101906100dc9190610a9d565b6102bf565b6040516100ee9190610ad7565b60405180910390f35b348015610102575f5ffd5b5061011d60048036038101906101189190610b23565b6102f7565b60405161012a9190610be0565b60405180910390f35b61014d600480360381019061014891906109f8565b610330565b005b610169600480360381019061016491906109f8565b61047a565b005b348015610176575f5ffd5b50610191600480360381019061018c9190610bf9565b61052c565b60405161019e9190610be0565b60405180910390f35b6101c160048036038101906101bc9190610cad565b610564565b6040516101ce9190610d1f565b60405180910390f35b3480156101e2575f5ffd5b506101fd60048036038101906101f89190610a9d565b6105f7565b60405161020a9190610be0565b60405180910390f35b61022d60048036038101906102289190610d62565b610608565b60405161023a9190610e43565b60405180910390f35b34801561024e575f5ffd5b5061026960048036038101906102649190610e63565b6106ee565b6040516102769190610be0565b60405180910390f35b34801561028a575f5ffd5b506102a560048036038101906102a09190610e8e565b61071b565b6040516102b29190610f39565b60405180910390f35b5050565b5f602052805f5260405f205f91509050805f015f9054906101000a900473ffffffffffffffffffffffffffffffffffffffff16905081565b5f61032486868686865f9060149261031193929190610f5a565b9061031c9190610fd5565b60601c6107ae565b90509695505050505050565b6103393361084b565b1561037b57336040517f93360fbf0000000000000000000000000000000000000000000000000000000081526004016103729190610ad7565b60405180910390fd5b5f82825f9060149261038f93929190610f5a565b9061039a9190610fd5565b60601c9050805f5f3373ffffffffffffffffffffffffffffffffffffffff1673ffffffffffffffffffffffffffffffffffffffff1681526020019081526020015f205f015f6101000a81548173ffffffffffffffffffffffffffffffffffffffff021916908373ffffffffffffffffffffffffffffffffffffffff1602179055508073ffffffffffffffffffffffffffffffffffffffff163373ffffffffffffffffffffffffffffffffffffffff167fa5e1f8b4009110f5525798d04ae2125421a12d0590aa52c13682ff1bd3c492ca60405160405180910390a3505050565b6104833361084b565b6104c457336040517ff91bd6f10000000000000000000000000000000000000000000000000000000081526004016104bb9190610ad7565b60405180910390fd5b5f5f3373ffffffffffffffffffffffffffffffffffffffff1673ffffffffffffffffffffffffffffffffffffffff1681526020019081526020015f205f5f82015f6101000a81549073ffffffffffffffffffffffffffffffffffffffff021916905550505050565b5f61055986868686865f9060149261054693929190610f5a565b906105519190610fd5565b60601c6107ae565b905095945050505050565b5f5f5f5f3373ffffffffffffffffffffffffffffffffffffffff1673ffffffffffffffffffffffffffffffffffffffff1681526020019081526020015f205f015f9054906101000a900473ffffffffffffffffffffffffffffffffffffffff1690506105e183858061010001906105db919061103f565b846107ae565b6105ec5760016105ee565b5f5b91505092915050565b5f6106018261084b565b9050919050565b60605f5f3373ffffffffffffffffffffffffffffffffffffffff1673ffffffffffffffffffffffffffffffffffffffff1681526020019081526020015f205f015f9054906101000a900473ffffffffffffffffffffffffffffffffffffffff1673ffffffffffffffffffffffffffffffffffffffff168573ffffffffffffffffffffffffffffffffffffffff16146106d5576040517f08c379a00000000000000000000000000000000000000000000000000000000081526004016106cc90611121565b60405180910390fd5b60405180602001604052805f8152509050949350505050565b5f60018214806106fe5750600482145b806107095750600782145b806107145750600882145b9050919050565b5f5f5f5f3373ffffffffffffffffffffffffffffffffffffffff1673ffffffffffffffffffffffffffffffffffffffff1681526020019081526020015f205f015f9054906101000a900473ffffffffffffffffffffffffffffffffffffffff169050610789858585846107ae565b61079a5763ffffffff60e01b6107a3565b631626ba7e60e01b5b915050949350505050565b5f6107ba8585856108e0565b73ffffffffffffffffffffffffffffffffffffffff168273ffffffffffffffffffffffffffffffffffffffff16036107f55760019050610843565b5f6107ff8661095f565b90505f61080d8287876108e0565b90508073ffffffffffffffffffffffffffffffffffffffff168473ffffffffffffffffffffffffffffffffffffffff1614925050505b949350505050565b5f5f73ffffffffffffffffffffffffffffffffffffffff165f5f8473ffffffffffffffffffffffffffffffffffffffff1673ffffffffffffffffffffffffffffffffffffffff1681526020019081526020015f205f015f9054906101000a900473ffffffffffffffffffffffffffffffffffffffff1673ffffffffffffffffffffffffffffffffffffffff1614159050919050565b5f60405160011561095757826040811461090257604181146109265750610957565b6020850135601b8160ff1c0160205285356040528060011b60011c60605250610937565b60408501355f1a6020526040856040375b50845f526020604060805f60015afa505f6060523d606018519150806040525b509392505050565b5f816020527b19457468657265756d205369676e6564204d6573736167653a0a33325f52603c6004209050919050565b5f5ffd5b5f5ffd5b5f5ffd5b5f5ffd5b5f5ffd5b5f5f83601f8401126109b8576109b7610997565b5b8235905067ffffffffffffffff8111156109d5576109d461099b565b5b6020830191508360018202830111156109f1576109f061099f565b5b9250929050565b5f5f60208385031215610a0e57610a0d61098f565b5b5f83013567ffffffffffffffff811115610a2b57610a2a610993565b5b610a37858286016109a3565b92509250509250929050565b5f73ffffffffffffffffffffffffffffffffffffffff82169050919050565b5f610a6c82610a43565b9050919050565b610a7c81610a62565b8114610a86575f5ffd5b50565b5f81359050610a9781610a73565b92915050565b5f60208284031215610ab257610ab161098f565b5b5f610abf84828501610a89565b91505092915050565b610ad181610a62565b82525050565b5f602082019050610aea5f830184610ac8565b92915050565b5f819050919050565b610b0281610af0565b8114610b0c575f5ffd5b50565b5f81359050610b1d81610af9565b92915050565b5f5f5f5f5f5f60808789031215610b3d57610b3c61098f565b5b5f610b4a89828a01610a89565b9650506020610b5b89828a01610b0f565b955050604087013567ffffffffffffffff811115610b7c57610b7b610993565b5b610b8889828a016109a3565b9450945050606087013567ffffffffffffffff811115610bab57610baa610993565b5b610bb789828a016109a3565b92509250509295509295509295565b5f8115159050919050565b610bda81610bc6565b82525050565b5f602082019050610bf35f830184610bd1565b92915050565b5f5f5f5f5f60608688031215610c1257610c1161098f565b5b5f610c1f88828901610b0f565b955050602086013567ffffffffffffffff811115610c4057610c3f610993565b5b610c4c888289016109a3565b9450945050604086013567ffffffffffffffff811115610c6f57610c6e610993565b5b610c7b888289016109a3565b92509250509295509295909350565b5f5ffd5b5f6101208284031215610ca457610ca3610c8a565b5b81905092915050565b5f5f60408385031215610cc357610cc261098f565b5b5f83013567ffffffffffffffff811115610ce057610cdf610993565b5b610cec85828601610c8e565b9250506020610cfd85828601610b0f565b9150509250929050565b5f819050919050565b610d1981610d07565b82525050565b5f602082019050610d325f830184610d10565b92915050565b610d4181610d07565b8114610d4b575f5ffd5b50565b5f81359050610d5c81610d38565b92915050565b5f5f5f5f60608587031215610d7a57610d7961098f565b5b5f610d8787828801610a89565b9450506020610d9887828801610d4e565b935050604085013567ffffffffffffffff811115610db957610db8610993565b5b610dc5878288016109a3565b925092505092959194509250565b5f81519050919050565b5f82825260208201905092915050565b8281835e5f83830152505050565b5f601f19601f8301169050919050565b5f610e1582610dd3565b610e1f8185610ddd565b9350610e2f818560208601610ded565b610e3881610dfb565b840191505092915050565b5f6020820190508181035f830152610e5b8184610e0b565b905092915050565b5f60208284031215610e7857610e7761098f565b5b5f610e8584828501610d4e565b91505092915050565b5f5f5f5f60608587031215610ea657610ea561098f565b5b5f610eb387828801610a89565b9450506020610ec487828801610b0f565b935050604085013567ffffffffffffffff811115610ee557610ee4610993565b5b610ef1878288016109a3565b925092505092959194509250565b5f7fffffffff0000000000000000000000000000000000000000000000000000000082169050919050565b610f3381610eff565b82525050565b5f602082019050610f4c5f830184610f2a565b92915050565b5f5ffd5b5f5ffd5b5f5f85851115610f6d57610f6c610f52565b5b83861115610f7e57610f7d610f56565b5b6001850283019150848603905094509492505050565b5f82905092915050565b5f7fffffffffffffffffffffffffffffffffffffffff00000000000000000000000082169050919050565b5f82821b905092915050565b5f610fe08383610f94565b82610feb8135610f9e565b9250601482101561102b576110267fffffffffffffffffffffffffffffffffffffffff00000000000000000000000083601403600802610fc9565b831692505b505092915050565b5f5ffd5b5f5ffd5b5f5ffd5b5f5f8335600160200384360303811261105b5761105a611033565b5b80840192508235915067ffffffffffffffff82111561107d5761107c611037565b5b6020830192506001820236038313156110995761109861103b565b5b509250929050565b5f82825260208201905092915050565b7f454344534156616c696461746f723a2073656e646572206973206e6f74206f775f8201527f6e65720000000000000000000000000000000000000000000000000000000000602082015250565b5f61110b6023836110a1565b9150611116826110b1565b604082019050919050565b5f6020820190508181035f830152611138816110ff565b905091905056fea26469706673582212206989bd5ead4b5b9f555313450616a1948044aff9381aafcb76bd61d24c98c52d64736f6c634300081e0033","linkReferences":{}},"methodIdentifiers":{"ecdsaValidatorStorage(address)":"20709efc","isInitialized(address)":"d60b347f","isModuleType(uint256)":"ecd05961","isValidSignatureWithSender(address,bytes32,bytes)":"f551e2ee","onInstall(bytes)":"6d61fe70","onUninstall(bytes)":"8a91b0e3","postCheck(bytes)":"173bf7da","preCheck(address,uint256,bytes)":"d68f6025","validateSignatureWithData(bytes32,bytes,bytes)":"940d3840","validateSignatureWithDataWithSender(address,bytes32,bytes,bytes)":"3d4e44be","validateUserOp((address,uint256,bytes,bytes,bytes32,uint256,bytes32,bytes,bytes),bytes32)":"97003203"},"id":2}