{"abi":[{"type":"constructor","inputs":[],"stateMutability":"nonpayable"},{"type":"function","name":"DOMAIN_SEPARATOR","inputs":[],"outputs":[{"name":"result","type":"bytes32","internalType":"bytes32"}],"stateMutability":"view"},{"type":"function","name":"allowance","inputs":[{"name":"owner","type":"address","internalType":"address"},{"name":"spender","type":"address","internalType":"address"}],"outputs":[{"name":"result","type":"uint256","internalType":"uint256"}],"stateMutability":"view"},{"type":"function","name":"approve","inputs":[{"name":"spender","type":"address","internalType":"address"},{"name":"amount","type":"uint256","internalType":"uint256"}],"outputs":[{"name":"","type":"bool","internalType":"bool"}],"stateMutability":"nonpayable"},{"type":"function","name":"balanceOf","inputs":[{"name":"owner","type":"address","internalType":"address"}],"outputs":[{"name":"result","type":"uint256","internalType":"uint256"}],"stateMutability":"view"},{"type":"function","name":"decimals","inputs":[],"outputs":[{"name":"","type":"uint8","internalType":"uint8"}],"stateMutability":"view"},{"type":"function","name":"mint","inputs":[{"name":"_to","type":"address","internalType":"address"},{"name":"_amount","type":"uint256","internalType":"uint256"}],"outputs":[],"stateMutability":"nonpayable"},{"type":"function","name":"name","inputs":[],"outputs":[{"name":"","type":"string","internalType":"string"}],"stateMutability":"pure"},{"type":"function","name":"nonces","inputs":[{"name":"owner","type":"address","internalType":"address"}],"outputs":[{"name":"result","type":"uint256","internalType":"uint256"}],"stateMutability":"view"},{"type":"function","name":"permit","inputs":[{"name":"owner","type":"address","internalType":"address"},{"name":"spender","type":"address","internalType":"address"},{"name":"value","type":"uint256","internalType":"uint256"},{"name":"deadline","type":"uint256","internalType":"uint256"},{"name":"v","type":"uint8","internalType":"uint8"},{"name":"r","type":"bytes32","internalType":"bytes32"},{"name":"s","type":"bytes32","internalType":"bytes32"}],"outputs":[],"stateMutability":"nonpayable"},{"type":"function","name":"symbol","inputs":[],"outputs":[{"name":"","type":"string","internalType":"string"}],"stateMutability":"pure"},{"type":"function","name":"test_ignore","inputs":[],"outputs":[],"stateMutability":"nonpayable"},{"type":"function","name":"totalSupply","inputs":[],"outputs":[{"name":"result","type":"uint256","internalType":"uint256"}],"stateMutability":"view"},{"type":"function","name":"transfer","inputs":[{"name":"to","type":"address","internalType":"address"},{"name":"amount","type":"uint256","internalType":"uint256"}],"outputs":[{"name":"","type":"bool","internalType":"bool"}],"stateMutability":"nonpayable"},{"type":"function","name":"transferFrom","inputs":[{"name":"from","type":"address","internalType":"address"},{"name":"to","type":"address","internalType":"address"},{"name":"amount","type":"uint256","internalType":"uint256"}],"outputs":[{"name":"","type":"bool","internalType":"bool"}],"stateMutability":"nonpayable"},{"type":"event","name":"Approval","inputs":[{"name":"owner","type":"address","indexed":true,"internalType":"address"},{"name":"spender","type":"address","indexed":true,"internalType":"address"},{"name":"amount","type":"uint256","indexed":false,"internalType":"uint256"}],"anonymous":false},{"type":"event","name":"Transfer","inputs":[{"name":"from","type":"address","indexed":true,"internalType":"address"},{"name":"to","type":"address","indexed":true,"internalType":"address"},{"name":"amount","type":"uint256","indexed":false,"internalType":"uint256"}],"anonymous":false},{"type":"error","name":"AllowanceOverflow","inputs":[]},{"type":"error","name":"AllowanceUnderflow","inputs":[]},{"type":"error","name":"InsufficientAllowance","inputs":[]},{"type":"error","name":"InsufficientBalance","inputs":[]},{"type":"error","name":"InvalidPermit","inputs":[]},{"type":"error","name":"PermitExpired","inputs":[]},{"type":"error","name":"TotalSupplyOverflow","inputs":[]}],"bytecode":{"object":"0x608060405234601c57600e6020565b610d9961002b8239610d9990f35b6026565b60405190565b5f80fdfe60806040526004361015610013575b6106d1565b61001d5f356100fc565b806306fdde03146100f7578063095ea7b3146100f257806318160ddd146100ed57806323b872dd146100e8578063313ce567146100e35780633644e515146100de57806340c10f19146100d957806370a08231146100d45780637ecebe00146100cf57806395d89b41146100ca578063a9059cbb146100c5578063b4e7a91d146100c0578063d505accf146100bb5763dd62ed3e0361000e5761069b565b610634565b610553565b61051d565b6104e8565b6104b3565b61047e565b61042c565b6103f2565b610398565b61033a565b6102cb565b610273565b61018a565b60e01c90565b60405190565b5f80fd5b5f80fd5b5f91031261011a57565b61010c565b5190565b60209181520190565b90825f9392825e0152565b601f801991011690565b61016061016960209361016e936101578161011f565b93848093610123565b9586910161012c565b610137565b0190565b6101879160208201915f818403910152610141565b90565b346101ba5761019a366004610110565b6101b66101a56107b1565b6101ad610102565b91829182610172565b0390f35b610108565b60018060a01b031690565b6101d3906101bf565b90565b6101df816101ca565b036101e657565b5f80fd5b905035906101f7826101d6565b565b90565b610205816101f9565b0361020c57565b5f80fd5b9050359061021d826101fc565b565b9190604083820312610247578061023b610244925f86016101ea565b93602001610210565b90565b61010c565b151590565b61025a9061024c565b9052565b9190610271905f60208501940190610251565b565b346102a4576102a061028f61028936600461021f565b906107c9565b610297610102565b9182918261025e565b0390f35b610108565b6102b2906101f9565b9052565b91906102c9905f602085019401906102a9565b565b346102fb576102db366004610110565b6102f76102e661081e565b6102ee610102565b918291826102b6565b0390f35b610108565b90916060828403126103355761033261031b845f85016101ea565b9361032981602086016101ea565b93604001610210565b90565b61010c565b3461036b57610367610356610350366004610300565b91610835565b61035e610102565b9182918261025e565b0390f35b610108565b60ff1690565b61037f90610370565b9052565b9190610396905f60208501940190610376565b565b346103c8576103a8366004610110565b6103c46103b3610919565b6103bb610102565b91829182610383565b0390f35b610108565b90565b6103d9906103cd565b9052565b91906103f0905f602085019401906103d0565b565b3461042257610402366004610110565b61041e61040d610964565b610415610102565b918291826103dd565b0390f35b610108565b5f0190565b3461045b5761044561043f36600461021f565b90610a28565b61044d610102565b8061045781610427565b0390f35b610108565b9060208282031261047957610476915f016101ea565b90565b61010c565b346104ae576104aa610499610494366004610460565b610a34565b6104a1610102565b918291826102b6565b0390f35b610108565b346104e3576104df6104ce6104c9366004610460565b610a50565b6104d6610102565b918291826102b6565b0390f35b610108565b34610518576104f8366004610110565b610514610503610ab7565b61050b610102565b91829182610172565b0390f35b610108565b3461054e5761054a61053961053336600461021f565b90610acb565b610541610102565b9182918261025e565b0390f35b610108565b3461057957610563366004610110565b61056b610102565b8061057581610427565b0390f35b610108565b61058781610370565b0361058e57565b5f80fd5b9050359061059f8261057e565b565b6105aa816103cd565b036105b157565b5f80fd5b905035906105c2826105a1565b565b60e08183031261062f576105da825f83016101ea565b926105e883602084016101ea565b926105f68160408501610210565b926106048260608301610210565b9261062c6106158460808501610592565b936106238160a086016105b5565b9360c0016105b5565b90565b61010c565b34610669576106536106473660046105c4565b95949094939193610b40565b61065b610102565b8061066581610427565b0390f35b610108565b9190604083820312610696578061068a610693925f86016101ea565b936020016101ea565b90565b61010c565b346106cc576106c86106b76106b136600461066e565b90610cfb565b6106bf610102565b918291826102b6565b0390f35b610108565b5f80fd5b606090565b634e487b7160e01b5f52604160045260245ffd5b906106f890610137565b810190811067ffffffffffffffff82111761071257604052565b6106da565b9061072a610723610102565b92836106ee565b565b67ffffffffffffffff811161074a57610746602091610137565b0190565b6106da565b9061076161075c8361072c565b610717565b918252565b5f7f4d6f636b45524332300000000000000000000000000000000000000000000000910152565b610797600961074f565b906107a460208301610766565b565b6107ae61078d565b90565b6107b96106d5565b506107c26107a6565b90565b5f90565b6107d16107c5565b50602052637f5e9f20600c52335f52806034600c20555f52602c5160601c337f8c5be1e5ebec7d5bd14f71427d1e84f3dd0314c0f7b2291e5b200ac8c7c3b92560205fa3600190565b5f90565b61082661081a565b506805345cdf77eb68f44c5490565b9190916108406107c5565b5060601b9133602052637f5e9f208317600c526034600c208054600181016108d3575b50506387a211a28317600c526020600c2080548084116108c65783900390555f526020600c20818154019055602052600c5160601c9060601c7fddf252ad1be2c89b69c2b068fc378daa952ba7f163c4a11628f55a4df523b3ef602080a3600190565b63f4d678b85f526004601cfd5b8084116108e65783900390555f80610863565b6313be252b5f526004601cfd5b5f90565b90565b90565b61091161090c610916926108f7565b6108fa565b610370565b90565b6109216108f3565b5061092c60126108fd565b90565b5f90565b90565b5f1b90565b61094f61094a61095492610933565b610936565b6103cd565b90565b90565b60200190565b5190565b61096c61092f565b50610975610d1b565b8061099061098a6109855f61093b565b6103cd565b916103cd565b146109fb575b60a090604051907f8b73c3c69bb8fe3d512ecc4cf759cc79239f7b179b0ffacaa9a75d522b39400f825260208201527fc89efdaa54c0f20c7adf612882df0950f5a951637e0307cdcb4c672f298b8bc660408201524660608201523060808201522090565b5060a0610a0e610a096107b1565b610957565b610a20610a1a82610960565b9161095a565b209050610996565b90610a3291610d26565b565b610a3c61081a565b506387a211a2600c525f526020600c205490565b610a5861081a565b506338377508600c525f526020600c205490565b5f7f4d4f434b00000000000000000000000000000000000000000000000000000000910152565b610a9d600461074f565b90610aaa60208301610a6c565b565b610ab4610a93565b90565b610abf6106d5565b50610ac8610aac565b90565b610ad36107c5565b506387a211a2600c52335f526020600c208054808411610b335783900390555f526020600c20818154019055602052600c5160601c337fddf252ad1be2c89b69c2b068fc378daa952ba7f163c4a11628f55a4df523b3ef602080a3600190565b63f4d678b85f526004601cfd5b9594909394929192610b50610d1b565b9182610b6c610b66610b615f61093b565b6103cd565b916103cd565b14610cd0575b834211610cc3576040519760601b60601c9560601b60601c9665383775081901600e52865f526020600c20948554947f8b73c3c69bb8fe3d512ecc4cf759cc79239f7b179b0ffacaa9a75d522b39400f8b5260208b01527fc89efdaa54c0f20c7adf612882df0950f5a951637e0307cdcb4c672f298b8bc660408b01524660608b01523060808b015260a08a20602e527f6e71edae12b1b97f4d1f60370fef10105fa2faae0126114a169c64845d6126c98a528760208b01528860408b01528660608b01528460808b015260a08a015260c08920604e526042602c205f5260ff1660205260405260605260208060805f60015afa90843d5103610cb65701905582637f5e9f2060a01b176040526034602c20557f8c5be1e5ebec7d5bd14f71427d1e84f3dd0314c0f7b2291e5b200ac8c7c3b925602060608501a36040525f606052565b63ddafbaef5f526004601cfd5b631a15a3cc5f526004601cfd5b9150610ce2610cdd6107b1565b610957565b610cf4610cee82610960565b9161095a565b2091610b72565b90610d0461081a565b50602052637f5e9f20600c525f526034600c205490565b610d2361092f565b90565b6805345cdf77eb68f44c54828101908110610d8c576805345cdf77eb68f44c556387a211a2600c525f526020600c20818154019055602052600c5160601c5f7fddf252ad1be2c89b69c2b068fc378daa952ba7f163c4a11628f55a4df523b3ef602080a3565b63e5cfe9575f526004601cfd","linkReferences":{}},"methodIdentifiers":{"DOMAIN_SEPARATOR()":"3644e515","allowance(address,address)":"dd62ed3e","approve(address,uint256)":"095ea7b3","balanceOf(address)":"70a08231","decimals()":"313ce567","mint(address,uint256)":"40c10f19","name()":"06fdde03","nonces(address)":"7ecebe00","permit(address,address,uint256,uint256,uint8,bytes32,bytes32)":"d505accf","symbol()":"95d89b41","test_ignore()":"b4e7a91d","totalSupply()":"18160ddd","transfer(address,uint256)":"a9059cbb","transferFrom(address,address,uint256)":"23b872dd"},"id":52}