{"abi":[{"type":"function","name":"checkSignature","inputs":[{"name":"id","type":"bytes32","internalType":"bytes32"},{"name":"","type":"address","internalType":"address"},{"name":"","type":"bytes32","internalType":"bytes32"},{"name":"","type":"bytes","internalType":"bytes"}],"outputs":[{"name":"","type":"bytes4","internalType":"bytes4"}],"stateMutability":"view"},{"type":"function","name":"checkUserOpSignature","inputs":[{"name":"id","type":"bytes32","internalType":"bytes32"},{"name":"userOp","type":"tuple","internalType":"struct PackedUserOperation","components":[{"name":"sender","type":"address","internalType":"address"},{"name":"nonce","type":"uint256","internalType":"uint256"},{"name":"initCode","type":"bytes","internalType":"bytes"},{"name":"callData","type":"bytes","internalType":"bytes"},{"name":"accountGasLimits","type":"bytes32","internalType":"bytes32"},{"name":"preVerificationGas","type":"uint256","internalType":"uint256"},{"name":"gasFees","type":"bytes32","internalType":"bytes32"},{"name":"paymasterAndData","type":"bytes","internalType":"bytes"},{"name":"signature","type":"bytes","internalType":"bytes"}]},{"name":"","type":"bytes32","internalType":"bytes32"}],"outputs":[{"name":"","type":"uint256","internalType":"uint256"}],"stateMutability":"payable"},{"type":"function","name":"data","inputs":[{"name":"wallet","type":"address","internalType":"address"}],"outputs":[{"name":"","type":"bytes","internalType":"bytes"}],"stateMutability":"view"},{"type":"function","name":"isInitialized","inputs":[{"name":"smartAccount","type":"address","internalType":"address"}],"outputs":[{"name":"","type":"bool","internalType":"bool"}],"stateMutability":"view"},{"type":"function","name":"isModuleType","inputs":[{"name":"moduleTypeId","type":"uint256","internalType":"uint256"}],"outputs":[{"name":"","type":"bool","internalType":"bool"}],"stateMutability":"pure"},{"type":"function","name":"onInstall","inputs":[{"name":"_data","type":"bytes","internalType":"bytes"}],"outputs":[],"stateMutability":"payable"},{"type":"function","name":"onUninstall","inputs":[{"name":"","type":"bytes","internalType":"bytes"}],"outputs":[],"stateMutability":"payable"},{"type":"function","name":"pass","inputs":[{"name":"","type":"address","internalType":"address"},{"name":"","type":"bytes32","internalType":"bytes32"}],"outputs":[{"name":"","type":"bool","internalType":"bool"}],"stateMutability":"view"},{"type":"function","name":"sig","inputs":[{"name":"","type":"address","internalType":"address"},{"name":"","type":"bytes32","internalType":"bytes32"}],"outputs":[{"name":"","type":"bytes","internalType":"bytes"}],"stateMutability":"view"},{"type":"function","name":"sudoSetPass","inputs":[{"name":"_wallet","type":"address","internalType":"address"},{"name":"_id","type":"bytes32","internalType":"bytes32"},{"name":"_flag","type":"bool","internalType":"bool"}],"outputs":[],"stateMutability":"payable"},{"type":"function","name":"sudoSetValidSig","inputs":[{"name":"_wallet","type":"address","internalType":"address"},{"name":"_id","type":"bytes32","internalType":"bytes32"},{"name":"_sig","type":"bytes","internalType":"bytes"}],"outputs":[],"stateMutability":"payable"},{"type":"error","name":"AlreadyInitialized","inputs":[{"name":"smartAccount","type":"address","internalType":"address"}]},{"type":"error","name":"NotInitialized","inputs":[{"name":"smartAccount","type":"address","internalType":"address"}]}],"bytecode":{"object":"0x608060405234601c57600e6020565b610f9961002b8239610f9990f35b6026565b60405190565b5f80fdfe60806040526004361015610013575b610977565b61001d5f356100cc565b80630ccab7a1146100c7578063392dffaf146100c25780636d61fe70146100bd5780638a91b0e3146100b8578063a61c2f59146100b3578063a8d6604d146100ae578063b90d3d0c146100a9578063d60b347f146100a4578063e2c596151461009f578063eca509441461009a5763ecd059610361000e57610942565b6108cb565b610818565b61075d565b610706565b61047b565b6103ec565b610377565b61034d565b6102d9565b610196565b60e01c90565b60405190565b5f80fd5b5f80fd5b90565b6100ec816100e0565b036100f357565b5f80fd5b90503590610104826100e3565b565b5f80fd5b90816101209103126101195790565b610106565b909160608284031261016c57610136835f84016100f7565b9260208301359067ffffffffffffffff82116101675761015b8161016493860161010a565b936040016100f7565b90565b6100dc565b6100d8565b90565b61017d90610171565b9052565b9190610194905f60208501940190610174565b565b6101be6101ad6101a736600461011e565b91610acf565b6101b56100d2565b91829182610181565b0390f35b5f80fd5b60018060a01b031690565b6101da906101c6565b90565b6101e6816101d1565b036101ed57565b5f80fd5b905035906101fe826101dd565b565b5f80fd5b5f80fd5b5f80fd5b909182601f830112156102465781359167ffffffffffffffff831161024157602001926001830284011161023c57565b610208565b610204565b610200565b906080828203126102a657610262815f84016100f7565b9261027082602085016101f1565b9261027e83604083016100f7565b92606082013567ffffffffffffffff81116102a15761029d920161020c565b9091565b6100dc565b6100d8565b63ffffffff60e01b1690565b6102c0906102ab565b9052565b91906102d7905f602085019401906102b7565b565b3461030d576103096102f86102ef36600461024b565b93929092610be2565b6103006100d2565b918291826102c4565b0390f35b6101c2565b90602082820312610343575f82013567ffffffffffffffff811161033e5761033a920161020c565b9091565b6100dc565b6100d8565b5f0190565b61036161035b366004610312565b90610e4d565b6103696100d2565b8061037381610348565b0390f35b610382366004610312565b505061038c6100d2565b8061039681610348565b0390f35b916060838303126103e7576103b1825f85016101f1565b926103bf83602083016100f7565b92604082013567ffffffffffffffff81116103e2576103de920161020c565b9091565b6100dc565b6100d8565b6104036103fa36600461039a565b92919091610e64565b61040b6100d2565b8061041581610348565b0390f35b151590565b61042781610419565b0361042e57565b5f80fd5b9050359061043f8261041e565b565b90916060828403126104765761047361045c845f85016101f1565b9361046a81602086016100f7565b93604001610432565b90565b6100d8565b61048f610489366004610441565b91610ed0565b6104976100d2565b806104a181610348565b0390f35b906020828203126104be576104bb915f016101f1565b90565b6100d8565b90565b6104da6104d56104df926101c6565b6104c3565b6101c6565b90565b6104eb906104c6565b90565b6104f7906104e2565b90565b90610504906104ee565b5f5260205260405f2090565b634e487b7160e01b5f525f60045260245ffd5b634e487b7160e01b5f52602260045260245ffd5b9060016002830492168015610557575b602083101461055257565b610523565b91607f1691610547565b60209181520190565b5f5260205f2090565b905f929180549061058d61058683610537565b8094610561565b916001811690815f146105e457506001146105a8575b505050565b6105b5919293945061056a565b915f925b8184106105cc57505001905f80806105a3565b600181602092959395548486015201910192906105b9565b92949550505060ff19168252151560200201905f80806105a3565b9061060991610573565b90565b601f801991011690565b634e487b7160e01b5f52604160045260245ffd5b906106349061060c565b810190811067ffffffffffffffff82111761064e57604052565b610616565b9061067361066c926106636100d2565b938480926105ff565b038361062a565b565b905f106106885761068590610653565b90565b610510565b6106a29061069d5f915f926104fa565b610675565b90565b5190565b60209181520190565b90825f9392825e0152565b6106dc6106e56020936106ea936106d3816106a5565b938480936106a9565b958691016106b2565b61060c565b0190565b6107039160208201915f8184039101526106bd565b90565b346107365761073261072161071c3660046104a5565b61068d565b6107296100d2565b918291826106ee565b0390f35b6101c2565b61074490610419565b9052565b919061075b905f6020850194019061073b565b565b3461078d576107896107786107733660046104a5565b610f1d565b6107806100d2565b91829182610748565b0390f35b6101c2565b91906040838203126107ba57806107ae6107b7925f86016101f1565b936020016100f7565b90565b6100d8565b906107c9906104ee565b5f5260205260405f2090565b6107de906100e0565b90565b906107eb906107d5565b5f5260205260405f2090565b6108106108159261080b6001935f946107bf565b6107e1565b610675565b90565b346108495761084561083461082e366004610792565b906107f7565b61083c6100d2565b918291826106ee565b0390f35b6101c2565b90610858906104ee565b5f5260205260405f2090565b9061086e906107d5565b5f5260205260405f2090565b1c90565b60ff1690565b610894906008610899930261087a565b61087e565b90565b906108a79154610884565b90565b6108c36108c8926108be6002935f9461084e565b610864565b61089c565b90565b346108fc576108f86108e76108e1366004610792565b906108aa565b6108ef6100d2565b91829182610748565b0390f35b6101c2565b61090a81610171565b0361091157565b5f80fd5b9050359061092282610901565b565b9060208282031261093d5761093a915f01610915565b90565b6100d8565b346109725761096e61095d610958366004610924565b610f6d565b6109656100d2565b91829182610748565b0390f35b6101c2565b5f80fd5b5f90565b5f80fd5b5f80fd5b5f80fd5b9035906001602003813603038212156109cd570180359067ffffffffffffffff82116109c8576020019160018202360383136109c357565b610987565b610983565b61097f565b5f80fd5b906109e96109e26100d2565b928361062a565b565b67ffffffffffffffff8111610a0957610a0560209161060c565b0190565b610616565b90825f939282370152565b90929192610a2e610a29826109eb565b6109d6565b93818552602085019082840111610a4a57610a4892610a0e565b565b6109d2565b610a5a913691610a19565b90565b60200190565b610a6c90610653565b90565b90565b60ff1690565b610a8c610a87610a9192610a6f565b6104c3565b610a72565b90565b90565b610aab610aa6610ab092610a94565b6104c3565b610a72565b90565b610ac7610ac2610acc92610a72565b6104c3565b610171565b90565b9150610b40610b28610b23610afe610af8610b4695610aec61097b565b5061010081019061098b565b90610a4f565b610b10610b0a826106a5565b91610a5d565b2094610b1e600133906107bf565b6107e1565b610a63565b610b3a610b34826106a5565b91610a5d565b206100e0565b916100e0565b145f14610b6257610b5f610b595f610a97565b5b610ab3565b90565b610b5f610b6f6001610a78565b610b5a565b5f90565b5f1c90565b610b89610b8e91610b78565b61087e565b90565b610b9b9054610b7d565b90565b90565b60e01b90565b610bbb610bb6610bc092610b9e565b610ba1565b6102ab565b90565b90565b610bda610bd5610bdf92610bc3565b610ba1565b6102ab565b90565b915050610c0e9250610c099150610bf7610b74565b50610c046002339061084e565b610864565b610b91565b610c21610c1b6001610419565b91610419565b145f14610c3857610c35631626ba7e610bc6565b90565b610c4563ffffffff610ba7565b90565b5090565b601f602091010490565b1b90565b91906008610c75910291610c6f5f1984610c56565b92610c56565b9181191691161790565b610c93610c8e610c9892610171565b6104c3565b610171565b90565b90565b9190610cb4610caf610cbc93610c7f565b610c9b565b908354610c5a565b9055565b610cd291610ccc61097b565b91610c9e565b565b5b818110610ce0575050565b80610ced5f600193610cc0565b01610cd5565b9190601f8111610d03575b505050565b610d0f610d349361056a565b906020610d1b84610c4c565b83019310610d3c575b610d2d90610c4c565b0190610cd4565b5f8080610cfe565b9150610d2d81929050610d24565b90610d5a905f199060080261087a565b191690565b81610d6991610d4a565b906002021790565b91610d7c9082610c48565b9067ffffffffffffffff8211610e3b57610da082610d9a8554610537565b85610cf3565b5f90601f8311600114610dd357918091610dc2935f92610dc7575b5050610d5f565b90555b565b90915001355f80610dbb565b601f19831691610de28561056a565b925f5b818110610e2357509160029391856001969410610e09575b50505002019055610dc5565b610e19910135601f841690610d4a565b90555f8080610dfd565b91936020600181928787013581550195019201610de5565b610616565b90610e4b9291610d71565b565b90610e6291610e5d5f33906104fa565b610e40565b565b91610e849391610e7a610e7f92939460016107bf565b6107e1565b610e40565b565b5f1b90565b90610e9760ff91610e86565b9181191691161790565b610eaa90610419565b90565b90565b90610ec5610ec0610ecc92610ea1565b610ead565b8254610e8b565b9055565b90610ee990610ee4610eee9493600261084e565b610864565b610eb0565b565b5f90565b610efe9054610537565b90565b610f15610f10610f1a92610a94565b6104c3565b610171565b90565b610f33610f3891610f2c610ef0565b505f6104fa565b610ef4565b610f4a610f445f610f01565b91610171565b1190565b90565b610f65610f60610f6a92610f4e565b6104c3565b610171565b90565b610f75610ef0565b50610f89610f836007610f51565b91610171565b145f14610f9557600190565b5f9056","linkReferences":{}},"methodIdentifiers":{"checkSignature(bytes32,address,bytes32,bytes)":"392dffaf","checkUserOpSignature(bytes32,(address,uint256,bytes,bytes,bytes32,uint256,bytes32,bytes,bytes),bytes32)":"0ccab7a1","data(address)":"b90d3d0c","isInitialized(address)":"d60b347f","isModuleType(uint256)":"ecd05961","onInstall(bytes)":"6d61fe70","onUninstall(bytes)":"8a91b0e3","pass(address,bytes32)":"eca50944","sig(address,bytes32)":"e2c59615","sudoSetPass(address,bytes32,bool)":"a8d6604d","sudoSetValidSig(address,bytes32,bytes)":"a61c2f59"},"id":58}